{
	"data": {
		"bytecode": {
			"linkReferences": {},
			"object": "60806040526040518060800160405280605a815260200162005bea605a9139600b908051906020019062000035929190620002eb565b506040518060400160405280600581526020017f2e6a736f6e000000000000000000000000000000000000000000000000000000815250600c908051906020019062000083929190620002eb565b50611b58600d55612328600e55612710600f5564174876e80060105564e8d4a510006011556509184e72a0006012556000601360006101000a81548160ff0219169083151502179055506000601360016101000a81548160ff0219169083151502179055506040518060400160405280601d81526020017f68747470733a2f2f6e6674706c616e65742e6f6e2e666c65656b2e636f0000008152506014908051906020019062000135929190620002eb565b5060646015556001601760006101000a81548160ff0219169083151502179055503480156200016357600080fd5b5060405162005c4438038062005c44833981810160405281019062000189919062000419565b81818160009080519060200190620001a3929190620002eb565b508060019080519060200190620001bc929190620002eb565b505050620001df620001d36200021d60201b60201c565b6200022560201b60201c565b60016019819055506001600d54620001f89190620004fd565b601a819055506001600e546200020f9190620004fd565b601b819055505050620006b8565b600033905090565b6000600a60009054906101000a900473ffffffffffffffffffffffffffffffffffffffff16905081600a60006101000a81548173ffffffffffffffffffffffffffffffffffffffff021916908373ffffffffffffffffffffffffffffffffffffffff1602179055508173ffffffffffffffffffffffffffffffffffffffff168173ffffffffffffffffffffffffffffffffffffffff167f8be0079c531659141344cd1fd0a4f28419497f9722a3daafe3b4186f6b6457e060405160405180910390a35050565b828054620002f9906200059a565b90600052602060002090601f0160209004810192826200031d576000855562000369565b82601f106200033857805160ff191683800117855562000369565b8280016001018555821562000369579182015b82811115620003685782518255916020019190600101906200034b565b5b5090506200037891906200037c565b5090565b5b80821115620003975760008160009055506001016200037d565b5090565b6000620003b2620003ac84620004c7565b6200049e565b905082815260208101848484011115620003d157620003d062000698565b5b620003de84828562000564565b509392505050565b600082601f830112620003fe57620003fd62000693565b5b8151620004108482602086016200039b565b91505092915050565b60008060408385031215620004335762000432620006a2565b5b600083015167ffffffffffffffff8111156200045457620004536200069d565b5b6200046285828601620003e6565b925050602083015167ffffffffffffffff8111156200048657620004856200069d565b5b6200049485828601620003e6565b9150509250929050565b6000620004aa620004bd565b9050620004b88282620005d0565b919050565b6000604051905090565b600067ffffffffffffffff821115620004e557620004e462000664565b5b620004f082620006a7565b9050602081019050919050565b60006200050a826200055a565b915062000517836200055a565b9250827fffffffffffffffffffffffffffffffffffffffffffffffffffffffffffffffff038211156200054f576200054e62000606565b5b828201905092915050565b6000819050919050565b60005b838110156200058457808201518184015260208101905062000567565b8381111562000594576000848401525b50505050565b60006002820490506001821680620005b357607f821691505b60208210811415620005ca57620005c962000635565b5b50919050565b620005db82620006a7565b810181811067ffffffffffffffff82111715620005fd57620005fc62000664565b5b80604052505050565b7f4e487b7100000000000000000000000000000000000000000000000000000000600052601160045260246000fd5b7f4e487b7100000000000000000000000000000000000000000000000000000000600052602260045260246000fd5b7f4e487b7100000000000000000000000000000000000000000000000000000000600052604160045260246000fd5b600080fd5b600080fd5b600080fd5b600080fd5b6000601f19601f8301169050919050565b61552280620006c86000396000f3fe6080604052600436106102ae5760003560e01c80638a48a98b11610175578063ba7d2c76116100dc578063e28b7ae911610095578063f2423ff91161006f578063f2423ff914610a96578063f2c4ce1e14610ac1578063f2fde38b14610aea578063fe575a8714610b13576102ae565b8063e28b7ae9146109f3578063e42c08f214610a1c578063e985e9c514610a59576102ae565b8063ba7d2c76146108e1578063c0d430e31461090c578063c87b56dd14610937578063c9f699a614610974578063d0eb26b01461099f578063d9a4df38146109c8576102ae565b80639ae16dbc1161012e5780639ae16dbc146107f6578063a01b60141461081f578063a0712d681461085c578063a22cb46514610878578063a475b5dd146108a1578063b88d4fde146108b8576102ae565b80638a48a98b146106f65780638a4d61dd146107215780638a67456a1461074a5780638da5cb5b146107755780639405f09e146107a057806395d89b41146107cb576102ae565b806342842e0e116102195780636ecd89b4116101d25780636ecd89b4146105fa57806370a0823114610625578063715018a6146106625780637225038014610679578063882796f1146106a4578063886e9994146106cd576102ae565b806342842e0e146104c4578063438b6300146104ed5780634f6ccce71461052a57806351830227146105675780636352211e146105925780636cfceded146105cf576102ae565b80631a0c34f51161026b5780631a0c34f5146103d55780631fd4d70b1461040057806323b872dd1461042b5780632f745c5914610454578063319948ba146104915780633ccfd60b146104ba576102ae565b806301ffc9a7146102b357806306fdde03146102f0578063081812fc1461031b578063095ea7b3146103585780630f8343e51461038157806318160ddd146103aa575b600080fd5b3480156102bf57600080fd5b506102da60048036038101906102d59190613df4565b610b50565b6040516102e7919061458e565b60405180910390f35b3480156102fc57600080fd5b50610305610bca565b60405161031291906145a9565b60405180910390f35b34801561032757600080fd5b50610342600480360381019061033d9190613e97565b610c5c565b60405161034f9190614505565b60405180910390f35b34801561036457600080fd5b5061037f600480360381019061037a9190613d3a565b610ce1565b005b34801561038d57600080fd5b506103a860048036038101906103a39190613ec4565b610df9565b005b3480156103b657600080fd5b506103bf610ee8565b6040516103cc919061492b565b60405180910390f35b3480156103e157600080fd5b506103ea610ef5565b6040516103f7919061492b565b60405180910390f35b34801561040c57600080fd5b50610415610efb565b604051610422919061492b565b60405180910390f35b34801561043757600080fd5b50610452600480360381019061044d9190613c24565b610f01565b005b34801561046057600080fd5b5061047b60048036038101906104769190613d3a565b610f61565b604051610488919061492b565b60405180910390f35b34801561049d57600080fd5b506104b860048036038101906104b39190613ec4565b611006565b005b6104c261109c565b005b3480156104d057600080fd5b506104eb60048036038101906104e69190613c24565b611198565b005b3480156104f957600080fd5b50610514600480360381019061050f9190613bb7565b6111b8565b604051610521919061456c565b60405180910390f35b34801561053657600080fd5b50610551600480360381019061054c9190613e97565b611266565b60405161055e919061492b565b60405180910390f35b34801561057357600080fd5b5061057c6112d7565b604051610589919061458e565b60405180910390f35b34801561059e57600080fd5b506105b960048036038101906105b49190613e97565b6112ea565b6040516105c69190614505565b60405180910390f35b3480156105db57600080fd5b506105e461139c565b6040516105f1919061456c565b60405180910390f35b34801561060657600080fd5b5061060f611480565b60405161061c919061492b565b60405180910390f35b34801561063157600080fd5b5061064c60048036038101906106479190613bb7565b611486565b604051610659919061492b565b60405180910390f35b34801561066e57600080fd5b5061067761153e565b005b34801561068557600080fd5b5061068e6115c6565b60405161069b91906145a9565b60405180910390f35b3480156106b057600080fd5b506106cb60048036038101906106c69190613dc7565b611654565b005b3480156106d957600080fd5b506106f460048036038101906106ef9190613d7a565b6116ed565b005b34801561070257600080fd5b5061070b61178d565b604051610718919061492b565b60405180910390f35b34801561072d57600080fd5b5061074860048036038101906107439190613e4e565b611793565b005b34801561075657600080fd5b5061075f611829565b60405161076c919061458e565b60405180910390f35b34801561078157600080fd5b5061078a61183c565b6040516107979190614505565b60405180910390f35b3480156107ac57600080fd5b506107b5611866565b6040516107c2919061492b565b60405180910390f35b3480156107d757600080fd5b506107e061186c565b6040516107ed91906145a9565b60405180910390f35b34801561080257600080fd5b5061081d60048036038101906108189190613e4e565b6118fe565b005b34801561082b57600080fd5b5061084660048036038101906108419190613e97565b611994565b6040516108539190614505565b60405180910390f35b61087660048036038101906108719190613e97565b6119d3565b005b34801561088457600080fd5b5061089f600480360381019061089a9190613cfa565b611ea5565b005b3480156108ad57600080fd5b506108b6611ebb565b005b3480156108c457600080fd5b506108df60048036038101906108da9190613c77565b611f54565b005b3480156108ed57600080fd5b506108f6611fb6565b604051610903919061492b565b60405180910390f35b34801561091857600080fd5b50610921611fbc565b60405161092e919061458e565b60405180910390f35b34801561094357600080fd5b5061095e60048036038101906109599190613e97565b611fcf565b60405161096b91906145a9565b60405180910390f35b34801561098057600080fd5b506109896121ab565b60405161099691906145a9565b60405180910390f35b3480156109ab57600080fd5b506109c660048036038101906109c19190613e97565b612239565b005b3480156109d457600080fd5b506109dd6122bf565b6040516109ea919061492b565b60405180910390f35b3480156109ff57600080fd5b50610a1a6004803603810190610a159190613dc7565b6122c5565b005b348015610a2857600080fd5b50610a436004803603810190610a3e9190613bb7565b61235e565b604051610a50919061492b565b60405180910390f35b348015610a6557600080fd5b50610a806004803603810190610a7b9190613be4565b612376565b604051610a8d919061458e565b60405180910390f35b348015610aa257600080fd5b50610aab61240a565b604051610ab891906145a9565b60405180910390f35b348015610acd57600080fd5b50610ae86004803603810190610ae39190613e4e565b612498565b005b348015610af657600080fd5b50610b116004803603810190610b0c9190613bb7565b61252e565b005b348015610b1f57600080fd5b50610b3a6004803603810190610b359190613bb7565b612626565b604051610b47919061458e565b60405180910390f35b60007f780e9d63000000000000000000000000000000000000000000000000000000007bffffffffffffffffffffffffffffffffffffffffffffffffffffffff1916827bffffffffffffffffffffffffffffffffffffffffffffffffffffffff19161480610bc35750610bc2826126d5565b5b9050919050565b606060008054610bd990614bda565b80601f0160208091040260200160405190810160405280929190818152602001828054610c0590614bda565b8015610c525780601f10610c2757610100808354040283529160200191610c52565b820191906000526020600020905b815481529060010190602001808311610c3557829003601f168201915b5050505050905090565b6000610c67826127b7565b610ca6576040517f08c379a0000000000000000000000000000000000000000000000000000000008152600401610c9d906147eb565b60405180910390fd5b6004600083815260200190815260200160002060009054906101000a900473ffffffffffffffffffffffffffffffffffffffff169050919050565b6000610cec826112ea565b90508073ffffffffffffffffffffffffffffffffffffffff168373ffffffffffffffffffffffffffffffffffffffff161415610d5d576040517f08c379a0000000000000000000000000000000000000000000000000000000008152600401610d549061486b565b60405180910390fd5b8073ffffffffffffffffffffffffffffffffffffffff16610d7c612823565b73ffffffffffffffffffffffffffffffffffffffff161480610dab5750610daa81610da5612823565b612376565b5b610dea576040517f08c379a0000000000000000000000000000000000000000000000000000000008152600401610de19061474b565b60405180910390fd5b610df4838361282b565b505050565b610e01612823565b73ffffffffffffffffffffffffffffffffffffffff16610e1f61183c565b73ffffffffffffffffffffffffffffffffffffffff1614610e75576040517f08c379a0000000000000000000000000000000000000000000000000000000008152600401610e6c9061480b565b60405180910390fd5b826000108015610e8457508183105b8015610e8f57508082105b610ece576040517f08c379a0000000000000000000000000000000000000000000000000000000008152600401610ec5906146eb565b60405180910390fd5b82600d8190555081600e8190555080600f81905550505050565b6000600880549050905090565b60115481565b600d5481565b610f12610f0c612823565b826128e4565b610f51576040517f08c379a0000000000000000000000000000000000000000000000000000000008152600401610f48906148ab565b60405180910390fd5b610f5c8383836129c2565b505050565b6000610f6c83611486565b8210610fad576040517f08c379a0000000000000000000000000000000000000000000000000000000008152600401610fa4906145cb565b60405180910390fd5b600660008473ffffffffffffffffffffffffffffffffffffffff1673ffffffffffffffffffffffffffffffffffffffff168152602001908152602001600020600083815260200190815260200160002054905092915050565b61100e612823565b73ffffffffffffffffffffffffffffffffffffffff1661102c61183c565b73ffffffffffffffffffffffffffffffffffffffff1614611082576040517f08c379a00000000000000000000000000000000000000000000000000000000081526004016110799061480b565b60405180910390fd5b826010819055508160118190555080601281905550505050565b6110a4612823565b73ffffffffffffffffffffffffffffffffffffffff166110c261183c565b73ffffffffffffffffffffffffffffffffffffffff1614611118576040517f08c379a000000000000000000000000000000000000000000000000000000000815260040161110f9061480b565b60405180910390fd5b600061112261183c565b73ffffffffffffffffffffffffffffffffffffffff1647604051611145906144f0565b60006040518083038185875af1925050503d8060008114611182576040519150601f19603f3d011682016040523d82523d6000602084013e611187565b606091505b505090508061119557600080fd5b50565b6111b383838360405180602001604052806000815250611f54565b505050565b606060006111c583611486565b905060008167ffffffffffffffff8111156111e3576111e2614da2565b5b6040519080825280602002602001820160405280156112115781602001602082028036833780820191505090505b50905060005b8281101561125b576112298582610f61565b82828151811061123c5761123b614d73565b5b602002602001018181525050808061125390614c3d565b915050611217565b508092505050919050565b6000611270610ee8565b82106112b1576040517f08c379a00000000000000000000000000000000000000000000000000000000081526004016112a8906148cb565b60405180910390fd5b600882815481106112c5576112c4614d73565b5b90600052602060002001549050919050565b601360019054906101000a900460ff1681565b6000806002600084815260200190815260200160002060009054906101000a900473ffffffffffffffffffffffffffffffffffffffff169050600073ffffffffffffffffffffffffffffffffffffffff168173ffffffffffffffffffffffffffffffffffffffff161415611393576040517f08c379a000000000000000000000000000000000000000000000000000000000815260040161138a9061478b565b60405180910390fd5b80915050919050565b60606000600367ffffffffffffffff8111156113bb576113ba614da2565b5b6040519080825280602002602001820160405280156113e95781602001602082028036833780820191505090505b50905060016019546113fb9190614af0565b8160008151811061140f5761140e614d73565b5b6020026020010181815250506001601a5461142a9190614af0565b8160018151811061143e5761143d614d73565b5b6020026020010181815250506001601b546114599190614af0565b8160028151811061146d5761146c614d73565b5b6020026020010181815250508091505090565b600e5481565b60008073ffffffffffffffffffffffffffffffffffffffff168273ffffffffffffffffffffffffffffffffffffffff1614156114f7576040517f08c379a00000000000000000000000000000000000000000000000000000000081526004016114ee9061476b565b60405180910390fd5b600360008373ffffffffffffffffffffffffffffffffffffffff1673ffffffffffffffffffffffffffffffffffffffff168152602001908152602001600020549050919050565b611546612823565b73ffffffffffffffffffffffffffffffffffffffff1661156461183c565b73ffffffffffffffffffffffffffffffffffffffff16146115ba576040517f08c379a00000000000000000000000000000000000000000000000000000000081526004016115b19061480b565b60405180910390fd5b6115c46000612c29565b565b601480546115d390614bda565b80601f01602080910402602001604051908101604052809291908181526020018280546115ff90614bda565b801561164c5780601f106116215761010080835404028352916020019161164c565b820191906000526020600020905b81548152906001019060200180831161162f57829003601f168201915b505050505081565b61165c612823565b73ffffffffffffffffffffffffffffffffffffffff1661167a61183c565b73ffffffffffffffffffffffffffffffffffffffff16146116d0576040517f08c379a00000000000000000000000000000000000000000000000000000000081526004016116c79061480b565b60405180910390fd5b80601360006101000a81548160ff02191690831515021790555050565b6116f5612823565b73ffffffffffffffffffffffffffffffffffffffff1661171361183c565b73ffffffffffffffffffffffffffffffffffffffff1614611769576040517f08c379a00000000000000000000000000000000000000000000000000000000081526004016117609061480b565b60405180910390fd5b6018600061177791906138b4565b8181601891906117889291906138d5565b505050565b60105481565b61179b612823565b73ffffffffffffffffffffffffffffffffffffffff166117b961183c565b73ffffffffffffffffffffffffffffffffffffffff161461180f576040517f08c379a00000000000000000000000000000000000000000000000000000000081526004016118069061480b565b60405180910390fd5b80600c9080519060200190611825929190613975565b5050565b601360009054906101000a900460ff1681565b6000600a60009054906101000a900473ffffffffffffffffffffffffffffffffffffffff16905090565b600f5481565b60606001805461187b90614bda565b80601f01602080910402602001604051908101604052809291908181526020018280546118a790614bda565b80156118f45780601f106118c9576101008083540402835291602001916118f4565b820191906000526020600020905b8154815290600101906020018083116118d757829003601f168201915b5050505050905090565b611906612823565b73ffffffffffffffffffffffffffffffffffffffff1661192461183c565b73ffffffffffffffffffffffffffffffffffffffff161461197a576040517f08c379a00000000000000000000000000000000000000000000000000000000081526004016119719061480b565b60405180910390fd5b80600b9080519060200190611990929190613975565b5050565b601881815481106119a457600080fd5b906000526020600020016000915054906101000a900473ffffffffffffffffffffffffffffffffffffffff1681565b601360009054906101000a900460ff1615611a23576040517f08c379a0000000000000000000000000000000000000000000000000000000008152600401611a1a9061490b565b60405180910390fd5b6001811480611a325750600281145b80611a3d5750600381145b611a7c576040517f08c379a0000000000000000000000000000000000000000000000000000000008152600401611a73906148eb565b60405180910390fd5b6001811415611ad157600d546019541115611acc576040517f08c379a0000000000000000000000000000000000000000000000000000000008152600401611ac39061468b565b60405180910390fd5b611b79565b6002811415611b2657600e54601a541115611b21576040517f08c379a0000000000000000000000000000000000000000000000000000000008152600401611b18906147ab565b60405180910390fd5b611b78565b6003811415611b7757600f54601b541115611b76576040517f08c379a0000000000000000000000000000000000000000000000000000000008152600401611b6d9061472b565b60405180910390fd5b5b5b5b611b8161183c565b73ffffffffffffffffffffffffffffffffffffffff163373ffffffffffffffffffffffffffffffffffffffff1614611da75760011515601760009054906101000a900460ff1615151415611caf57611bd833612626565b15611c18576040517f08c379a0000000000000000000000000000000000000000000000000000000008152600401611c0f9061488b565b60405180910390fd5b6000601660003373ffffffffffffffffffffffffffffffffffffffff1673ffffffffffffffffffffffffffffffffffffffff168152602001908152602001600020549050601554600182611c6c9190614a69565b1115611cad576040517f08c379a0000000000000000000000000000000000000000000000000000000008152600401611ca49061484b565b60405180910390fd5b505b6001811415611d0257601054341015611cfd576040517f08c379a0000000000000000000000000000000000000000000000000000000008152600401611cf49061466b565b60405180910390fd5b611da6565b6002811415611d5557601154341015611d50576040517f08c379a0000000000000000000000000000000000000000000000000000000008152600401611d479061466b565b60405180910390fd5b611da5565b6003811415611da457601254341015611da3576040517f08c379a0000000000000000000000000000000000000000000000000000000008152600401611d9a9061466b565b60405180910390fd5b5b5b5b5b6001811415611ddf576000601954905060196000815480929190611dca90614c3d565b9190505550611dd93382612cef565b50611e4d565b6002811415611e17576000601a549050601a6000815480929190611e0290614c3d565b9190505550611e113382612cef565b50611e4c565b6003811415611e4b576000601b549050601b6000815480929190611e3a90614c3d565b9190505550611e493382612cef565b505b5b5b601660003373ffffffffffffffffffffffffffffffffffffffff1673ffffffffffffffffffffffffffffffffffffffff1681526020019081526020016000206000815480929190611e9d90614c3d565b919050555050565b611eb7611eb0612823565b8383612d0d565b5050565b611ec3612823565b73ffffffffffffffffffffffffffffffffffffffff16611ee161183c565b73ffffffffffffffffffffffffffffffffffffffff1614611f37576040517f08c379a0000000000000000000000000000000000000000000000000000000008152600401611f2e9061480b565b60405180910390fd5b6001601360016101000a81548160ff021916908315150217905550565b611f65611f5f612823565b836128e4565b611fa4576040517f08c379a0000000000000000000000000000000000000000000000000000000008152600401611f9b906148ab565b60405180910390fd5b611fb084848484612e7a565b50505050565b60155481565b601760009054906101000a900460ff1681565b6060611fda826127b7565b612019576040517f08c379a00000000000000000000000000000000000000000000000000000000081526004016120109061482b565b60405180910390fd5b60001515601360019054906101000a900460ff16151514156120c7576014805461204290614bda565b80601f016020809104026020016040519081016040528092919081815260200182805461206e90614bda565b80156120bb5780601f10612090576101008083540402835291602001916120bb565b820191906000526020600020905b81548152906001019060200180831161209e57829003601f168201915b505050505090506121a6565b6000600b80546120d690614bda565b80601f016020809104026020016040519081016040528092919081815260200182805461210290614bda565b801561214f5780601f106121245761010080835404028352916020019161214f565b820191906000526020600020905b81548152906001019060200180831161213257829003601f168201915b50505050509050600081511161217457604051806020016040528060008152506121a2565b8061217e84612ed6565b600c604051602001612192939291906144bf565b6040516020818303038152906040525b9150505b919050565b600c80546121b890614bda565b80601f01602080910402602001604051908101604052809291908181526020018280546121e490614bda565b80156122315780601f1061220657610100808354040283529160200191612231565b820191906000526020600020905b81548152906001019060200180831161221457829003601f168201915b505050505081565b612241612823565b73ffffffffffffffffffffffffffffffffffffffff1661225f61183c565b73ffffffffffffffffffffffffffffffffffffffff16146122b5576040517f08c379a00000000000000000000000000000000000000000000000000000000081526004016122ac9061480b565b60405180910390fd5b8060158190555050565b60125481565b6122cd612823565b73ffffffffffffffffffffffffffffffffffffffff166122eb61183c565b73ffffffffffffffffffffffffffffffffffffffff1614612341576040517f08c379a00000000000000000000000000000000000000000000000000000000081526004016123389061480b565b60405180910390fd5b80601760006101000a81548160ff02191690831515021790555050565b60166020528060005260406000206000915090505481565b6000600560008473ffffffffffffffffffffffffffffffffffffffff1673ffffffffffffffffffffffffffffffffffffffff16815260200190815260200160002060008373ffffffffffffffffffffffffffffffffffffffff1673ffffffffffffffffffffffffffffffffffffffff16815260200190815260200160002060009054906101000a900460ff16905092915050565b600b805461241790614bda565b80601f016020809104026020016040519081016040528092919081815260200182805461244390614bda565b80156124905780601f1061246557610100808354040283529160200191612490565b820191906000526020600020905b81548152906001019060200180831161247357829003601f168201915b505050505081565b6124a0612823565b73ffffffffffffffffffffffffffffffffffffffff166124be61183c565b73ffffffffffffffffffffffffffffffffffffffff1614612514576040517f08c379a000000000000000000000000000000000000000000000000000000000815260040161250b9061480b565b60405180910390fd5b806014908051906020019061252a929190613975565b5050565b612536612823565b73ffffffffffffffffffffffffffffffffffffffff1661255461183c565b73ffffffffffffffffffffffffffffffffffffffff16146125aa576040517f08c379a00000000000000000000000000000000000000000000000000000000081526004016125a19061480b565b60405180910390fd5b600073ffffffffffffffffffffffffffffffffffffffff168173ffffffffffffffffffffffffffffffffffffffff16141561261a576040517f08c379a00000000000000000000000000000000000000000000000000000000081526004016126119061460b565b60405180910390fd5b61262381612c29565b50565b600080600090505b6018805490508110156126ca578273ffffffffffffffffffffffffffffffffffffffff166018828154811061266657612665614d73565b5b9060005260206000200160009054906101000a900473ffffffffffffffffffffffffffffffffffffffff1673ffffffffffffffffffffffffffffffffffffffff1614156126b75760019150506126d0565b80806126c290614c3d565b91505061262e565b50600090505b919050565b60007f80ac58cd000000000000000000000000000000000000000000000000000000007bffffffffffffffffffffffffffffffffffffffffffffffffffffffff1916827bffffffffffffffffffffffffffffffffffffffffffffffffffffffff191614806127a057507f5b5e139f000000000000000000000000000000000000000000000000000000007bffffffffffffffffffffffffffffffffffffffffffffffffffffffff1916827bffffffffffffffffffffffffffffffffffffffffffffffffffffffff1916145b806127b057506127af82613037565b5b9050919050565b60008073ffffffffffffffffffffffffffffffffffffffff166002600084815260200190815260200160002060009054906101000a900473ffffffffffffffffffffffffffffffffffffffff1673ffffffffffffffffffffffffffffffffffffffff1614159050919050565b600033905090565b816004600083815260200190815260200160002060006101000a81548173ffffffffffffffffffffffffffffffffffffffff021916908373ffffffffffffffffffffffffffffffffffffffff160217905550808273ffffffffffffffffffffffffffffffffffffffff1661289e836112ea565b73ffffffffffffffffffffffffffffffffffffffff167f8c5be1e5ebec7d5bd14f71427d1e84f3dd0314c0f7b2291e5b200ac8c7c3b92560405160405180910390a45050565b60006128ef826127b7565b61292e576040517f08c379a00000000000000000000000000000000000000000000000000000000081526004016129259061470b565b60405180910390fd5b6000612939836112ea565b90508073ffffffffffffffffffffffffffffffffffffffff168473ffffffffffffffffffffffffffffffffffffffff1614806129a857508373ffffffffffffffffffffffffffffffffffffffff1661299084610c5c565b73ffffffffffffffffffffffffffffffffffffffff16145b806129b957506129b88185612376565b5b91505092915050565b8273ffffffffffffffffffffffffffffffffffffffff166129e2826112ea565b73ffffffffffffffffffffffffffffffffffffffff1614612a38576040517f08c379a0000000000000000000000000000000000000000000000000000000008152600401612a2f9061462b565b60405180910390fd5b600073ffffffffffffffffffffffffffffffffffffffff168273ffffffffffffffffffffffffffffffffffffffff161415612aa8576040517f08c379a0000000000000000000000000000000000000000000000000000000008152600401612a9f906146ab565b60405180910390fd5b612ab38383836130a1565b612abe60008261282b565b6001600360008573ffffffffffffffffffffffffffffffffffffffff1673ffffffffffffffffffffffffffffffffffffffff1681526020019081526020016000206000828254612b0e9190614af0565b925050819055506001600360008473ffffffffffffffffffffffffffffffffffffffff1673ffffffffffffffffffffffffffffffffffffffff1681526020019081526020016000206000828254612b659190614a69565b92505081905550816002600083815260200190815260200160002060006101000a81548173ffffffffffffffffffffffffffffffffffffffff021916908373ffffffffffffffffffffffffffffffffffffffff160217905550808273ffffffffffffffffffffffffffffffffffffffff168473ffffffffffffffffffffffffffffffffffffffff167fddf252ad1be2c89b69c2b068fc378daa952ba7f163c4a11628f55a4df523b3ef60405160405180910390a4612c248383836131b5565b505050565b6000600a60009054906101000a900473ffffffffffffffffffffffffffffffffffffffff16905081600a60006101000a81548173ffffffffffffffffffffffffffffffffffffffff021916908373ffffffffffffffffffffffffffffffffffffffff1602179055508173ffffffffffffffffffffffffffffffffffffffff168173ffffffffffffffffffffffffffffffffffffffff167f8be0079c531659141344cd1fd0a4f28419497f9722a3daafe3b4186f6b6457e060405160405180910390a35050565b612d098282604051806020016040528060008152506131ba565b5050565b8173ffffffffffffffffffffffffffffffffffffffff168373ffffffffffffffffffffffffffffffffffffffff161415612d7c576040517f08c379a0000000000000000000000000000000000000000000000000000000008152600401612d73906146cb565b60405180910390fd5b80600560008573ffffffffffffffffffffffffffffffffffffffff1673ffffffffffffffffffffffffffffffffffffffff16815260200190815260200160002060008473ffffffffffffffffffffffffffffffffffffffff1673ffffffffffffffffffffffffffffffffffffffff16815260200190815260200160002060006101000a81548160ff0219169083151502179055508173ffffffffffffffffffffffffffffffffffffffff168373ffffffffffffffffffffffffffffffffffffffff167f17307eab39ab6107e8899845ad3d59bd9653f200f220920489ca2b5937696c3183604051612e6d919061458e565b60405180910390a3505050565b612e858484846129c2565b612e9184848484613215565b612ed0576040517f08c379a0000000000000000000000000000000000000000000000000000000008152600401612ec7906145eb565b60405180910390fd5b50505050565b60606000821415612f1e576040518060400160405280600181526020017f30000000000000000000000000000000000000000000000000000000000000008152509050613032565b600082905060005b60008214612f50578080612f3990614c3d565b915050600a82612f499190614abf565b9150612f26565b60008167ffffffffffffffff811115612f6c57612f6b614da2565b5b6040519080825280601f01601f191660200182016040528015612f9e5781602001600182028036833780820191505090505b5090505b6000851461302b57600182612fb79190614af0565b9150600a85612fc69190614c86565b6030612fd29190614a69565b60f81b818381518110612fe857612fe7614d73565b5b60200101907effffffffffffffffffffffffffffffffffffffffffffffffffffffffffffff1916908160001a905350600a856130249190614abf565b9450612fa2565b8093505050505b919050565b60007f01ffc9a7000000000000000000000000000000000000000000000000000000007bffffffffffffffffffffffffffffffffffffffffffffffffffffffff1916827bffffffffffffffffffffffffffffffffffffffffffffffffffffffff1916149050919050565b6130ac8383836133ac565b600073ffffffffffffffffffffffffffffffffffffffff168373ffffffffffffffffffffffffffffffffffffffff1614156130ef576130ea816133b1565b61312e565b8173ffffffffffffffffffffffffffffffffffffffff168373ffffffffffffffffffffffffffffffffffffffff161461312d5761312c83826133fa565b5b5b600073ffffffffffffffffffffffffffffffffffffffff168273ffffffffffffffffffffffffffffffffffffffff1614156131715761316c81613567565b6131b0565b8273ffffffffffffffffffffffffffffffffffffffff168273ffffffffffffffffffffffffffffffffffffffff16146131af576131ae8282613638565b5b5b505050565b505050565b6131c483836136b7565b6131d16000848484613215565b613210576040517f08c379a0000000000000000000000000000000000000000000000000000000008152600401613207906145eb565b60405180910390fd5b505050565b60006132368473ffffffffffffffffffffffffffffffffffffffff16613891565b1561339f578373ffffffffffffffffffffffffffffffffffffffff1663150b7a0261325f612823565b8786866040518563ffffffff1660e01b81526004016132819493929190614520565b602060405180830381600087803b15801561329b57600080fd5b505af19250505080156132cc57506040513d601f19601f820116820180604052508101906132c99190613e21565b60015b61334f573d80600081146132fc576040519150601f19603f3d011682016040523d82523d6000602084013e613301565b606091505b50600081511415613347576040517f08c379a000000000000000000000000000000000000000000000000000000000815260040161333e906145eb565b60405180910390fd5b805181602001fd5b63150b7a0260e01b7bffffffffffffffffffffffffffffffffffffffffffffffffffffffff1916817bffffffffffffffffffffffffffffffffffffffffffffffffffffffff1916149150506133a4565b600190505b949350505050565b505050565b6008805490506009600083815260200190815260200160002081905550600881908060018154018082558091505060019003906000526020600020016000909190919091505550565b6000600161340784611486565b6134119190614af0565b90506000600760008481526020019081526020016000205490508181146134f6576000600660008673ffffffffffffffffffffffffffffffffffffffff1673ffffffffffffffffffffffffffffffffffffffff168152602001908152602001600020600084815260200190815260200160002054905080600660008773ffffffffffffffffffffffffffffffffffffffff1673ffffffffffffffffffffffffffffffffffffffff168152602001908152602001600020600084815260200190815260200160002081905550816007600083815260200190815260200160002081905550505b6007600084815260200190815260200160002060009055600660008573ffffffffffffffffffffffffffffffffffffffff1673ffffffffffffffffffffffffffffffffffffffff16815260200190815260200160002060008381526020019081526020016000206000905550505050565b6000600160088054905061357b9190614af0565b90506000600960008481526020019081526020016000205490506000600883815481106135ab576135aa614d73565b5b9060005260206000200154905080600883815481106135cd576135cc614d73565b5b90600052602060002001819055508160096000838152602001908152602001600020819055506009600085815260200190815260200160002060009055600880548061361c5761361b614d44565b5b6001900381819060005260206000200160009055905550505050565b600061364383611486565b905081600660008573ffffffffffffffffffffffffffffffffffffffff1673ffffffffffffffffffffffffffffffffffffffff168152602001908152602001600020600083815260200190815260200160002081905550806007600084815260200190815260200160002081905550505050565b600073ffffffffffffffffffffffffffffffffffffffff168273ffffffffffffffffffffffffffffffffffffffff161415613727576040517f08c379a000000000000000000000000000000000000000000000000000000000815260040161371e906147cb565b60405180910390fd5b613730816127b7565b15613770576040517f08c379a00000000000000000000000000000000000000000000000000000000081526004016137679061464b565b60405180910390fd5b61377c600083836130a1565b6001600360008473ffffffffffffffffffffffffffffffffffffffff1673ffffffffffffffffffffffffffffffffffffffff16815260200190815260200160002060008282546137cc9190614a69565b92505081905550816002600083815260200190815260200160002060006101000a81548173ffffffffffffffffffffffffffffffffffffffff021916908373ffffffffffffffffffffffffffffffffffffffff160217905550808273ffffffffffffffffffffffffffffffffffffffff16600073ffffffffffffffffffffffffffffffffffffffff167fddf252ad1be2c89b69c2b068fc378daa952ba7f163c4a11628f55a4df523b3ef60405160405180910390a461388d600083836131b5565b5050565b6000808273ffffffffffffffffffffffffffffffffffffffff163b119050919050565b50805460008255906000526020600020908101906138d291906139fb565b50565b828054828255906000526020600020908101928215613964579160200282015b8281111561396357823573ffffffffffffffffffffffffffffffffffffffff168260006101000a81548173ffffffffffffffffffffffffffffffffffffffff021916908373ffffffffffffffffffffffffffffffffffffffff160217905550916020019190600101906138f5565b5b50905061397191906139fb565b5090565b82805461398190614bda565b90600052602060002090601f0160209004810192826139a357600085556139ea565b82601f106139bc57805160ff19168380011785556139ea565b828001600101855582156139ea579182015b828111156139e95782518255916020019190600101906139ce565b5b5090506139f791906139fb565b5090565b5b80821115613a145760008160009055506001016139fc565b5090565b6000613a2b613a268461496b565b614946565b905082815260208101848484011115613a4757613a46614de0565b5b613a52848285614b98565b509392505050565b6000613a6d613a688461499c565b614946565b905082815260208101848484011115613a8957613a88614de0565b5b613a94848285614b98565b509392505050565b600081359050613aab81615490565b92915050565b60008083601f840112613ac757613ac6614dd6565b5b8235905067ffffffffffffffff811115613ae457613ae3614dd1565b5b602083019150836020820283011115613b0057613aff614ddb565b5b9250929050565b600081359050613b16816154a7565b92915050565b600081359050613b2b816154be565b92915050565b600081519050613b40816154be565b92915050565b600082601f830112613b5b57613b5a614dd6565b5b8135613b6b848260208601613a18565b91505092915050565b600082601f830112613b8957613b88614dd6565b5b8135613b99848260208601613a5a565b91505092915050565b600081359050613bb1816154d5565b92915050565b600060208284031215613bcd57613bcc614dea565b5b6000613bdb84828501613a9c565b91505092915050565b60008060408385031215613bfb57613bfa614dea565b5b6000613c0985828601613a9c565b9250506020613c1a85828601613a9c565b9150509250929050565b600080600060608486031215613c3d57613c3c614dea565b5b6000613c4b86828701613a9c565b9350506020613c5c86828701613a9c565b9250506040613c6d86828701613ba2565b9150509250925092565b60008060008060808587031215613c9157613c90614dea565b5b6000613c9f87828801613a9c565b9450506020613cb087828801613a9c565b9350506040613cc187828801613ba2565b925050606085013567ffffffffffffffff811115613ce257613ce1614de5565b5b613cee87828801613b46565b91505092959194509250565b60008060408385031215613d1157613d10614dea565b5b6000613d1f85828601613a9c565b9250506020613d3085828601613b07565b9150509250929050565b60008060408385031215613d5157613d50614dea565b5b6000613d5f85828601613a9c565b9250506020613d7085828601613ba2565b9150509250929050565b60008060208385031215613d9157613d90614dea565b5b600083013567ffffffffffffffff811115613daf57613dae614de5565b5b613dbb85828601613ab1565b92509250509250929050565b600060208284031215613ddd57613ddc614dea565b5b6000613deb84828501613b07565b91505092915050565b600060208284031215613e0a57613e09614dea565b5b6000613e1884828501613b1c565b91505092915050565b600060208284031215613e3757613e36614dea565b5b6000613e4584828501613b31565b91505092915050565b600060208284031215613e6457613e63614dea565b5b600082013567ffffffffffffffff811115613e8257613e81614de5565b5b613e8e84828501613b74565b91505092915050565b600060208284031215613ead57613eac614dea565b5b6000613ebb84828501613ba2565b91505092915050565b600080600060608486031215613edd57613edc614dea565b5b6000613eeb86828701613ba2565b9350506020613efc86828701613ba2565b9250506040613f0d86828701613ba2565b9150509250925092565b6000613f2383836144a1565b60208301905092915050565b613f3881614b24565b82525050565b6000613f49826149f2565b613f538185614a20565b9350613f5e836149cd565b8060005b83811015613f8f578151613f768882613f17565b9750613f8183614a13565b925050600181019050613f62565b5085935050505092915050565b613fa581614b36565b82525050565b6000613fb6826149fd565b613fc08185614a31565b9350613fd0818560208601614ba7565b613fd981614def565b840191505092915050565b6000613fef82614a08565b613ff98185614a4d565b9350614009818560208601614ba7565b61401281614def565b840191505092915050565b600061402882614a08565b6140328185614a5e565b9350614042818560208601614ba7565b80840191505092915050565b6000815461405b81614bda565b6140658186614a5e565b945060018216600081146140805760018114614091576140c4565b60ff198316865281860193506140c4565b61409a856149dd565b60005b838110156140bc5781548189015260018201915060208101905061409d565b838801955050505b50505092915050565b60006140da602b83614a4d565b91506140e582614e00565b604082019050919050565b60006140fd603283614a4d565b915061410882614e4f565b604082019050919050565b6000614120602683614a4d565b915061412b82614e9e565b604082019050919050565b6000614143602583614a4d565b915061414e82614eed565b604082019050919050565b6000614166601c83614a4d565b915061417182614f3c565b602082019050919050565b6000614189601283614a4d565b915061419482614f65565b602082019050919050565b60006141ac601e83614a4d565b91506141b782614f8e565b602082019050919050565b60006141cf602483614a4d565b91506141da82614fb7565b604082019050919050565b60006141f2601983614a4d565b91506141fd82615006565b602082019050919050565b6000614215601683614a4d565b91506142208261502f565b602082019050919050565b6000614238602c83614a4d565b915061424382615058565b604082019050919050565b600061425b601b83614a4d565b9150614266826150a7565b602082019050919050565b600061427e603883614a4d565b9150614289826150d0565b604082019050919050565b60006142a1602a83614a4d565b91506142ac8261511f565b604082019050919050565b60006142c4602983614a4d565b91506142cf8261516e565b604082019050919050565b60006142e7601f83614a4d565b91506142f2826151bd565b602082019050919050565b600061430a602083614a4d565b9150614315826151e6565b602082019050919050565b600061432d602c83614a4d565b91506143388261520f565b604082019050919050565b6000614350602083614a4d565b915061435b8261525e565b602082019050919050565b6000614373602f83614a4d565b915061437e82615287565b604082019050919050565b6000614396601c83614a4d565b91506143a1826152d6565b602082019050919050565b60006143b9602183614a4d565b91506143c4826152ff565b604082019050919050565b60006143dc602283614a4d565b91506143e78261534e565b604082019050919050565b60006143ff600083614a42565b915061440a8261539d565b600082019050919050565b6000614422603183614a4d565b915061442d826153a0565b604082019050919050565b6000614445602c83614a4d565b9150614450826153ef565b604082019050919050565b6000614468600f83614a4d565b91506144738261543e565b602082019050919050565b600061448b601783614a4d565b915061449682615467565b602082019050919050565b6144aa81614b8e565b82525050565b6144b981614b8e565b82525050565b60006144cb828661401d565b91506144d7828561401d565b91506144e3828461404e565b9150819050949350505050565b60006144fb826143f2565b9150819050919050565b600060208201905061451a6000830184613f2f565b92915050565b60006080820190506145356000830187613f2f565b6145426020830186613f2f565b61454f60408301856144b0565b81810360608301526145618184613fab565b905095945050505050565b600060208201905081810360008301526145868184613f3e565b905092915050565b60006020820190506145a36000830184613f9c565b92915050565b600060208201905081810360008301526145c38184613fe4565b905092915050565b600060208201905081810360008301526145e4816140cd565b9050919050565b60006020820190508181036000830152614604816140f0565b9050919050565b6000602082019050818103600083015261462481614113565b9050919050565b6000602082019050818103600083015261464481614136565b9050919050565b6000602082019050818103600083015261466481614159565b9050919050565b600060208201905081810360008301526146848161417c565b9050919050565b600060208201905081810360008301526146a48161419f565b9050919050565b600060208201905081810360008301526146c4816141c2565b9050919050565b600060208201905081810360008301526146e4816141e5565b9050919050565b6000602082019050818103600083015261470481614208565b9050919050565b600060208201905081810360008301526147248161422b565b9050919050565b600060208201905081810360008301526147448161424e565b9050919050565b6000602082019050818103600083015261476481614271565b9050919050565b6000602082019050818103600083015261478481614294565b9050919050565b600060208201905081810360008301526147a4816142b7565b9050919050565b600060208201905081810360008301526147c4816142da565b9050919050565b600060208201905081810360008301526147e4816142fd565b9050919050565b6000602082019050818103600083015261480481614320565b9050919050565b6000602082019050818103600083015261482481614343565b9050919050565b6000602082019050818103600083015261484481614366565b9050919050565b6000602082019050818103600083015261486481614389565b9050919050565b60006020820190508181036000830152614884816143ac565b9050919050565b600060208201905081810360008301526148a4816143cf565b9050919050565b600060208201905081810360008301526148c481614415565b9050919050565b600060208201905081810360008301526148e481614438565b9050919050565b600060208201905081810360008301526149048161445b565b9050919050565b600060208201905081810360008301526149248161447e565b9050919050565b600060208201905061494060008301846144b0565b92915050565b6000614950614961565b905061495c8282614c0c565b919050565b6000604051905090565b600067ffffffffffffffff82111561498657614985614da2565b5b61498f82614def565b9050602081019050919050565b600067ffffffffffffffff8211156149b7576149b6614da2565b5b6149c082614def565b9050602081019050919050565b6000819050602082019050919050565b60008190508160005260206000209050919050565b600081519050919050565b600081519050919050565b600081519050919050565b6000602082019050919050565b600082825260208201905092915050565b600082825260208201905092915050565b600081905092915050565b600082825260208201905092915050565b600081905092915050565b6000614a7482614b8e565b9150614a7f83614b8e565b9250827fffffffffffffffffffffffffffffffffffffffffffffffffffffffffffffffff03821115614ab457614ab3614cb7565b5b828201905092915050565b6000614aca82614b8e565b9150614ad583614b8e565b925082614ae557614ae4614ce6565b5b828204905092915050565b6000614afb82614b8e565b9150614b0683614b8e565b925082821015614b1957614b18614cb7565b5b828203905092915050565b6000614b2f82614b6e565b9050919050565b60008115159050919050565b60007fffffffff0000000000000000000000000000000000000000000000000000000082169050919050565b600073ffffffffffffffffffffffffffffffffffffffff82169050919050565b6000819050919050565b82818337600083830152505050565b60005b83811015614bc5578082015181840152602081019050614baa565b83811115614bd4576000848401525b50505050565b60006002820490506001821680614bf257607f821691505b60208210811415614c0657614c05614d15565b5b50919050565b614c1582614def565b810181811067ffffffffffffffff82111715614c3457614c33614da2565b5b80604052505050565b6000614c4882614b8e565b91507fffffffffffffffffffffffffffffffffffffffffffffffffffffffffffffffff821415614c7b57614c7a614cb7565b5b600182019050919050565b6000614c9182614b8e565b9150614c9c83614b8e565b925082614cac57614cab614ce6565b5b828206905092915050565b7f4e487b7100000000000000000000000000000000000000000000000000000000600052601160045260246000fd5b7f4e487b7100000000000000000000000000000000000000000000000000000000600052601260045260246000fd5b7f4e487b7100000000000000000000000000000000000000000000000000000000600052602260045260246000fd5b7f4e487b7100000000000000000000000000000000000000000000000000000000600052603160045260246000fd5b7f4e487b7100000000000000000000000000000000000000000000000000000000600052603260045260246000fd5b7f4e487b7100000000000000000000000000000000000000000000000000000000600052604160045260246000fd5b600080fd5b600080fd5b600080fd5b600080fd5b600080fd5b600080fd5b6000601f19601f8301169050919050565b7f455243373231456e756d657261626c653a206f776e657220696e646578206f7560008201527f74206f6620626f756e6473000000000000000000000000000000000000000000602082015250565b7f4552433732313a207472616e7366657220746f206e6f6e20455243373231526560008201527f63656976657220696d706c656d656e7465720000000000000000000000000000602082015250565b7f4f776e61626c653a206e6577206f776e657220697320746865207a65726f206160008201527f6464726573730000000000000000000000000000000000000000000000000000602082015250565b7f4552433732313a207472616e736665722066726f6d20696e636f72726563742060008201527f6f776e6572000000000000000000000000000000000000000000000000000000602082015250565b7f4552433732313a20746f6b656e20616c7265616479206d696e74656400000000600082015250565b7f496e73756666696369656e742046756e64730000000000000000000000000000600082015250565b7f416c6c204e6174696f6e616c20456d7065726f72206973206d696e7465640000600082015250565b7f4552433732313a207472616e7366657220746f20746865207a65726f2061646460008201527f7265737300000000000000000000000000000000000000000000000000000000602082015250565b7f4552433732313a20617070726f766520746f2063616c6c657200000000000000600082015250565b7f556e65787065637465642074696572206e756d62657200000000000000000000600082015250565b7f4552433732313a206f70657261746f7220717565727920666f72206e6f6e657860008201527f697374656e7420746f6b656e0000000000000000000000000000000000000000602082015250565b7f416c6c20576f726c6420456d7065726f72206973206d696e7465640000000000600082015250565b7f4552433732313a20617070726f76652063616c6c6572206973206e6f74206f7760008201527f6e6572206e6f7220617070726f76656420666f7220616c6c0000000000000000602082015250565b7f4552433732313a2062616c616e636520717565727920666f7220746865207a6560008201527f726f206164647265737300000000000000000000000000000000000000000000602082015250565b7f4552433732313a206f776e657220717565727920666f72206e6f6e657869737460008201527f656e7420746f6b656e0000000000000000000000000000000000000000000000602082015250565b7f416c6c20436f6e74696e656e7420456d7065726f72206973206d696e74656400600082015250565b7f4552433732313a206d696e7420746f20746865207a65726f2061646472657373600082015250565b7f4552433732313a20617070726f76656420717565727920666f72206e6f6e657860008201527f697374656e7420746f6b656e0000000000000000000000000000000000000000602082015250565b7f4f776e61626c653a2063616c6c6572206973206e6f7420746865206f776e6572600082015250565b7f4552433732314d657461646174613a2055524920717565727920666f72206e6f60008201527f6e6578697374656e7420746f6b656e0000000000000000000000000000000000602082015250565b7f4d6178204e465420706572206164647265737320657863656564656400000000600082015250565b7f4552433732313a20617070726f76616c20746f2063757272656e74206f776e6560008201527f7200000000000000000000000000000000000000000000000000000000000000602082015250565b7f796f75722077616c6c6574206164647265737320697320626c61636b6c69737460008201527f6564000000000000000000000000000000000000000000000000000000000000602082015250565b50565b7f4552433732313a207472616e736665722063616c6c6572206973206e6f74206f60008201527f776e6572206e6f7220617070726f766564000000000000000000000000000000602082015250565b7f455243373231456e756d657261626c653a20676c6f62616c20696e646578206f60008201527f7574206f6620626f756e64730000000000000000000000000000000000000000602082015250565b7f556e657870656374656420746965720000000000000000000000000000000000600082015250565b7f5468697320636f6e747261637420697320706175736564000000000000000000600082015250565b61549981614b24565b81146154a457600080fd5b50565b6154b081614b36565b81146154bb57600080fd5b50565b6154c781614b42565b81146154d257600080fd5b50565b6154de81614b8e565b81146154e957600080fd5b5056fea26469706673582212206373fe3149e693151453cb56f031a003ca8258deee6e2d70acf1211900c745ed64736f6c6343000807003368747470733a2f2f697066732e696f2f697066732f6261667962656961716d677764326970336c35617a75366c6d6b70687036616e346774346f70616770726a353634683271796764746b6d336972612f6d657461646174612f",
			"opcodes": "PUSH1 0x80 PUSH1 0x40 MSTORE PUSH1 0x40 MLOAD DUP1 PUSH1 0x80 ADD PUSH1 0x40 MSTORE DUP1 PUSH1 0x5A DUP2 MSTORE PUSH1 0x20 ADD PUSH3 0x5BEA PUSH1 0x5A SWAP2 CODECOPY PUSH1 0xB SWAP1 DUP1 MLOAD SWAP1 PUSH1 0x20 ADD SWAP1 PUSH3 0x35 SWAP3 SWAP2 SWAP1 PUSH3 0x2EB JUMP JUMPDEST POP PUSH1 0x40 MLOAD DUP1 PUSH1 0x40 ADD PUSH1 0x40 MSTORE DUP1 PUSH1 0x5 DUP2 MSTORE PUSH1 0x20 ADD PUSH32 0x2E6A736F6E000000000000000000000000000000000000000000000000000000 DUP2 MSTORE POP PUSH1 0xC SWAP1 DUP1 MLOAD SWAP1 PUSH1 0x20 ADD SWAP1 PUSH3 0x83 SWAP3 SWAP2 SWAP1 PUSH3 0x2EB JUMP JUMPDEST POP PUSH2 0x1B58 PUSH1 0xD SSTORE PUSH2 0x2328 PUSH1 0xE SSTORE PUSH2 0x2710 PUSH1 0xF SSTORE PUSH5 0x174876E800 PUSH1 0x10 SSTORE PUSH5 0xE8D4A51000 PUSH1 0x11 SSTORE PUSH6 0x9184E72A000 PUSH1 0x12 SSTORE PUSH1 0x0 PUSH1 0x13 PUSH1 0x0 PUSH2 0x100 EXP DUP2 SLOAD DUP2 PUSH1 0xFF MUL NOT AND SWAP1 DUP4 ISZERO ISZERO MUL OR SWAP1 SSTORE POP PUSH1 0x0 PUSH1 0x13 PUSH1 0x1 PUSH2 0x100 EXP DUP2 SLOAD DUP2 PUSH1 0xFF MUL NOT AND SWAP1 DUP4 ISZERO ISZERO MUL OR SWAP1 SSTORE POP PUSH1 0x40 MLOAD DUP1 PUSH1 0x40 ADD PUSH1 0x40 MSTORE DUP1 PUSH1 0x1D DUP2 MSTORE PUSH1 0x20 ADD PUSH32 0x68747470733A2F2F6E6674706C616E65742E6F6E2E666C65656B2E636F000000 DUP2 MSTORE POP PUSH1 0x14 SWAP1 DUP1 MLOAD SWAP1 PUSH1 0x20 ADD SWAP1 PUSH3 0x135 SWAP3 SWAP2 SWAP1 PUSH3 0x2EB JUMP JUMPDEST POP PUSH1 0x64 PUSH1 0x15 SSTORE PUSH1 0x1 PUSH1 0x17 PUSH1 0x0 PUSH2 0x100 EXP DUP2 SLOAD DUP2 PUSH1 0xFF MUL NOT AND SWAP1 DUP4 ISZERO ISZERO MUL OR SWAP1 SSTORE POP CALLVALUE DUP1 ISZERO PUSH3 0x163 JUMPI PUSH1 0x0 DUP1 REVERT JUMPDEST POP PUSH1 0x40 MLOAD PUSH3 0x5C44 CODESIZE SUB DUP1 PUSH3 0x5C44 DUP4 CODECOPY DUP2 DUP2 ADD PUSH1 0x40 MSTORE DUP2 ADD SWAP1 PUSH3 0x189 SWAP2 SWAP1 PUSH3 0x419 JUMP JUMPDEST DUP2 DUP2 DUP2 PUSH1 0x0 SWAP1 DUP1 MLOAD SWAP1 PUSH1 0x20 ADD SWAP1 PUSH3 0x1A3 SWAP3 SWAP2 SWAP1 PUSH3 0x2EB JUMP JUMPDEST POP DUP1 PUSH1 0x1 SWAP1 DUP1 MLOAD SWAP1 PUSH1 0x20 ADD SWAP1 PUSH3 0x1BC SWAP3 SWAP2 SWAP1 PUSH3 0x2EB JUMP JUMPDEST POP POP POP PUSH3 0x1DF PUSH3 0x1D3 PUSH3 0x21D PUSH1 0x20 SHL PUSH1 0x20 SHR JUMP JUMPDEST PUSH3 0x225 PUSH1 0x20 SHL PUSH1 0x20 SHR JUMP JUMPDEST PUSH1 0x1 PUSH1 0x19 DUP2 SWAP1 SSTORE POP PUSH1 0x1 PUSH1 0xD SLOAD PUSH3 0x1F8 SWAP2 SWAP1 PUSH3 0x4FD JUMP JUMPDEST PUSH1 0x1A DUP2 SWAP1 SSTORE POP PUSH1 0x1 PUSH1 0xE SLOAD PUSH3 0x20F SWAP2 SWAP1 PUSH3 0x4FD JUMP JUMPDEST PUSH1 0x1B DUP2 SWAP1 SSTORE POP POP POP PUSH3 0x6B8 JUMP JUMPDEST PUSH1 0x0 CALLER SWAP1 POP SWAP1 JUMP JUMPDEST PUSH1 0x0 PUSH1 0xA PUSH1 0x0 SWAP1 SLOAD SWAP1 PUSH2 0x100 EXP SWAP1 DIV PUSH20 0xFFFFFFFFFFFFFFFFFFFFFFFFFFFFFFFFFFFFFFFF AND SWAP1 POP DUP2 PUSH1 0xA PUSH1 0x0 PUSH2 0x100 EXP DUP2 SLOAD DUP2 PUSH20 0xFFFFFFFFFFFFFFFFFFFFFFFFFFFFFFFFFFFFFFFF MUL NOT AND SWAP1 DUP4 PUSH20 0xFFFFFFFFFFFFFFFFFFFFFFFFFFFFFFFFFFFFFFFF AND MUL OR SWAP1 SSTORE POP DUP2 PUSH20 0xFFFFFFFFFFFFFFFFFFFFFFFFFFFFFFFFFFFFFFFF AND DUP2 PUSH20 0xFFFFFFFFFFFFFFFFFFFFFFFFFFFFFFFFFFFFFFFF AND PUSH32 0x8BE0079C531659141344CD1FD0A4F28419497F9722A3DAAFE3B4186F6B6457E0 PUSH1 0x40 MLOAD PUSH1 0x40 MLOAD DUP1 SWAP2 SUB SWAP1 LOG3 POP POP JUMP JUMPDEST DUP3 DUP1 SLOAD PUSH3 0x2F9 SWAP1 PUSH3 0x59A JUMP JUMPDEST SWAP1 PUSH1 0x0 MSTORE PUSH1 0x20 PUSH1 0x0 KECCAK256 SWAP1 PUSH1 0x1F ADD PUSH1 0x20 SWAP1 DIV DUP2 ADD SWAP3 DUP3 PUSH3 0x31D JUMPI PUSH1 0x0 DUP6 SSTORE PUSH3 0x369 JUMP JUMPDEST DUP3 PUSH1 0x1F LT PUSH3 0x338 JUMPI DUP1 MLOAD PUSH1 0xFF NOT AND DUP4 DUP1 ADD OR DUP6 SSTORE PUSH3 0x369 JUMP JUMPDEST DUP3 DUP1 ADD PUSH1 0x1 ADD DUP6 SSTORE DUP3 ISZERO PUSH3 0x369 JUMPI SWAP2 DUP3 ADD JUMPDEST DUP3 DUP2 GT ISZERO PUSH3 0x368 JUMPI DUP3 MLOAD DUP3 SSTORE SWAP2 PUSH1 0x20 ADD SWAP2 SWAP1 PUSH1 0x1 ADD SWAP1 PUSH3 0x34B JUMP JUMPDEST JUMPDEST POP SWAP1 POP PUSH3 0x378 SWAP2 SWAP1 PUSH3 0x37C JUMP JUMPDEST POP SWAP1 JUMP JUMPDEST JUMPDEST DUP1 DUP3 GT ISZERO PUSH3 0x397 JUMPI PUSH1 0x0 DUP2 PUSH1 0x0 SWAP1 SSTORE POP PUSH1 0x1 ADD PUSH3 0x37D JUMP JUMPDEST POP SWAP1 JUMP JUMPDEST PUSH1 0x0 PUSH3 0x3B2 PUSH3 0x3AC DUP5 PUSH3 0x4C7 JUMP JUMPDEST PUSH3 0x49E JUMP JUMPDEST SWAP1 POP DUP3 DUP2 MSTORE PUSH1 0x20 DUP2 ADD DUP5 DUP5 DUP5 ADD GT ISZERO PUSH3 0x3D1 JUMPI PUSH3 0x3D0 PUSH3 0x698 JUMP JUMPDEST JUMPDEST PUSH3 0x3DE DUP5 DUP3 DUP6 PUSH3 0x564 JUMP JUMPDEST POP SWAP4 SWAP3 POP POP POP JUMP JUMPDEST PUSH1 0x0 DUP3 PUSH1 0x1F DUP4 ADD SLT PUSH3 0x3FE JUMPI PUSH3 0x3FD PUSH3 0x693 JUMP JUMPDEST JUMPDEST DUP2 MLOAD PUSH3 0x410 DUP5 DUP3 PUSH1 0x20 DUP7 ADD PUSH3 0x39B JUMP JUMPDEST SWAP2 POP POP SWAP3 SWAP2 POP POP JUMP JUMPDEST PUSH1 0x0 DUP1 PUSH1 0x40 DUP4 DUP6 SUB SLT ISZERO PUSH3 0x433 JUMPI PUSH3 0x432 PUSH3 0x6A2 JUMP JUMPDEST JUMPDEST PUSH1 0x0 DUP4 ADD MLOAD PUSH8 0xFFFFFFFFFFFFFFFF DUP2 GT ISZERO PUSH3 0x454 JUMPI PUSH3 0x453 PUSH3 0x69D JUMP JUMPDEST JUMPDEST PUSH3 0x462 DUP6 DUP3 DUP7 ADD PUSH3 0x3E6 JUMP JUMPDEST SWAP3 POP POP PUSH1 0x20 DUP4 ADD MLOAD PUSH8 0xFFFFFFFFFFFFFFFF DUP2 GT ISZERO PUSH3 0x486 JUMPI PUSH3 0x485 PUSH3 0x69D JUMP JUMPDEST JUMPDEST PUSH3 0x494 DUP6 DUP3 DUP7 ADD PUSH3 0x3E6 JUMP JUMPDEST SWAP2 POP POP SWAP3 POP SWAP3 SWAP1 POP JUMP JUMPDEST PUSH1 0x0 PUSH3 0x4AA PUSH3 0x4BD JUMP JUMPDEST SWAP1 POP PUSH3 0x4B8 DUP3 DUP3 PUSH3 0x5D0 JUMP JUMPDEST SWAP2 SWAP1 POP JUMP JUMPDEST PUSH1 0x0 PUSH1 0x40 MLOAD SWAP1 POP SWAP1 JUMP JUMPDEST PUSH1 0x0 PUSH8 0xFFFFFFFFFFFFFFFF DUP3 GT ISZERO PUSH3 0x4E5 JUMPI PUSH3 0x4E4 PUSH3 0x664 JUMP JUMPDEST JUMPDEST PUSH3 0x4F0 DUP3 PUSH3 0x6A7 JUMP JUMPDEST SWAP1 POP PUSH1 0x20 DUP2 ADD SWAP1 POP SWAP2 SWAP1 POP JUMP JUMPDEST PUSH1 0x0 PUSH3 0x50A DUP3 PUSH3 0x55A JUMP JUMPDEST SWAP2 POP PUSH3 0x517 DUP4 PUSH3 0x55A JUMP JUMPDEST SWAP3 POP DUP3 PUSH32 0xFFFFFFFFFFFFFFFFFFFFFFFFFFFFFFFFFFFFFFFFFFFFFFFFFFFFFFFFFFFFFFFF SUB DUP3 GT ISZERO PUSH3 0x54F JUMPI PUSH3 0x54E PUSH3 0x606 JUMP JUMPDEST JUMPDEST DUP3 DUP3 ADD SWAP1 POP SWAP3 SWAP2 POP POP JUMP JUMPDEST PUSH1 0x0 DUP2 SWAP1 POP SWAP2 SWAP1 POP JUMP JUMPDEST PUSH1 0x0 JUMPDEST DUP4 DUP2 LT ISZERO PUSH3 0x584 JUMPI DUP1 DUP3 ADD MLOAD DUP2 DUP5 ADD MSTORE PUSH1 0x20 DUP2 ADD SWAP1 POP PUSH3 0x567 JUMP JUMPDEST DUP4 DUP2 GT ISZERO PUSH3 0x594 JUMPI PUSH1 0x0 DUP5 DUP5 ADD MSTORE JUMPDEST POP POP POP POP JUMP JUMPDEST PUSH1 0x0 PUSH1 0x2 DUP3 DIV SWAP1 POP PUSH1 0x1 DUP3 AND DUP1 PUSH3 0x5B3 JUMPI PUSH1 0x7F DUP3 AND SWAP2 POP JUMPDEST PUSH1 0x20 DUP3 LT DUP2 EQ ISZERO PUSH3 0x5CA JUMPI PUSH3 0x5C9 PUSH3 0x635 JUMP JUMPDEST JUMPDEST POP SWAP2 SWAP1 POP JUMP JUMPDEST PUSH3 0x5DB DUP3 PUSH3 0x6A7 JUMP JUMPDEST DUP2 ADD DUP2 DUP2 LT PUSH8 0xFFFFFFFFFFFFFFFF DUP3 GT OR ISZERO PUSH3 0x5FD JUMPI PUSH3 0x5FC PUSH3 0x664 JUMP JUMPDEST JUMPDEST DUP1 PUSH1 0x40 MSTORE POP POP POP JUMP JUMPDEST PUSH32 0x4E487B7100000000000000000000000000000000000000000000000000000000 PUSH1 0x0 MSTORE PUSH1 0x11 PUSH1 0x4 MSTORE PUSH1 0x24 PUSH1 0x0 REVERT JUMPDEST PUSH32 0x4E487B7100000000000000000000000000000000000000000000000000000000 PUSH1 0x0 MSTORE PUSH1 0x22 PUSH1 0x4 MSTORE PUSH1 0x24 PUSH1 0x0 REVERT JUMPDEST PUSH32 0x4E487B7100000000000000000000000000000000000000000000000000000000 PUSH1 0x0 MSTORE PUSH1 0x41 PUSH1 0x4 MSTORE PUSH1 0x24 PUSH1 0x0 REVERT JUMPDEST PUSH1 0x0 DUP1 REVERT JUMPDEST PUSH1 0x0 DUP1 REVERT JUMPDEST PUSH1 0x0 DUP1 REVERT JUMPDEST PUSH1 0x0 DUP1 REVERT JUMPDEST PUSH1 0x0 PUSH1 0x1F NOT PUSH1 0x1F DUP4 ADD AND SWAP1 POP SWAP2 SWAP1 POP JUMP JUMPDEST PUSH2 0x5522 DUP1 PUSH3 0x6C8 PUSH1 0x0 CODECOPY PUSH1 0x0 RETURN INVALID PUSH1 0x80 PUSH1 0x40 MSTORE PUSH1 0x4 CALLDATASIZE LT PUSH2 0x2AE JUMPI PUSH1 0x0 CALLDATALOAD PUSH1 0xE0 SHR DUP1 PUSH4 0x8A48A98B GT PUSH2 0x175 JUMPI DUP1 PUSH4 0xBA7D2C76 GT PUSH2 0xDC JUMPI DUP1 PUSH4 0xE28B7AE9 GT PUSH2 0x95 JUMPI DUP1 PUSH4 0xF2423FF9 GT PUSH2 0x6F JUMPI DUP1 PUSH4 0xF2423FF9 EQ PUSH2 0xA96 JUMPI DUP1 PUSH4 0xF2C4CE1E EQ PUSH2 0xAC1 JUMPI DUP1 PUSH4 0xF2FDE38B EQ PUSH2 0xAEA JUMPI DUP1 PUSH4 0xFE575A87 EQ PUSH2 0xB13 JUMPI PUSH2 0x2AE JUMP JUMPDEST DUP1 PUSH4 0xE28B7AE9 EQ PUSH2 0x9F3 JUMPI DUP1 PUSH4 0xE42C08F2 EQ PUSH2 0xA1C JUMPI DUP1 PUSH4 0xE985E9C5 EQ PUSH2 0xA59 JUMPI PUSH2 0x2AE JUMP JUMPDEST DUP1 PUSH4 0xBA7D2C76 EQ PUSH2 0x8E1 JUMPI DUP1 PUSH4 0xC0D430E3 EQ PUSH2 0x90C JUMPI DUP1 PUSH4 0xC87B56DD EQ PUSH2 0x937 JUMPI DUP1 PUSH4 0xC9F699A6 EQ PUSH2 0x974 JUMPI DUP1 PUSH4 0xD0EB26B0 EQ PUSH2 0x99F JUMPI DUP1 PUSH4 0xD9A4DF38 EQ PUSH2 0x9C8 JUMPI PUSH2 0x2AE JUMP JUMPDEST DUP1 PUSH4 0x9AE16DBC GT PUSH2 0x12E JUMPI DUP1 PUSH4 0x9AE16DBC EQ PUSH2 0x7F6 JUMPI DUP1 PUSH4 0xA01B6014 EQ PUSH2 0x81F JUMPI DUP1 PUSH4 0xA0712D68 EQ PUSH2 0x85C JUMPI DUP1 PUSH4 0xA22CB465 EQ PUSH2 0x878 JUMPI DUP1 PUSH4 0xA475B5DD EQ PUSH2 0x8A1 JUMPI DUP1 PUSH4 0xB88D4FDE EQ PUSH2 0x8B8 JUMPI PUSH2 0x2AE JUMP JUMPDEST DUP1 PUSH4 0x8A48A98B EQ PUSH2 0x6F6 JUMPI DUP1 PUSH4 0x8A4D61DD EQ PUSH2 0x721 JUMPI DUP1 PUSH4 0x8A67456A EQ PUSH2 0x74A JUMPI DUP1 PUSH4 0x8DA5CB5B EQ PUSH2 0x775 JUMPI DUP1 PUSH4 0x9405F09E EQ PUSH2 0x7A0 JUMPI DUP1 PUSH4 0x95D89B41 EQ PUSH2 0x7CB JUMPI PUSH2 0x2AE JUMP JUMPDEST DUP1 PUSH4 0x42842E0E GT PUSH2 0x219 JUMPI DUP1 PUSH4 0x6ECD89B4 GT PUSH2 0x1D2 JUMPI DUP1 PUSH4 0x6ECD89B4 EQ PUSH2 0x5FA JUMPI DUP1 PUSH4 0x70A08231 EQ PUSH2 0x625 JUMPI DUP1 PUSH4 0x715018A6 EQ PUSH2 0x662 JUMPI DUP1 PUSH4 0x72250380 EQ PUSH2 0x679 JUMPI DUP1 PUSH4 0x882796F1 EQ PUSH2 0x6A4 JUMPI DUP1 PUSH4 0x886E9994 EQ PUSH2 0x6CD JUMPI PUSH2 0x2AE JUMP JUMPDEST DUP1 PUSH4 0x42842E0E EQ PUSH2 0x4C4 JUMPI DUP1 PUSH4 0x438B6300 EQ PUSH2 0x4ED JUMPI DUP1 PUSH4 0x4F6CCCE7 EQ PUSH2 0x52A JUMPI DUP1 PUSH4 0x51830227 EQ PUSH2 0x567 JUMPI DUP1 PUSH4 0x6352211E EQ PUSH2 0x592 JUMPI DUP1 PUSH4 0x6CFCEDED EQ PUSH2 0x5CF JUMPI PUSH2 0x2AE JUMP JUMPDEST DUP1 PUSH4 0x1A0C34F5 GT PUSH2 0x26B JUMPI DUP1 PUSH4 0x1A0C34F5 EQ PUSH2 0x3D5 JUMPI DUP1 PUSH4 0x1FD4D70B EQ PUSH2 0x400 JUMPI DUP1 PUSH4 0x23B872DD EQ PUSH2 0x42B JUMPI DUP1 PUSH4 0x2F745C59 EQ PUSH2 0x454 JUMPI DUP1 PUSH4 0x319948BA EQ PUSH2 0x491 JUMPI DUP1 PUSH4 0x3CCFD60B EQ PUSH2 0x4BA JUMPI PUSH2 0x2AE JUMP JUMPDEST DUP1 PUSH4 0x1FFC9A7 EQ PUSH2 0x2B3 JUMPI DUP1 PUSH4 0x6FDDE03 EQ PUSH2 0x2F0 JUMPI DUP1 PUSH4 0x81812FC EQ PUSH2 0x31B JUMPI DUP1 PUSH4 0x95EA7B3 EQ PUSH2 0x358 JUMPI DUP1 PUSH4 0xF8343E5 EQ PUSH2 0x381 JUMPI DUP1 PUSH4 0x18160DDD EQ PUSH2 0x3AA JUMPI JUMPDEST PUSH1 0x0 DUP1 REVERT JUMPDEST CALLVALUE DUP1 ISZERO PUSH2 0x2BF JUMPI PUSH1 0x0 DUP1 REVERT JUMPDEST POP PUSH2 0x2DA PUSH1 0x4 DUP1 CALLDATASIZE SUB DUP2 ADD SWAP1 PUSH2 0x2D5 SWAP2 SWAP1 PUSH2 0x3DF4 JUMP JUMPDEST PUSH2 0xB50 JUMP JUMPDEST PUSH1 0x40 MLOAD PUSH2 0x2E7 SWAP2 SWAP1 PUSH2 0x458E JUMP JUMPDEST PUSH1 0x40 MLOAD DUP1 SWAP2 SUB SWAP1 RETURN JUMPDEST CALLVALUE DUP1 ISZERO PUSH2 0x2FC JUMPI PUSH1 0x0 DUP1 REVERT JUMPDEST POP PUSH2 0x305 PUSH2 0xBCA JUMP JUMPDEST PUSH1 0x40 MLOAD PUSH2 0x312 SWAP2 SWAP1 PUSH2 0x45A9 JUMP JUMPDEST PUSH1 0x40 MLOAD DUP1 SWAP2 SUB SWAP1 RETURN JUMPDEST CALLVALUE DUP1 ISZERO PUSH2 0x327 JUMPI PUSH1 0x0 DUP1 REVERT JUMPDEST POP PUSH2 0x342 PUSH1 0x4 DUP1 CALLDATASIZE SUB DUP2 ADD SWAP1 PUSH2 0x33D SWAP2 SWAP1 PUSH2 0x3E97 JUMP JUMPDEST PUSH2 0xC5C JUMP JUMPDEST PUSH1 0x40 MLOAD PUSH2 0x34F SWAP2 SWAP1 PUSH2 0x4505 JUMP JUMPDEST PUSH1 0x40 MLOAD DUP1 SWAP2 SUB SWAP1 RETURN JUMPDEST CALLVALUE DUP1 ISZERO PUSH2 0x364 JUMPI PUSH1 0x0 DUP1 REVERT JUMPDEST POP PUSH2 0x37F PUSH1 0x4 DUP1 CALLDATASIZE SUB DUP2 ADD SWAP1 PUSH2 0x37A SWAP2 SWAP1 PUSH2 0x3D3A JUMP JUMPDEST PUSH2 0xCE1 JUMP JUMPDEST STOP JUMPDEST CALLVALUE DUP1 ISZERO PUSH2 0x38D JUMPI PUSH1 0x0 DUP1 REVERT JUMPDEST POP PUSH2 0x3A8 PUSH1 0x4 DUP1 CALLDATASIZE SUB DUP2 ADD SWAP1 PUSH2 0x3A3 SWAP2 SWAP1 PUSH2 0x3EC4 JUMP JUMPDEST PUSH2 0xDF9 JUMP JUMPDEST STOP JUMPDEST CALLVALUE DUP1 ISZERO PUSH2 0x3B6 JUMPI PUSH1 0x0 DUP1 REVERT JUMPDEST POP PUSH2 0x3BF PUSH2 0xEE8 JUMP JUMPDEST PUSH1 0x40 MLOAD PUSH2 0x3CC SWAP2 SWAP1 PUSH2 0x492B JUMP JUMPDEST PUSH1 0x40 MLOAD DUP1 SWAP2 SUB SWAP1 RETURN JUMPDEST CALLVALUE DUP1 ISZERO PUSH2 0x3E1 JUMPI PUSH1 0x0 DUP1 REVERT JUMPDEST POP PUSH2 0x3EA PUSH2 0xEF5 JUMP JUMPDEST PUSH1 0x40 MLOAD PUSH2 0x3F7 SWAP2 SWAP1 PUSH2 0x492B JUMP JUMPDEST PUSH1 0x40 MLOAD DUP1 SWAP2 SUB SWAP1 RETURN JUMPDEST CALLVALUE DUP1 ISZERO PUSH2 0x40C JUMPI PUSH1 0x0 DUP1 REVERT JUMPDEST POP PUSH2 0x415 PUSH2 0xEFB JUMP JUMPDEST PUSH1 0x40 MLOAD PUSH2 0x422 SWAP2 SWAP1 PUSH2 0x492B JUMP JUMPDEST PUSH1 0x40 MLOAD DUP1 SWAP2 SUB SWAP1 RETURN JUMPDEST CALLVALUE DUP1 ISZERO PUSH2 0x437 JUMPI PUSH1 0x0 DUP1 REVERT JUMPDEST POP PUSH2 0x452 PUSH1 0x4 DUP1 CALLDATASIZE SUB DUP2 ADD SWAP1 PUSH2 0x44D SWAP2 SWAP1 PUSH2 0x3C24 JUMP JUMPDEST PUSH2 0xF01 JUMP JUMPDEST STOP JUMPDEST CALLVALUE DUP1 ISZERO PUSH2 0x460 JUMPI PUSH1 0x0 DUP1 REVERT JUMPDEST POP PUSH2 0x47B PUSH1 0x4 DUP1 CALLDATASIZE SUB DUP2 ADD SWAP1 PUSH2 0x476 SWAP2 SWAP1 PUSH2 0x3D3A JUMP JUMPDEST PUSH2 0xF61 JUMP JUMPDEST PUSH1 0x40 MLOAD PUSH2 0x488 SWAP2 SWAP1 PUSH2 0x492B JUMP JUMPDEST PUSH1 0x40 MLOAD DUP1 SWAP2 SUB SWAP1 RETURN JUMPDEST CALLVALUE DUP1 ISZERO PUSH2 0x49D JUMPI PUSH1 0x0 DUP1 REVERT JUMPDEST POP PUSH2 0x4B8 PUSH1 0x4 DUP1 CALLDATASIZE SUB DUP2 ADD SWAP1 PUSH2 0x4B3 SWAP2 SWAP1 PUSH2 0x3EC4 JUMP JUMPDEST PUSH2 0x1006 JUMP JUMPDEST STOP JUMPDEST PUSH2 0x4C2 PUSH2 0x109C JUMP JUMPDEST STOP JUMPDEST CALLVALUE DUP1 ISZERO PUSH2 0x4D0 JUMPI PUSH1 0x0 DUP1 REVERT JUMPDEST POP PUSH2 0x4EB PUSH1 0x4 DUP1 CALLDATASIZE SUB DUP2 ADD SWAP1 PUSH2 0x4E6 SWAP2 SWAP1 PUSH2 0x3C24 JUMP JUMPDEST PUSH2 0x1198 JUMP JUMPDEST STOP JUMPDEST CALLVALUE DUP1 ISZERO PUSH2 0x4F9 JUMPI PUSH1 0x0 DUP1 REVERT JUMPDEST POP PUSH2 0x514 PUSH1 0x4 DUP1 CALLDATASIZE SUB DUP2 ADD SWAP1 PUSH2 0x50F SWAP2 SWAP1 PUSH2 0x3BB7 JUMP JUMPDEST PUSH2 0x11B8 JUMP JUMPDEST PUSH1 0x40 MLOAD PUSH2 0x521 SWAP2 SWAP1 PUSH2 0x456C JUMP JUMPDEST PUSH1 0x40 MLOAD DUP1 SWAP2 SUB SWAP1 RETURN JUMPDEST CALLVALUE DUP1 ISZERO PUSH2 0x536 JUMPI PUSH1 0x0 DUP1 REVERT JUMPDEST POP PUSH2 0x551 PUSH1 0x4 DUP1 CALLDATASIZE SUB DUP2 ADD SWAP1 PUSH2 0x54C SWAP2 SWAP1 PUSH2 0x3E97 JUMP JUMPDEST PUSH2 0x1266 JUMP JUMPDEST PUSH1 0x40 MLOAD PUSH2 0x55E SWAP2 SWAP1 PUSH2 0x492B JUMP JUMPDEST PUSH1 0x40 MLOAD DUP1 SWAP2 SUB SWAP1 RETURN JUMPDEST CALLVALUE DUP1 ISZERO PUSH2 0x573 JUMPI PUSH1 0x0 DUP1 REVERT JUMPDEST POP PUSH2 0x57C PUSH2 0x12D7 JUMP JUMPDEST PUSH1 0x40 MLOAD PUSH2 0x589 SWAP2 SWAP1 PUSH2 0x458E JUMP JUMPDEST PUSH1 0x40 MLOAD DUP1 SWAP2 SUB SWAP1 RETURN JUMPDEST CALLVALUE DUP1 ISZERO PUSH2 0x59E JUMPI PUSH1 0x0 DUP1 REVERT JUMPDEST POP PUSH2 0x5B9 PUSH1 0x4 DUP1 CALLDATASIZE SUB DUP2 ADD SWAP1 PUSH2 0x5B4 SWAP2 SWAP1 PUSH2 0x3E97 JUMP JUMPDEST PUSH2 0x12EA JUMP JUMPDEST PUSH1 0x40 MLOAD PUSH2 0x5C6 SWAP2 SWAP1 PUSH2 0x4505 JUMP JUMPDEST PUSH1 0x40 MLOAD DUP1 SWAP2 SUB SWAP1 RETURN JUMPDEST CALLVALUE DUP1 ISZERO PUSH2 0x5DB JUMPI PUSH1 0x0 DUP1 REVERT JUMPDEST POP PUSH2 0x5E4 PUSH2 0x139C JUMP JUMPDEST PUSH1 0x40 MLOAD PUSH2 0x5F1 SWAP2 SWAP1 PUSH2 0x456C JUMP JUMPDEST PUSH1 0x40 MLOAD DUP1 SWAP2 SUB SWAP1 RETURN JUMPDEST CALLVALUE DUP1 ISZERO PUSH2 0x606 JUMPI PUSH1 0x0 DUP1 REVERT JUMPDEST POP PUSH2 0x60F PUSH2 0x1480 JUMP JUMPDEST PUSH1 0x40 MLOAD PUSH2 0x61C SWAP2 SWAP1 PUSH2 0x492B JUMP JUMPDEST PUSH1 0x40 MLOAD DUP1 SWAP2 SUB SWAP1 RETURN JUMPDEST CALLVALUE DUP1 ISZERO PUSH2 0x631 JUMPI PUSH1 0x0 DUP1 REVERT JUMPDEST POP PUSH2 0x64C PUSH1 0x4 DUP1 CALLDATASIZE SUB DUP2 ADD SWAP1 PUSH2 0x647 SWAP2 SWAP1 PUSH2 0x3BB7 JUMP JUMPDEST PUSH2 0x1486 JUMP JUMPDEST PUSH1 0x40 MLOAD PUSH2 0x659 SWAP2 SWAP1 PUSH2 0x492B JUMP JUMPDEST PUSH1 0x40 MLOAD DUP1 SWAP2 SUB SWAP1 RETURN JUMPDEST CALLVALUE DUP1 ISZERO PUSH2 0x66E JUMPI PUSH1 0x0 DUP1 REVERT JUMPDEST POP PUSH2 0x677 PUSH2 0x153E JUMP JUMPDEST STOP JUMPDEST CALLVALUE DUP1 ISZERO PUSH2 0x685 JUMPI PUSH1 0x0 DUP1 REVERT JUMPDEST POP PUSH2 0x68E PUSH2 0x15C6 JUMP JUMPDEST PUSH1 0x40 MLOAD PUSH2 0x69B SWAP2 SWAP1 PUSH2 0x45A9 JUMP JUMPDEST PUSH1 0x40 MLOAD DUP1 SWAP2 SUB SWAP1 RETURN JUMPDEST CALLVALUE DUP1 ISZERO PUSH2 0x6B0 JUMPI PUSH1 0x0 DUP1 REVERT JUMPDEST POP PUSH2 0x6CB PUSH1 0x4 DUP1 CALLDATASIZE SUB DUP2 ADD SWAP1 PUSH2 0x6C6 SWAP2 SWAP1 PUSH2 0x3DC7 JUMP JUMPDEST PUSH2 0x1654 JUMP JUMPDEST STOP JUMPDEST CALLVALUE DUP1 ISZERO PUSH2 0x6D9 JUMPI PUSH1 0x0 DUP1 REVERT JUMPDEST POP PUSH2 0x6F4 PUSH1 0x4 DUP1 CALLDATASIZE SUB DUP2 ADD SWAP1 PUSH2 0x6EF SWAP2 SWAP1 PUSH2 0x3D7A JUMP JUMPDEST PUSH2 0x16ED JUMP JUMPDEST STOP JUMPDEST CALLVALUE DUP1 ISZERO PUSH2 0x702 JUMPI PUSH1 0x0 DUP1 REVERT JUMPDEST POP PUSH2 0x70B PUSH2 0x178D JUMP JUMPDEST PUSH1 0x40 MLOAD PUSH2 0x718 SWAP2 SWAP1 PUSH2 0x492B JUMP JUMPDEST PUSH1 0x40 MLOAD DUP1 SWAP2 SUB SWAP1 RETURN JUMPDEST CALLVALUE DUP1 ISZERO PUSH2 0x72D JUMPI PUSH1 0x0 DUP1 REVERT JUMPDEST POP PUSH2 0x748 PUSH1 0x4 DUP1 CALLDATASIZE SUB DUP2 ADD SWAP1 PUSH2 0x743 SWAP2 SWAP1 PUSH2 0x3E4E JUMP JUMPDEST PUSH2 0x1793 JUMP JUMPDEST STOP JUMPDEST CALLVALUE DUP1 ISZERO PUSH2 0x756 JUMPI PUSH1 0x0 DUP1 REVERT JUMPDEST POP PUSH2 0x75F PUSH2 0x1829 JUMP JUMPDEST PUSH1 0x40 MLOAD PUSH2 0x76C SWAP2 SWAP1 PUSH2 0x458E JUMP JUMPDEST PUSH1 0x40 MLOAD DUP1 SWAP2 SUB SWAP1 RETURN JUMPDEST CALLVALUE DUP1 ISZERO PUSH2 0x781 JUMPI PUSH1 0x0 DUP1 REVERT JUMPDEST POP PUSH2 0x78A PUSH2 0x183C JUMP JUMPDEST PUSH1 0x40 MLOAD PUSH2 0x797 SWAP2 SWAP1 PUSH2 0x4505 JUMP JUMPDEST PUSH1 0x40 MLOAD DUP1 SWAP2 SUB SWAP1 RETURN JUMPDEST CALLVALUE DUP1 ISZERO PUSH2 0x7AC JUMPI PUSH1 0x0 DUP1 REVERT JUMPDEST POP PUSH2 0x7B5 PUSH2 0x1866 JUMP JUMPDEST PUSH1 0x40 MLOAD PUSH2 0x7C2 SWAP2 SWAP1 PUSH2 0x492B JUMP JUMPDEST PUSH1 0x40 MLOAD DUP1 SWAP2 SUB SWAP1 RETURN JUMPDEST CALLVALUE DUP1 ISZERO PUSH2 0x7D7 JUMPI PUSH1 0x0 DUP1 REVERT JUMPDEST POP PUSH2 0x7E0 PUSH2 0x186C JUMP JUMPDEST PUSH1 0x40 MLOAD PUSH2 0x7ED SWAP2 SWAP1 PUSH2 0x45A9 JUMP JUMPDEST PUSH1 0x40 MLOAD DUP1 SWAP2 SUB SWAP1 RETURN JUMPDEST CALLVALUE DUP1 ISZERO PUSH2 0x802 JUMPI PUSH1 0x0 DUP1 REVERT JUMPDEST POP PUSH2 0x81D PUSH1 0x4 DUP1 CALLDATASIZE SUB DUP2 ADD SWAP1 PUSH2 0x818 SWAP2 SWAP1 PUSH2 0x3E4E JUMP JUMPDEST PUSH2 0x18FE JUMP JUMPDEST STOP JUMPDEST CALLVALUE DUP1 ISZERO PUSH2 0x82B JUMPI PUSH1 0x0 DUP1 REVERT JUMPDEST POP PUSH2 0x846 PUSH1 0x4 DUP1 CALLDATASIZE SUB DUP2 ADD SWAP1 PUSH2 0x841 SWAP2 SWAP1 PUSH2 0x3E97 JUMP JUMPDEST PUSH2 0x1994 JUMP JUMPDEST PUSH1 0x40 MLOAD PUSH2 0x853 SWAP2 SWAP1 PUSH2 0x4505 JUMP JUMPDEST PUSH1 0x40 MLOAD DUP1 SWAP2 SUB SWAP1 RETURN JUMPDEST PUSH2 0x876 PUSH1 0x4 DUP1 CALLDATASIZE SUB DUP2 ADD SWAP1 PUSH2 0x871 SWAP2 SWAP1 PUSH2 0x3E97 JUMP JUMPDEST PUSH2 0x19D3 JUMP JUMPDEST STOP JUMPDEST CALLVALUE DUP1 ISZERO PUSH2 0x884 JUMPI PUSH1 0x0 DUP1 REVERT JUMPDEST POP PUSH2 0x89F PUSH1 0x4 DUP1 CALLDATASIZE SUB DUP2 ADD SWAP1 PUSH2 0x89A SWAP2 SWAP1 PUSH2 0x3CFA JUMP JUMPDEST PUSH2 0x1EA5 JUMP JUMPDEST STOP JUMPDEST CALLVALUE DUP1 ISZERO PUSH2 0x8AD JUMPI PUSH1 0x0 DUP1 REVERT JUMPDEST POP PUSH2 0x8B6 PUSH2 0x1EBB JUMP JUMPDEST STOP JUMPDEST CALLVALUE DUP1 ISZERO PUSH2 0x8C4 JUMPI PUSH1 0x0 DUP1 REVERT JUMPDEST POP PUSH2 0x8DF PUSH1 0x4 DUP1 CALLDATASIZE SUB DUP2 ADD SWAP1 PUSH2 0x8DA SWAP2 SWAP1 PUSH2 0x3C77 JUMP JUMPDEST PUSH2 0x1F54 JUMP JUMPDEST STOP JUMPDEST CALLVALUE DUP1 ISZERO PUSH2 0x8ED JUMPI PUSH1 0x0 DUP1 REVERT JUMPDEST POP PUSH2 0x8F6 PUSH2 0x1FB6 JUMP JUMPDEST PUSH1 0x40 MLOAD PUSH2 0x903 SWAP2 SWAP1 PUSH2 0x492B JUMP JUMPDEST PUSH1 0x40 MLOAD DUP1 SWAP2 SUB SWAP1 RETURN JUMPDEST CALLVALUE DUP1 ISZERO PUSH2 0x918 JUMPI PUSH1 0x0 DUP1 REVERT JUMPDEST POP PUSH2 0x921 PUSH2 0x1FBC JUMP JUMPDEST PUSH1 0x40 MLOAD PUSH2 0x92E SWAP2 SWAP1 PUSH2 0x458E JUMP JUMPDEST PUSH1 0x40 MLOAD DUP1 SWAP2 SUB SWAP1 RETURN JUMPDEST CALLVALUE DUP1 ISZERO PUSH2 0x943 JUMPI PUSH1 0x0 DUP1 REVERT JUMPDEST POP PUSH2 0x95E PUSH1 0x4 DUP1 CALLDATASIZE SUB DUP2 ADD SWAP1 PUSH2 0x959 SWAP2 SWAP1 PUSH2 0x3E97 JUMP JUMPDEST PUSH2 0x1FCF JUMP JUMPDEST PUSH1 0x40 MLOAD PUSH2 0x96B SWAP2 SWAP1 PUSH2 0x45A9 JUMP JUMPDEST PUSH1 0x40 MLOAD DUP1 SWAP2 SUB SWAP1 RETURN JUMPDEST CALLVALUE DUP1 ISZERO PUSH2 0x980 JUMPI PUSH1 0x0 DUP1 REVERT JUMPDEST POP PUSH2 0x989 PUSH2 0x21AB JUMP JUMPDEST PUSH1 0x40 MLOAD PUSH2 0x996 SWAP2 SWAP1 PUSH2 0x45A9 JUMP JUMPDEST PUSH1 0x40 MLOAD DUP1 SWAP2 SUB SWAP1 RETURN JUMPDEST CALLVALUE DUP1 ISZERO PUSH2 0x9AB JUMPI PUSH1 0x0 DUP1 REVERT JUMPDEST POP PUSH2 0x9C6 PUSH1 0x4 DUP1 CALLDATASIZE SUB DUP2 ADD SWAP1 PUSH2 0x9C1 SWAP2 SWAP1 PUSH2 0x3E97 JUMP JUMPDEST PUSH2 0x2239 JUMP JUMPDEST STOP JUMPDEST CALLVALUE DUP1 ISZERO PUSH2 0x9D4 JUMPI PUSH1 0x0 DUP1 REVERT JUMPDEST POP PUSH2 0x9DD PUSH2 0x22BF JUMP JUMPDEST PUSH1 0x40 MLOAD PUSH2 0x9EA SWAP2 SWAP1 PUSH2 0x492B JUMP JUMPDEST PUSH1 0x40 MLOAD DUP1 SWAP2 SUB SWAP1 RETURN JUMPDEST CALLVALUE DUP1 ISZERO PUSH2 0x9FF JUMPI PUSH1 0x0 DUP1 REVERT JUMPDEST POP PUSH2 0xA1A PUSH1 0x4 DUP1 CALLDATASIZE SUB DUP2 ADD SWAP1 PUSH2 0xA15 SWAP2 SWAP1 PUSH2 0x3DC7 JUMP JUMPDEST PUSH2 0x22C5 JUMP JUMPDEST STOP JUMPDEST CALLVALUE DUP1 ISZERO PUSH2 0xA28 JUMPI PUSH1 0x0 DUP1 REVERT JUMPDEST POP PUSH2 0xA43 PUSH1 0x4 DUP1 CALLDATASIZE SUB DUP2 ADD SWAP1 PUSH2 0xA3E SWAP2 SWAP1 PUSH2 0x3BB7 JUMP JUMPDEST PUSH2 0x235E JUMP JUMPDEST PUSH1 0x40 MLOAD PUSH2 0xA50 SWAP2 SWAP1 PUSH2 0x492B JUMP JUMPDEST PUSH1 0x40 MLOAD DUP1 SWAP2 SUB SWAP1 RETURN JUMPDEST CALLVALUE DUP1 ISZERO PUSH2 0xA65 JUMPI PUSH1 0x0 DUP1 REVERT JUMPDEST POP PUSH2 0xA80 PUSH1 0x4 DUP1 CALLDATASIZE SUB DUP2 ADD SWAP1 PUSH2 0xA7B SWAP2 SWAP1 PUSH2 0x3BE4 JUMP JUMPDEST PUSH2 0x2376 JUMP JUMPDEST PUSH1 0x40 MLOAD PUSH2 0xA8D SWAP2 SWAP1 PUSH2 0x458E JUMP JUMPDEST PUSH1 0x40 MLOAD DUP1 SWAP2 SUB SWAP1 RETURN JUMPDEST CALLVALUE DUP1 ISZERO PUSH2 0xAA2 JUMPI PUSH1 0x0 DUP1 REVERT JUMPDEST POP PUSH2 0xAAB PUSH2 0x240A JUMP JUMPDEST PUSH1 0x40 MLOAD PUSH2 0xAB8 SWAP2 SWAP1 PUSH2 0x45A9 JUMP JUMPDEST PUSH1 0x40 MLOAD DUP1 SWAP2 SUB SWAP1 RETURN JUMPDEST CALLVALUE DUP1 ISZERO PUSH2 0xACD JUMPI PUSH1 0x0 DUP1 REVERT JUMPDEST POP PUSH2 0xAE8 PUSH1 0x4 DUP1 CALLDATASIZE SUB DUP2 ADD SWAP1 PUSH2 0xAE3 SWAP2 SWAP1 PUSH2 0x3E4E JUMP JUMPDEST PUSH2 0x2498 JUMP JUMPDEST STOP JUMPDEST CALLVALUE DUP1 ISZERO PUSH2 0xAF6 JUMPI PUSH1 0x0 DUP1 REVERT JUMPDEST POP PUSH2 0xB11 PUSH1 0x4 DUP1 CALLDATASIZE SUB DUP2 ADD SWAP1 PUSH2 0xB0C SWAP2 SWAP1 PUSH2 0x3BB7 JUMP JUMPDEST PUSH2 0x252E JUMP JUMPDEST STOP JUMPDEST CALLVALUE DUP1 ISZERO PUSH2 0xB1F JUMPI PUSH1 0x0 DUP1 REVERT JUMPDEST POP PUSH2 0xB3A PUSH1 0x4 DUP1 CALLDATASIZE SUB DUP2 ADD SWAP1 PUSH2 0xB35 SWAP2 SWAP1 PUSH2 0x3BB7 JUMP JUMPDEST PUSH2 0x2626 JUMP JUMPDEST PUSH1 0x40 MLOAD PUSH2 0xB47 SWAP2 SWAP1 PUSH2 0x458E JUMP JUMPDEST PUSH1 0x40 MLOAD DUP1 SWAP2 SUB SWAP1 RETURN JUMPDEST PUSH1 0x0 PUSH32 0x780E9D6300000000000000000000000000000000000000000000000000000000 PUSH28 0xFFFFFFFFFFFFFFFFFFFFFFFFFFFFFFFFFFFFFFFFFFFFFFFFFFFFFFFF NOT AND DUP3 PUSH28 0xFFFFFFFFFFFFFFFFFFFFFFFFFFFFFFFFFFFFFFFFFFFFFFFFFFFFFFFF NOT AND EQ DUP1 PUSH2 0xBC3 JUMPI POP PUSH2 0xBC2 DUP3 PUSH2 0x26D5 JUMP JUMPDEST JUMPDEST SWAP1 POP SWAP2 SWAP1 POP JUMP JUMPDEST PUSH1 0x60 PUSH1 0x0 DUP1 SLOAD PUSH2 0xBD9 SWAP1 PUSH2 0x4BDA JUMP JUMPDEST DUP1 PUSH1 0x1F ADD PUSH1 0x20 DUP1 SWAP2 DIV MUL PUSH1 0x20 ADD PUSH1 0x40 MLOAD SWAP1 DUP2 ADD PUSH1 0x40 MSTORE DUP1 SWAP3 SWAP2 SWAP1 DUP2 DUP2 MSTORE PUSH1 0x20 ADD DUP3 DUP1 SLOAD PUSH2 0xC05 SWAP1 PUSH2 0x4BDA JUMP JUMPDEST DUP1 ISZERO PUSH2 0xC52 JUMPI DUP1 PUSH1 0x1F LT PUSH2 0xC27 JUMPI PUSH2 0x100 DUP1 DUP4 SLOAD DIV MUL DUP4 MSTORE SWAP2 PUSH1 0x20 ADD SWAP2 PUSH2 0xC52 JUMP JUMPDEST DUP3 ADD SWAP2 SWAP1 PUSH1 0x0 MSTORE PUSH1 0x20 PUSH1 0x0 KECCAK256 SWAP1 JUMPDEST DUP2 SLOAD DUP2 MSTORE SWAP1 PUSH1 0x1 ADD SWAP1 PUSH1 0x20 ADD DUP1 DUP4 GT PUSH2 0xC35 JUMPI DUP3 SWAP1 SUB PUSH1 0x1F AND DUP3 ADD SWAP2 JUMPDEST POP POP POP POP POP SWAP1 POP SWAP1 JUMP JUMPDEST PUSH1 0x0 PUSH2 0xC67 DUP3 PUSH2 0x27B7 JUMP JUMPDEST PUSH2 0xCA6 JUMPI PUSH1 0x40 MLOAD PUSH32 0x8C379A000000000000000000000000000000000000000000000000000000000 DUP2 MSTORE PUSH1 0x4 ADD PUSH2 0xC9D SWAP1 PUSH2 0x47EB JUMP JUMPDEST PUSH1 0x40 MLOAD DUP1 SWAP2 SUB SWAP1 REVERT JUMPDEST PUSH1 0x4 PUSH1 0x0 DUP4 DUP2 MSTORE PUSH1 0x20 ADD SWAP1 DUP2 MSTORE PUSH1 0x20 ADD PUSH1 0x0 KECCAK256 PUSH1 0x0 SWAP1 SLOAD SWAP1 PUSH2 0x100 EXP SWAP1 DIV PUSH20 0xFFFFFFFFFFFFFFFFFFFFFFFFFFFFFFFFFFFFFFFF AND SWAP1 POP SWAP2 SWAP1 POP JUMP JUMPDEST PUSH1 0x0 PUSH2 0xCEC DUP3 PUSH2 0x12EA JUMP JUMPDEST SWAP1 POP DUP1 PUSH20 0xFFFFFFFFFFFFFFFFFFFFFFFFFFFFFFFFFFFFFFFF AND DUP4 PUSH20 0xFFFFFFFFFFFFFFFFFFFFFFFFFFFFFFFFFFFFFFFF AND EQ ISZERO PUSH2 0xD5D JUMPI PUSH1 0x40 MLOAD PUSH32 0x8C379A000000000000000000000000000000000000000000000000000000000 DUP2 MSTORE PUSH1 0x4 ADD PUSH2 0xD54 SWAP1 PUSH2 0x486B JUMP JUMPDEST PUSH1 0x40 MLOAD DUP1 SWAP2 SUB SWAP1 REVERT JUMPDEST DUP1 PUSH20 0xFFFFFFFFFFFFFFFFFFFFFFFFFFFFFFFFFFFFFFFF AND PUSH2 0xD7C PUSH2 0x2823 JUMP JUMPDEST PUSH20 0xFFFFFFFFFFFFFFFFFFFFFFFFFFFFFFFFFFFFFFFF AND EQ DUP1 PUSH2 0xDAB JUMPI POP PUSH2 0xDAA DUP2 PUSH2 0xDA5 PUSH2 0x2823 JUMP JUMPDEST PUSH2 0x2376 JUMP JUMPDEST JUMPDEST PUSH2 0xDEA JUMPI PUSH1 0x40 MLOAD PUSH32 0x8C379A000000000000000000000000000000000000000000000000000000000 DUP2 MSTORE PUSH1 0x4 ADD PUSH2 0xDE1 SWAP1 PUSH2 0x474B JUMP JUMPDEST PUSH1 0x40 MLOAD DUP1 SWAP2 SUB SWAP1 REVERT JUMPDEST PUSH2 0xDF4 DUP4 DUP4 PUSH2 0x282B JUMP JUMPDEST POP POP POP JUMP JUMPDEST PUSH2 0xE01 PUSH2 0x2823 JUMP JUMPDEST PUSH20 0xFFFFFFFFFFFFFFFFFFFFFFFFFFFFFFFFFFFFFFFF AND PUSH2 0xE1F PUSH2 0x183C JUMP JUMPDEST PUSH20 0xFFFFFFFFFFFFFFFFFFFFFFFFFFFFFFFFFFFFFFFF AND EQ PUSH2 0xE75 JUMPI PUSH1 0x40 MLOAD PUSH32 0x8C379A000000000000000000000000000000000000000000000000000000000 DUP2 MSTORE PUSH1 0x4 ADD PUSH2 0xE6C SWAP1 PUSH2 0x480B JUMP JUMPDEST PUSH1 0x40 MLOAD DUP1 SWAP2 SUB SWAP1 REVERT JUMPDEST DUP3 PUSH1 0x0 LT DUP1 ISZERO PUSH2 0xE84 JUMPI POP DUP2 DUP4 LT JUMPDEST DUP1 ISZERO PUSH2 0xE8F JUMPI POP DUP1 DUP3 LT JUMPDEST PUSH2 0xECE JUMPI PUSH1 0x40 MLOAD PUSH32 0x8C379A000000000000000000000000000000000000000000000000000000000 DUP2 MSTORE PUSH1 0x4 ADD PUSH2 0xEC5 SWAP1 PUSH2 0x46EB JUMP JUMPDEST PUSH1 0x40 MLOAD DUP1 SWAP2 SUB SWAP1 REVERT JUMPDEST DUP3 PUSH1 0xD DUP2 SWAP1 SSTORE POP DUP2 PUSH1 0xE DUP2 SWAP1 SSTORE POP DUP1 PUSH1 0xF DUP2 SWAP1 SSTORE POP POP POP POP JUMP JUMPDEST PUSH1 0x0 PUSH1 0x8 DUP1 SLOAD SWAP1 POP SWAP1 POP SWAP1 JUMP JUMPDEST PUSH1 0x11 SLOAD DUP2 JUMP JUMPDEST PUSH1 0xD SLOAD DUP2 JUMP JUMPDEST PUSH2 0xF12 PUSH2 0xF0C PUSH2 0x2823 JUMP JUMPDEST DUP3 PUSH2 0x28E4 JUMP JUMPDEST PUSH2 0xF51 JUMPI PUSH1 0x40 MLOAD PUSH32 0x8C379A000000000000000000000000000000000000000000000000000000000 DUP2 MSTORE PUSH1 0x4 ADD PUSH2 0xF48 SWAP1 PUSH2 0x48AB JUMP JUMPDEST PUSH1 0x40 MLOAD DUP1 SWAP2 SUB SWAP1 REVERT JUMPDEST PUSH2 0xF5C DUP4 DUP4 DUP4 PUSH2 0x29C2 JUMP JUMPDEST POP POP POP JUMP JUMPDEST PUSH1 0x0 PUSH2 0xF6C DUP4 PUSH2 0x1486 JUMP JUMPDEST DUP3 LT PUSH2 0xFAD JUMPI PUSH1 0x40 MLOAD PUSH32 0x8C379A000000000000000000000000000000000000000000000000000000000 DUP2 MSTORE PUSH1 0x4 ADD PUSH2 0xFA4 SWAP1 PUSH2 0x45CB JUMP JUMPDEST PUSH1 0x40 MLOAD DUP1 SWAP2 SUB SWAP1 REVERT JUMPDEST PUSH1 0x6 PUSH1 0x0 DUP5 PUSH20 0xFFFFFFFFFFFFFFFFFFFFFFFFFFFFFFFFFFFFFFFF AND PUSH20 0xFFFFFFFFFFFFFFFFFFFFFFFFFFFFFFFFFFFFFFFF AND DUP2 MSTORE PUSH1 0x20 ADD SWAP1 DUP2 MSTORE PUSH1 0x20 ADD PUSH1 0x0 KECCAK256 PUSH1 0x0 DUP4 DUP2 MSTORE PUSH1 0x20 ADD SWAP1 DUP2 MSTORE PUSH1 0x20 ADD PUSH1 0x0 KECCAK256 SLOAD SWAP1 POP SWAP3 SWAP2 POP POP JUMP JUMPDEST PUSH2 0x100E PUSH2 0x2823 JUMP JUMPDEST PUSH20 0xFFFFFFFFFFFFFFFFFFFFFFFFFFFFFFFFFFFFFFFF AND PUSH2 0x102C PUSH2 0x183C JUMP JUMPDEST PUSH20 0xFFFFFFFFFFFFFFFFFFFFFFFFFFFFFFFFFFFFFFFF AND EQ PUSH2 0x1082 JUMPI PUSH1 0x40 MLOAD PUSH32 0x8C379A000000000000000000000000000000000000000000000000000000000 DUP2 MSTORE PUSH1 0x4 ADD PUSH2 0x1079 SWAP1 PUSH2 0x480B JUMP JUMPDEST PUSH1 0x40 MLOAD DUP1 SWAP2 SUB SWAP1 REVERT JUMPDEST DUP3 PUSH1 0x10 DUP2 SWAP1 SSTORE POP DUP2 PUSH1 0x11 DUP2 SWAP1 SSTORE POP DUP1 PUSH1 0x12 DUP2 SWAP1 SSTORE POP POP POP POP JUMP JUMPDEST PUSH2 0x10A4 PUSH2 0x2823 JUMP JUMPDEST PUSH20 0xFFFFFFFFFFFFFFFFFFFFFFFFFFFFFFFFFFFFFFFF AND PUSH2 0x10C2 PUSH2 0x183C JUMP JUMPDEST PUSH20 0xFFFFFFFFFFFFFFFFFFFFFFFFFFFFFFFFFFFFFFFF AND EQ PUSH2 0x1118 JUMPI PUSH1 0x40 MLOAD PUSH32 0x8C379A000000000000000000000000000000000000000000000000000000000 DUP2 MSTORE PUSH1 0x4 ADD PUSH2 0x110F SWAP1 PUSH2 0x480B JUMP JUMPDEST PUSH1 0x40 MLOAD DUP1 SWAP2 SUB SWAP1 REVERT JUMPDEST PUSH1 0x0 PUSH2 0x1122 PUSH2 0x183C JUMP JUMPDEST PUSH20 0xFFFFFFFFFFFFFFFFFFFFFFFFFFFFFFFFFFFFFFFF AND SELFBALANCE PUSH1 0x40 MLOAD PUSH2 0x1145 SWAP1 PUSH2 0x44F0 JUMP JUMPDEST PUSH1 0x0 PUSH1 0x40 MLOAD DUP1 DUP4 SUB DUP2 DUP6 DUP8 GAS CALL SWAP3 POP POP POP RETURNDATASIZE DUP1 PUSH1 0x0 DUP2 EQ PUSH2 0x1182 JUMPI PUSH1 0x40 MLOAD SWAP2 POP PUSH1 0x1F NOT PUSH1 0x3F RETURNDATASIZE ADD AND DUP3 ADD PUSH1 0x40 MSTORE RETURNDATASIZE DUP3 MSTORE RETURNDATASIZE PUSH1 0x0 PUSH1 0x20 DUP5 ADD RETURNDATACOPY PUSH2 0x1187 JUMP JUMPDEST PUSH1 0x60 SWAP2 POP JUMPDEST POP POP SWAP1 POP DUP1 PUSH2 0x1195 JUMPI PUSH1 0x0 DUP1 REVERT JUMPDEST POP JUMP JUMPDEST PUSH2 0x11B3 DUP4 DUP4 DUP4 PUSH1 0x40 MLOAD DUP1 PUSH1 0x20 ADD PUSH1 0x40 MSTORE DUP1 PUSH1 0x0 DUP2 MSTORE POP PUSH2 0x1F54 JUMP JUMPDEST POP POP POP JUMP JUMPDEST PUSH1 0x60 PUSH1 0x0 PUSH2 0x11C5 DUP4 PUSH2 0x1486 JUMP JUMPDEST SWAP1 POP PUSH1 0x0 DUP2 PUSH8 0xFFFFFFFFFFFFFFFF DUP2 GT ISZERO PUSH2 0x11E3 JUMPI PUSH2 0x11E2 PUSH2 0x4DA2 JUMP JUMPDEST JUMPDEST PUSH1 0x40 MLOAD SWAP1 DUP1 DUP3 MSTORE DUP1 PUSH1 0x20 MUL PUSH1 0x20 ADD DUP3 ADD PUSH1 0x40 MSTORE DUP1 ISZERO PUSH2 0x1211 JUMPI DUP2 PUSH1 0x20 ADD PUSH1 0x20 DUP3 MUL DUP1 CALLDATASIZE DUP4 CALLDATACOPY DUP1 DUP3 ADD SWAP2 POP POP SWAP1 POP JUMPDEST POP SWAP1 POP PUSH1 0x0 JUMPDEST DUP3 DUP2 LT ISZERO PUSH2 0x125B JUMPI PUSH2 0x1229 DUP6 DUP3 PUSH2 0xF61 JUMP JUMPDEST DUP3 DUP3 DUP2 MLOAD DUP2 LT PUSH2 0x123C JUMPI PUSH2 0x123B PUSH2 0x4D73 JUMP JUMPDEST JUMPDEST PUSH1 0x20 MUL PUSH1 0x20 ADD ADD DUP2 DUP2 MSTORE POP POP DUP1 DUP1 PUSH2 0x1253 SWAP1 PUSH2 0x4C3D JUMP JUMPDEST SWAP2 POP POP PUSH2 0x1217 JUMP JUMPDEST POP DUP1 SWAP3 POP POP POP SWAP2 SWAP1 POP JUMP JUMPDEST PUSH1 0x0 PUSH2 0x1270 PUSH2 0xEE8 JUMP JUMPDEST DUP3 LT PUSH2 0x12B1 JUMPI PUSH1 0x40 MLOAD PUSH32 0x8C379A000000000000000000000000000000000000000000000000000000000 DUP2 MSTORE PUSH1 0x4 ADD PUSH2 0x12A8 SWAP1 PUSH2 0x48CB JUMP JUMPDEST PUSH1 0x40 MLOAD DUP1 SWAP2 SUB SWAP1 REVERT JUMPDEST PUSH1 0x8 DUP3 DUP2 SLOAD DUP2 LT PUSH2 0x12C5 JUMPI PUSH2 0x12C4 PUSH2 0x4D73 JUMP JUMPDEST JUMPDEST SWAP1 PUSH1 0x0 MSTORE PUSH1 0x20 PUSH1 0x0 KECCAK256 ADD SLOAD SWAP1 POP SWAP2 SWAP1 POP JUMP JUMPDEST PUSH1 0x13 PUSH1 0x1 SWAP1 SLOAD SWAP1 PUSH2 0x100 EXP SWAP1 DIV PUSH1 0xFF AND DUP2 JUMP JUMPDEST PUSH1 0x0 DUP1 PUSH1 0x2 PUSH1 0x0 DUP5 DUP2 MSTORE PUSH1 0x20 ADD SWAP1 DUP2 MSTORE PUSH1 0x20 ADD PUSH1 0x0 KECCAK256 PUSH1 0x0 SWAP1 SLOAD SWAP1 PUSH2 0x100 EXP SWAP1 DIV PUSH20 0xFFFFFFFFFFFFFFFFFFFFFFFFFFFFFFFFFFFFFFFF AND SWAP1 POP PUSH1 0x0 PUSH20 0xFFFFFFFFFFFFFFFFFFFFFFFFFFFFFFFFFFFFFFFF AND DUP2 PUSH20 0xFFFFFFFFFFFFFFFFFFFFFFFFFFFFFFFFFFFFFFFF AND EQ ISZERO PUSH2 0x1393 JUMPI PUSH1 0x40 MLOAD PUSH32 0x8C379A000000000000000000000000000000000000000000000000000000000 DUP2 MSTORE PUSH1 0x4 ADD PUSH2 0x138A SWAP1 PUSH2 0x478B JUMP JUMPDEST PUSH1 0x40 MLOAD DUP1 SWAP2 SUB SWAP1 REVERT JUMPDEST DUP1 SWAP2 POP POP SWAP2 SWAP1 POP JUMP JUMPDEST PUSH1 0x60 PUSH1 0x0 PUSH1 0x3 PUSH8 0xFFFFFFFFFFFFFFFF DUP2 GT ISZERO PUSH2 0x13BB JUMPI PUSH2 0x13BA PUSH2 0x4DA2 JUMP JUMPDEST JUMPDEST PUSH1 0x40 MLOAD SWAP1 DUP1 DUP3 MSTORE DUP1 PUSH1 0x20 MUL PUSH1 0x20 ADD DUP3 ADD PUSH1 0x40 MSTORE DUP1 ISZERO PUSH2 0x13E9 JUMPI DUP2 PUSH1 0x20 ADD PUSH1 0x20 DUP3 MUL DUP1 CALLDATASIZE DUP4 CALLDATACOPY DUP1 DUP3 ADD SWAP2 POP POP SWAP1 POP JUMPDEST POP SWAP1 POP PUSH1 0x1 PUSH1 0x19 SLOAD PUSH2 0x13FB SWAP2 SWAP1 PUSH2 0x4AF0 JUMP JUMPDEST DUP2 PUSH1 0x0 DUP2 MLOAD DUP2 LT PUSH2 0x140F JUMPI PUSH2 0x140E PUSH2 0x4D73 JUMP JUMPDEST JUMPDEST PUSH1 0x20 MUL PUSH1 0x20 ADD ADD DUP2 DUP2 MSTORE POP POP PUSH1 0x1 PUSH1 0x1A SLOAD PUSH2 0x142A SWAP2 SWAP1 PUSH2 0x4AF0 JUMP JUMPDEST DUP2 PUSH1 0x1 DUP2 MLOAD DUP2 LT PUSH2 0x143E JUMPI PUSH2 0x143D PUSH2 0x4D73 JUMP JUMPDEST JUMPDEST PUSH1 0x20 MUL PUSH1 0x20 ADD ADD DUP2 DUP2 MSTORE POP POP PUSH1 0x1 PUSH1 0x1B SLOAD PUSH2 0x1459 SWAP2 SWAP1 PUSH2 0x4AF0 JUMP JUMPDEST DUP2 PUSH1 0x2 DUP2 MLOAD DUP2 LT PUSH2 0x146D JUMPI PUSH2 0x146C PUSH2 0x4D73 JUMP JUMPDEST JUMPDEST PUSH1 0x20 MUL PUSH1 0x20 ADD ADD DUP2 DUP2 MSTORE POP POP DUP1 SWAP2 POP POP SWAP1 JUMP JUMPDEST PUSH1 0xE SLOAD DUP2 JUMP JUMPDEST PUSH1 0x0 DUP1 PUSH20 0xFFFFFFFFFFFFFFFFFFFFFFFFFFFFFFFFFFFFFFFF AND DUP3 PUSH20 0xFFFFFFFFFFFFFFFFFFFFFFFFFFFFFFFFFFFFFFFF AND EQ ISZERO PUSH2 0x14F7 JUMPI PUSH1 0x40 MLOAD PUSH32 0x8C379A000000000000000000000000000000000000000000000000000000000 DUP2 MSTORE PUSH1 0x4 ADD PUSH2 0x14EE SWAP1 PUSH2 0x476B JUMP JUMPDEST PUSH1 0x40 MLOAD DUP1 SWAP2 SUB SWAP1 REVERT JUMPDEST PUSH1 0x3 PUSH1 0x0 DUP4 PUSH20 0xFFFFFFFFFFFFFFFFFFFFFFFFFFFFFFFFFFFFFFFF AND PUSH20 0xFFFFFFFFFFFFFFFFFFFFFFFFFFFFFFFFFFFFFFFF AND DUP2 MSTORE PUSH1 0x20 ADD SWAP1 DUP2 MSTORE PUSH1 0x20 ADD PUSH1 0x0 KECCAK256 SLOAD SWAP1 POP SWAP2 SWAP1 POP JUMP JUMPDEST PUSH2 0x1546 PUSH2 0x2823 JUMP JUMPDEST PUSH20 0xFFFFFFFFFFFFFFFFFFFFFFFFFFFFFFFFFFFFFFFF AND PUSH2 0x1564 PUSH2 0x183C JUMP JUMPDEST PUSH20 0xFFFFFFFFFFFFFFFFFFFFFFFFFFFFFFFFFFFFFFFF AND EQ PUSH2 0x15BA JUMPI PUSH1 0x40 MLOAD PUSH32 0x8C379A000000000000000000000000000000000000000000000000000000000 DUP2 MSTORE PUSH1 0x4 ADD PUSH2 0x15B1 SWAP1 PUSH2 0x480B JUMP JUMPDEST PUSH1 0x40 MLOAD DUP1 SWAP2 SUB SWAP1 REVERT JUMPDEST PUSH2 0x15C4 PUSH1 0x0 PUSH2 0x2C29 JUMP JUMPDEST JUMP JUMPDEST PUSH1 0x14 DUP1 SLOAD PUSH2 0x15D3 SWAP1 PUSH2 0x4BDA JUMP JUMPDEST DUP1 PUSH1 0x1F ADD PUSH1 0x20 DUP1 SWAP2 DIV MUL PUSH1 0x20 ADD PUSH1 0x40 MLOAD SWAP1 DUP2 ADD PUSH1 0x40 MSTORE DUP1 SWAP3 SWAP2 SWAP1 DUP2 DUP2 MSTORE PUSH1 0x20 ADD DUP3 DUP1 SLOAD PUSH2 0x15FF SWAP1 PUSH2 0x4BDA JUMP JUMPDEST DUP1 ISZERO PUSH2 0x164C JUMPI DUP1 PUSH1 0x1F LT PUSH2 0x1621 JUMPI PUSH2 0x100 DUP1 DUP4 SLOAD DIV MUL DUP4 MSTORE SWAP2 PUSH1 0x20 ADD SWAP2 PUSH2 0x164C JUMP JUMPDEST DUP3 ADD SWAP2 SWAP1 PUSH1 0x0 MSTORE PUSH1 0x20 PUSH1 0x0 KECCAK256 SWAP1 JUMPDEST DUP2 SLOAD DUP2 MSTORE SWAP1 PUSH1 0x1 ADD SWAP1 PUSH1 0x20 ADD DUP1 DUP4 GT PUSH2 0x162F JUMPI DUP3 SWAP1 SUB PUSH1 0x1F AND DUP3 ADD SWAP2 JUMPDEST POP POP POP POP POP DUP2 JUMP JUMPDEST PUSH2 0x165C PUSH2 0x2823 JUMP JUMPDEST PUSH20 0xFFFFFFFFFFFFFFFFFFFFFFFFFFFFFFFFFFFFFFFF AND PUSH2 0x167A PUSH2 0x183C JUMP JUMPDEST PUSH20 0xFFFFFFFFFFFFFFFFFFFFFFFFFFFFFFFFFFFFFFFF AND EQ PUSH2 0x16D0 JUMPI PUSH1 0x40 MLOAD PUSH32 0x8C379A000000000000000000000000000000000000000000000000000000000 DUP2 MSTORE PUSH1 0x4 ADD PUSH2 0x16C7 SWAP1 PUSH2 0x480B JUMP JUMPDEST PUSH1 0x40 MLOAD DUP1 SWAP2 SUB SWAP1 REVERT JUMPDEST DUP1 PUSH1 0x13 PUSH1 0x0 PUSH2 0x100 EXP DUP2 SLOAD DUP2 PUSH1 0xFF MUL NOT AND SWAP1 DUP4 ISZERO ISZERO MUL OR SWAP1 SSTORE POP POP JUMP JUMPDEST PUSH2 0x16F5 PUSH2 0x2823 JUMP JUMPDEST PUSH20 0xFFFFFFFFFFFFFFFFFFFFFFFFFFFFFFFFFFFFFFFF AND PUSH2 0x1713 PUSH2 0x183C JUMP JUMPDEST PUSH20 0xFFFFFFFFFFFFFFFFFFFFFFFFFFFFFFFFFFFFFFFF AND EQ PUSH2 0x1769 JUMPI PUSH1 0x40 MLOAD PUSH32 0x8C379A000000000000000000000000000000000000000000000000000000000 DUP2 MSTORE PUSH1 0x4 ADD PUSH2 0x1760 SWAP1 PUSH2 0x480B JUMP JUMPDEST PUSH1 0x40 MLOAD DUP1 SWAP2 SUB SWAP1 REVERT JUMPDEST PUSH1 0x18 PUSH1 0x0 PUSH2 0x1777 SWAP2 SWAP1 PUSH2 0x38B4 JUMP JUMPDEST DUP2 DUP2 PUSH1 0x18 SWAP2 SWAP1 PUSH2 0x1788 SWAP3 SWAP2 SWAP1 PUSH2 0x38D5 JUMP JUMPDEST POP POP POP JUMP JUMPDEST PUSH1 0x10 SLOAD DUP2 JUMP JUMPDEST PUSH2 0x179B PUSH2 0x2823 JUMP JUMPDEST PUSH20 0xFFFFFFFFFFFFFFFFFFFFFFFFFFFFFFFFFFFFFFFF AND PUSH2 0x17B9 PUSH2 0x183C JUMP JUMPDEST PUSH20 0xFFFFFFFFFFFFFFFFFFFFFFFFFFFFFFFFFFFFFFFF AND EQ PUSH2 0x180F JUMPI PUSH1 0x40 MLOAD PUSH32 0x8C379A000000000000000000000000000000000000000000000000000000000 DUP2 MSTORE PUSH1 0x4 ADD PUSH2 0x1806 SWAP1 PUSH2 0x480B JUMP JUMPDEST PUSH1 0x40 MLOAD DUP1 SWAP2 SUB SWAP1 REVERT JUMPDEST DUP1 PUSH1 0xC SWAP1 DUP1 MLOAD SWAP1 PUSH1 0x20 ADD SWAP1 PUSH2 0x1825 SWAP3 SWAP2 SWAP1 PUSH2 0x3975 JUMP JUMPDEST POP POP JUMP JUMPDEST PUSH1 0x13 PUSH1 0x0 SWAP1 SLOAD SWAP1 PUSH2 0x100 EXP SWAP1 DIV PUSH1 0xFF AND DUP2 JUMP JUMPDEST PUSH1 0x0 PUSH1 0xA PUSH1 0x0 SWAP1 SLOAD SWAP1 PUSH2 0x100 EXP SWAP1 DIV PUSH20 0xFFFFFFFFFFFFFFFFFFFFFFFFFFFFFFFFFFFFFFFF AND SWAP1 POP SWAP1 JUMP JUMPDEST PUSH1 0xF SLOAD DUP2 JUMP JUMPDEST PUSH1 0x60 PUSH1 0x1 DUP1 SLOAD PUSH2 0x187B SWAP1 PUSH2 0x4BDA JUMP JUMPDEST DUP1 PUSH1 0x1F ADD PUSH1 0x20 DUP1 SWAP2 DIV MUL PUSH1 0x20 ADD PUSH1 0x40 MLOAD SWAP1 DUP2 ADD PUSH1 0x40 MSTORE DUP1 SWAP3 SWAP2 SWAP1 DUP2 DUP2 MSTORE PUSH1 0x20 ADD DUP3 DUP1 SLOAD PUSH2 0x18A7 SWAP1 PUSH2 0x4BDA JUMP JUMPDEST DUP1 ISZERO PUSH2 0x18F4 JUMPI DUP1 PUSH1 0x1F LT PUSH2 0x18C9 JUMPI PUSH2 0x100 DUP1 DUP4 SLOAD DIV MUL DUP4 MSTORE SWAP2 PUSH1 0x20 ADD SWAP2 PUSH2 0x18F4 JUMP JUMPDEST DUP3 ADD SWAP2 SWAP1 PUSH1 0x0 MSTORE PUSH1 0x20 PUSH1 0x0 KECCAK256 SWAP1 JUMPDEST DUP2 SLOAD DUP2 MSTORE SWAP1 PUSH1 0x1 ADD SWAP1 PUSH1 0x20 ADD DUP1 DUP4 GT PUSH2 0x18D7 JUMPI DUP3 SWAP1 SUB PUSH1 0x1F AND DUP3 ADD SWAP2 JUMPDEST POP POP POP POP POP SWAP1 POP SWAP1 JUMP JUMPDEST PUSH2 0x1906 PUSH2 0x2823 JUMP JUMPDEST PUSH20 0xFFFFFFFFFFFFFFFFFFFFFFFFFFFFFFFFFFFFFFFF AND PUSH2 0x1924 PUSH2 0x183C JUMP JUMPDEST PUSH20 0xFFFFFFFFFFFFFFFFFFFFFFFFFFFFFFFFFFFFFFFF AND EQ PUSH2 0x197A JUMPI PUSH1 0x40 MLOAD PUSH32 0x8C379A000000000000000000000000000000000000000000000000000000000 DUP2 MSTORE PUSH1 0x4 ADD PUSH2 0x1971 SWAP1 PUSH2 0x480B JUMP JUMPDEST PUSH1 0x40 MLOAD DUP1 SWAP2 SUB SWAP1 REVERT JUMPDEST DUP1 PUSH1 0xB SWAP1 DUP1 MLOAD SWAP1 PUSH1 0x20 ADD SWAP1 PUSH2 0x1990 SWAP3 SWAP2 SWAP1 PUSH2 0x3975 JUMP JUMPDEST POP POP JUMP JUMPDEST PUSH1 0x18 DUP2 DUP2 SLOAD DUP2 LT PUSH2 0x19A4 JUMPI PUSH1 0x0 DUP1 REVERT JUMPDEST SWAP1 PUSH1 0x0 MSTORE PUSH1 0x20 PUSH1 0x0 KECCAK256 ADD PUSH1 0x0 SWAP2 POP SLOAD SWAP1 PUSH2 0x100 EXP SWAP1 DIV PUSH20 0xFFFFFFFFFFFFFFFFFFFFFFFFFFFFFFFFFFFFFFFF AND DUP2 JUMP JUMPDEST PUSH1 0x13 PUSH1 0x0 SWAP1 SLOAD SWAP1 PUSH2 0x100 EXP SWAP1 DIV PUSH1 0xFF AND ISZERO PUSH2 0x1A23 JUMPI PUSH1 0x40 MLOAD PUSH32 0x8C379A000000000000000000000000000000000000000000000000000000000 DUP2 MSTORE PUSH1 0x4 ADD PUSH2 0x1A1A SWAP1 PUSH2 0x490B JUMP JUMPDEST PUSH1 0x40 MLOAD DUP1 SWAP2 SUB SWAP1 REVERT JUMPDEST PUSH1 0x1 DUP2 EQ DUP1 PUSH2 0x1A32 JUMPI POP PUSH1 0x2 DUP2 EQ JUMPDEST DUP1 PUSH2 0x1A3D JUMPI POP PUSH1 0x3 DUP2 EQ JUMPDEST PUSH2 0x1A7C JUMPI PUSH1 0x40 MLOAD PUSH32 0x8C379A000000000000000000000000000000000000000000000000000000000 DUP2 MSTORE PUSH1 0x4 ADD PUSH2 0x1A73 SWAP1 PUSH2 0x48EB JUMP JUMPDEST PUSH1 0x40 MLOAD DUP1 SWAP2 SUB SWAP1 REVERT JUMPDEST PUSH1 0x1 DUP2 EQ ISZERO PUSH2 0x1AD1 JUMPI PUSH1 0xD SLOAD PUSH1 0x19 SLOAD GT ISZERO PUSH2 0x1ACC JUMPI PUSH1 0x40 MLOAD PUSH32 0x8C379A000000000000000000000000000000000000000000000000000000000 DUP2 MSTORE PUSH1 0x4 ADD PUSH2 0x1AC3 SWAP1 PUSH2 0x468B JUMP JUMPDEST PUSH1 0x40 MLOAD DUP1 SWAP2 SUB SWAP1 REVERT JUMPDEST PUSH2 0x1B79 JUMP JUMPDEST PUSH1 0x2 DUP2 EQ ISZERO PUSH2 0x1B26 JUMPI PUSH1 0xE SLOAD PUSH1 0x1A SLOAD GT ISZERO PUSH2 0x1B21 JUMPI PUSH1 0x40 MLOAD PUSH32 0x8C379A000000000000000000000000000000000000000000000000000000000 DUP2 MSTORE PUSH1 0x4 ADD PUSH2 0x1B18 SWAP1 PUSH2 0x47AB JUMP JUMPDEST PUSH1 0x40 MLOAD DUP1 SWAP2 SUB SWAP1 REVERT JUMPDEST PUSH2 0x1B78 JUMP JUMPDEST PUSH1 0x3 DUP2 EQ ISZERO PUSH2 0x1B77 JUMPI PUSH1 0xF SLOAD PUSH1 0x1B SLOAD GT ISZERO PUSH2 0x1B76 JUMPI PUSH1 0x40 MLOAD PUSH32 0x8C379A000000000000000000000000000000000000000000000000000000000 DUP2 MSTORE PUSH1 0x4 ADD PUSH2 0x1B6D SWAP1 PUSH2 0x472B JUMP JUMPDEST PUSH1 0x40 MLOAD DUP1 SWAP2 SUB SWAP1 REVERT JUMPDEST JUMPDEST JUMPDEST JUMPDEST PUSH2 0x1B81 PUSH2 0x183C JUMP JUMPDEST PUSH20 0xFFFFFFFFFFFFFFFFFFFFFFFFFFFFFFFFFFFFFFFF AND CALLER PUSH20 0xFFFFFFFFFFFFFFFFFFFFFFFFFFFFFFFFFFFFFFFF AND EQ PUSH2 0x1DA7 JUMPI PUSH1 0x1 ISZERO ISZERO PUSH1 0x17 PUSH1 0x0 SWAP1 SLOAD SWAP1 PUSH2 0x100 EXP SWAP1 DIV PUSH1 0xFF AND ISZERO ISZERO EQ ISZERO PUSH2 0x1CAF JUMPI PUSH2 0x1BD8 CALLER PUSH2 0x2626 JUMP JUMPDEST ISZERO PUSH2 0x1C18 JUMPI PUSH1 0x40 MLOAD PUSH32 0x8C379A000000000000000000000000000000000000000000000000000000000 DUP2 MSTORE PUSH1 0x4 ADD PUSH2 0x1C0F SWAP1 PUSH2 0x488B JUMP JUMPDEST PUSH1 0x40 MLOAD DUP1 SWAP2 SUB SWAP1 REVERT JUMPDEST PUSH1 0x0 PUSH1 0x16 PUSH1 0x0 CALLER PUSH20 0xFFFFFFFFFFFFFFFFFFFFFFFFFFFFFFFFFFFFFFFF AND PUSH20 0xFFFFFFFFFFFFFFFFFFFFFFFFFFFFFFFFFFFFFFFF AND DUP2 MSTORE PUSH1 0x20 ADD SWAP1 DUP2 MSTORE PUSH1 0x20 ADD PUSH1 0x0 KECCAK256 SLOAD SWAP1 POP PUSH1 0x15 SLOAD PUSH1 0x1 DUP3 PUSH2 0x1C6C SWAP2 SWAP1 PUSH2 0x4A69 JUMP JUMPDEST GT ISZERO PUSH2 0x1CAD JUMPI PUSH1 0x40 MLOAD PUSH32 0x8C379A000000000000000000000000000000000000000000000000000000000 DUP2 MSTORE PUSH1 0x4 ADD PUSH2 0x1CA4 SWAP1 PUSH2 0x484B JUMP JUMPDEST PUSH1 0x40 MLOAD DUP1 SWAP2 SUB SWAP1 REVERT JUMPDEST POP JUMPDEST PUSH1 0x1 DUP2 EQ ISZERO PUSH2 0x1D02 JUMPI PUSH1 0x10 SLOAD CALLVALUE LT ISZERO PUSH2 0x1CFD JUMPI PUSH1 0x40 MLOAD PUSH32 0x8C379A000000000000000000000000000000000000000000000000000000000 DUP2 MSTORE PUSH1 0x4 ADD PUSH2 0x1CF4 SWAP1 PUSH2 0x466B JUMP JUMPDEST PUSH1 0x40 MLOAD DUP1 SWAP2 SUB SWAP1 REVERT JUMPDEST PUSH2 0x1DA6 JUMP JUMPDEST PUSH1 0x2 DUP2 EQ ISZERO PUSH2 0x1D55 JUMPI PUSH1 0x11 SLOAD CALLVALUE LT ISZERO PUSH2 0x1D50 JUMPI PUSH1 0x40 MLOAD PUSH32 0x8C379A000000000000000000000000000000000000000000000000000000000 DUP2 MSTORE PUSH1 0x4 ADD PUSH2 0x1D47 SWAP1 PUSH2 0x466B JUMP JUMPDEST PUSH1 0x40 MLOAD DUP1 SWAP2 SUB SWAP1 REVERT JUMPDEST PUSH2 0x1DA5 JUMP JUMPDEST PUSH1 0x3 DUP2 EQ ISZERO PUSH2 0x1DA4 JUMPI PUSH1 0x12 SLOAD CALLVALUE LT ISZERO PUSH2 0x1DA3 JUMPI PUSH1 0x40 MLOAD PUSH32 0x8C379A000000000000000000000000000000000000000000000000000000000 DUP2 MSTORE PUSH1 0x4 ADD PUSH2 0x1D9A SWAP1 PUSH2 0x466B JUMP JUMPDEST PUSH1 0x40 MLOAD DUP1 SWAP2 SUB SWAP1 REVERT JUMPDEST JUMPDEST JUMPDEST JUMPDEST JUMPDEST PUSH1 0x1 DUP2 EQ ISZERO PUSH2 0x1DDF JUMPI PUSH1 0x0 PUSH1 0x19 SLOAD SWAP1 POP PUSH1 0x19 PUSH1 0x0 DUP2 SLOAD DUP1 SWAP3 SWAP2 SWAP1 PUSH2 0x1DCA SWAP1 PUSH2 0x4C3D JUMP JUMPDEST SWAP2 SWAP1 POP SSTORE POP PUSH2 0x1DD9 CALLER DUP3 PUSH2 0x2CEF JUMP JUMPDEST POP PUSH2 0x1E4D JUMP JUMPDEST PUSH1 0x2 DUP2 EQ ISZERO PUSH2 0x1E17 JUMPI PUSH1 0x0 PUSH1 0x1A SLOAD SWAP1 POP PUSH1 0x1A PUSH1 0x0 DUP2 SLOAD DUP1 SWAP3 SWAP2 SWAP1 PUSH2 0x1E02 SWAP1 PUSH2 0x4C3D JUMP JUMPDEST SWAP2 SWAP1 POP SSTORE POP PUSH2 0x1E11 CALLER DUP3 PUSH2 0x2CEF JUMP JUMPDEST POP PUSH2 0x1E4C JUMP JUMPDEST PUSH1 0x3 DUP2 EQ ISZERO PUSH2 0x1E4B JUMPI PUSH1 0x0 PUSH1 0x1B SLOAD SWAP1 POP PUSH1 0x1B PUSH1 0x0 DUP2 SLOAD DUP1 SWAP3 SWAP2 SWAP1 PUSH2 0x1E3A SWAP1 PUSH2 0x4C3D JUMP JUMPDEST SWAP2 SWAP1 POP SSTORE POP PUSH2 0x1E49 CALLER DUP3 PUSH2 0x2CEF JUMP JUMPDEST POP JUMPDEST JUMPDEST JUMPDEST PUSH1 0x16 PUSH1 0x0 CALLER PUSH20 0xFFFFFFFFFFFFFFFFFFFFFFFFFFFFFFFFFFFFFFFF AND PUSH20 0xFFFFFFFFFFFFFFFFFFFFFFFFFFFFFFFFFFFFFFFF AND DUP2 MSTORE PUSH1 0x20 ADD SWAP1 DUP2 MSTORE PUSH1 0x20 ADD PUSH1 0x0 KECCAK256 PUSH1 0x0 DUP2 SLOAD DUP1 SWAP3 SWAP2 SWAP1 PUSH2 0x1E9D SWAP1 PUSH2 0x4C3D JUMP JUMPDEST SWAP2 SWAP1 POP SSTORE POP POP JUMP JUMPDEST PUSH2 0x1EB7 PUSH2 0x1EB0 PUSH2 0x2823 JUMP JUMPDEST DUP4 DUP4 PUSH2 0x2D0D JUMP JUMPDEST POP POP JUMP JUMPDEST PUSH2 0x1EC3 PUSH2 0x2823 JUMP JUMPDEST PUSH20 0xFFFFFFFFFFFFFFFFFFFFFFFFFFFFFFFFFFFFFFFF AND PUSH2 0x1EE1 PUSH2 0x183C JUMP JUMPDEST PUSH20 0xFFFFFFFFFFFFFFFFFFFFFFFFFFFFFFFFFFFFFFFF AND EQ PUSH2 0x1F37 JUMPI PUSH1 0x40 MLOAD PUSH32 0x8C379A000000000000000000000000000000000000000000000000000000000 DUP2 MSTORE PUSH1 0x4 ADD PUSH2 0x1F2E SWAP1 PUSH2 0x480B JUMP JUMPDEST PUSH1 0x40 MLOAD DUP1 SWAP2 SUB SWAP1 REVERT JUMPDEST PUSH1 0x1 PUSH1 0x13 PUSH1 0x1 PUSH2 0x100 EXP DUP2 SLOAD DUP2 PUSH1 0xFF MUL NOT AND SWAP1 DUP4 ISZERO ISZERO MUL OR SWAP1 SSTORE POP JUMP JUMPDEST PUSH2 0x1F65 PUSH2 0x1F5F PUSH2 0x2823 JUMP JUMPDEST DUP4 PUSH2 0x28E4 JUMP JUMPDEST PUSH2 0x1FA4 JUMPI PUSH1 0x40 MLOAD PUSH32 0x8C379A000000000000000000000000000000000000000000000000000000000 DUP2 MSTORE PUSH1 0x4 ADD PUSH2 0x1F9B SWAP1 PUSH2 0x48AB JUMP JUMPDEST PUSH1 0x40 MLOAD DUP1 SWAP2 SUB SWAP1 REVERT JUMPDEST PUSH2 0x1FB0 DUP5 DUP5 DUP5 DUP5 PUSH2 0x2E7A JUMP JUMPDEST POP POP POP POP JUMP JUMPDEST PUSH1 0x15 SLOAD DUP2 JUMP JUMPDEST PUSH1 0x17 PUSH1 0x0 SWAP1 SLOAD SWAP1 PUSH2 0x100 EXP SWAP1 DIV PUSH1 0xFF AND DUP2 JUMP JUMPDEST PUSH1 0x60 PUSH2 0x1FDA DUP3 PUSH2 0x27B7 JUMP JUMPDEST PUSH2 0x2019 JUMPI PUSH1 0x40 MLOAD PUSH32 0x8C379A000000000000000000000000000000000000000000000000000000000 DUP2 MSTORE PUSH1 0x4 ADD PUSH2 0x2010 SWAP1 PUSH2 0x482B JUMP JUMPDEST PUSH1 0x40 MLOAD DUP1 SWAP2 SUB SWAP1 REVERT JUMPDEST PUSH1 0x0 ISZERO ISZERO PUSH1 0x13 PUSH1 0x1 SWAP1 SLOAD SWAP1 PUSH2 0x100 EXP SWAP1 DIV PUSH1 0xFF AND ISZERO ISZERO EQ ISZERO PUSH2 0x20C7 JUMPI PUSH1 0x14 DUP1 SLOAD PUSH2 0x2042 SWAP1 PUSH2 0x4BDA JUMP JUMPDEST DUP1 PUSH1 0x1F ADD PUSH1 0x20 DUP1 SWAP2 DIV MUL PUSH1 0x20 ADD PUSH1 0x40 MLOAD SWAP1 DUP2 ADD PUSH1 0x40 MSTORE DUP1 SWAP3 SWAP2 SWAP1 DUP2 DUP2 MSTORE PUSH1 0x20 ADD DUP3 DUP1 SLOAD PUSH2 0x206E SWAP1 PUSH2 0x4BDA JUMP JUMPDEST DUP1 ISZERO PUSH2 0x20BB JUMPI DUP1 PUSH1 0x1F LT PUSH2 0x2090 JUMPI PUSH2 0x100 DUP1 DUP4 SLOAD DIV MUL DUP4 MSTORE SWAP2 PUSH1 0x20 ADD SWAP2 PUSH2 0x20BB JUMP JUMPDEST DUP3 ADD SWAP2 SWAP1 PUSH1 0x0 MSTORE PUSH1 0x20 PUSH1 0x0 KECCAK256 SWAP1 JUMPDEST DUP2 SLOAD DUP2 MSTORE SWAP1 PUSH1 0x1 ADD SWAP1 PUSH1 0x20 ADD DUP1 DUP4 GT PUSH2 0x209E JUMPI DUP3 SWAP1 SUB PUSH1 0x1F AND DUP3 ADD SWAP2 JUMPDEST POP POP POP POP POP SWAP1 POP PUSH2 0x21A6 JUMP JUMPDEST PUSH1 0x0 PUSH1 0xB DUP1 SLOAD PUSH2 0x20D6 SWAP1 PUSH2 0x4BDA JUMP JUMPDEST DUP1 PUSH1 0x1F ADD PUSH1 0x20 DUP1 SWAP2 DIV MUL PUSH1 0x20 ADD PUSH1 0x40 MLOAD SWAP1 DUP2 ADD PUSH1 0x40 MSTORE DUP1 SWAP3 SWAP2 SWAP1 DUP2 DUP2 MSTORE PUSH1 0x20 ADD DUP3 DUP1 SLOAD PUSH2 0x2102 SWAP1 PUSH2 0x4BDA JUMP JUMPDEST DUP1 ISZERO PUSH2 0x214F JUMPI DUP1 PUSH1 0x1F LT PUSH2 0x2124 JUMPI PUSH2 0x100 DUP1 DUP4 SLOAD DIV MUL DUP4 MSTORE SWAP2 PUSH1 0x20 ADD SWAP2 PUSH2 0x214F JUMP JUMPDEST DUP3 ADD SWAP2 SWAP1 PUSH1 0x0 MSTORE PUSH1 0x20 PUSH1 0x0 KECCAK256 SWAP1 JUMPDEST DUP2 SLOAD DUP2 MSTORE SWAP1 PUSH1 0x1 ADD SWAP1 PUSH1 0x20 ADD DUP1 DUP4 GT PUSH2 0x2132 JUMPI DUP3 SWAP1 SUB PUSH1 0x1F AND DUP3 ADD SWAP2 JUMPDEST POP POP POP POP POP SWAP1 POP PUSH1 0x0 DUP2 MLOAD GT PUSH2 0x2174 JUMPI PUSH1 0x40 MLOAD DUP1 PUSH1 0x20 ADD PUSH1 0x40 MSTORE DUP1 PUSH1 0x0 DUP2 MSTORE POP PUSH2 0x21A2 JUMP JUMPDEST DUP1 PUSH2 0x217E DUP5 PUSH2 0x2ED6 JUMP JUMPDEST PUSH1 0xC PUSH1 0x40 MLOAD PUSH1 0x20 ADD PUSH2 0x2192 SWAP4 SWAP3 SWAP2 SWAP1 PUSH2 0x44BF JUMP JUMPDEST PUSH1 0x40 MLOAD PUSH1 0x20 DUP2 DUP4 SUB SUB DUP2 MSTORE SWAP1 PUSH1 0x40 MSTORE JUMPDEST SWAP2 POP POP JUMPDEST SWAP2 SWAP1 POP JUMP JUMPDEST PUSH1 0xC DUP1 SLOAD PUSH2 0x21B8 SWAP1 PUSH2 0x4BDA JUMP JUMPDEST DUP1 PUSH1 0x1F ADD PUSH1 0x20 DUP1 SWAP2 DIV MUL PUSH1 0x20 ADD PUSH1 0x40 MLOAD SWAP1 DUP2 ADD PUSH1 0x40 MSTORE DUP1 SWAP3 SWAP2 SWAP1 DUP2 DUP2 MSTORE PUSH1 0x20 ADD DUP3 DUP1 SLOAD PUSH2 0x21E4 SWAP1 PUSH2 0x4BDA JUMP JUMPDEST DUP1 ISZERO PUSH2 0x2231 JUMPI DUP1 PUSH1 0x1F LT PUSH2 0x2206 JUMPI PUSH2 0x100 DUP1 DUP4 SLOAD DIV MUL DUP4 MSTORE SWAP2 PUSH1 0x20 ADD SWAP2 PUSH2 0x2231 JUMP JUMPDEST DUP3 ADD SWAP2 SWAP1 PUSH1 0x0 MSTORE PUSH1 0x20 PUSH1 0x0 KECCAK256 SWAP1 JUMPDEST DUP2 SLOAD DUP2 MSTORE SWAP1 PUSH1 0x1 ADD SWAP1 PUSH1 0x20 ADD DUP1 DUP4 GT PUSH2 0x2214 JUMPI DUP3 SWAP1 SUB PUSH1 0x1F AND DUP3 ADD SWAP2 JUMPDEST POP POP POP POP POP DUP2 JUMP JUMPDEST PUSH2 0x2241 PUSH2 0x2823 JUMP JUMPDEST PUSH20 0xFFFFFFFFFFFFFFFFFFFFFFFFFFFFFFFFFFFFFFFF AND PUSH2 0x225F PUSH2 0x183C JUMP JUMPDEST PUSH20 0xFFFFFFFFFFFFFFFFFFFFFFFFFFFFFFFFFFFFFFFF AND EQ PUSH2 0x22B5 JUMPI PUSH1 0x40 MLOAD PUSH32 0x8C379A000000000000000000000000000000000000000000000000000000000 DUP2 MSTORE PUSH1 0x4 ADD PUSH2 0x22AC SWAP1 PUSH2 0x480B JUMP JUMPDEST PUSH1 0x40 MLOAD DUP1 SWAP2 SUB SWAP1 REVERT JUMPDEST DUP1 PUSH1 0x15 DUP2 SWAP1 SSTORE POP POP JUMP JUMPDEST PUSH1 0x12 SLOAD DUP2 JUMP JUMPDEST PUSH2 0x22CD PUSH2 0x2823 JUMP JUMPDEST PUSH20 0xFFFFFFFFFFFFFFFFFFFFFFFFFFFFFFFFFFFFFFFF AND PUSH2 0x22EB PUSH2 0x183C JUMP JUMPDEST PUSH20 0xFFFFFFFFFFFFFFFFFFFFFFFFFFFFFFFFFFFFFFFF AND EQ PUSH2 0x2341 JUMPI PUSH1 0x40 MLOAD PUSH32 0x8C379A000000000000000000000000000000000000000000000000000000000 DUP2 MSTORE PUSH1 0x4 ADD PUSH2 0x2338 SWAP1 PUSH2 0x480B JUMP JUMPDEST PUSH1 0x40 MLOAD DUP1 SWAP2 SUB SWAP1 REVERT JUMPDEST DUP1 PUSH1 0x17 PUSH1 0x0 PUSH2 0x100 EXP DUP2 SLOAD DUP2 PUSH1 0xFF MUL NOT AND SWAP1 DUP4 ISZERO ISZERO MUL OR SWAP1 SSTORE POP POP JUMP JUMPDEST PUSH1 0x16 PUSH1 0x20 MSTORE DUP1 PUSH1 0x0 MSTORE PUSH1 0x40 PUSH1 0x0 KECCAK256 PUSH1 0x0 SWAP2 POP SWAP1 POP SLOAD DUP2 JUMP JUMPDEST PUSH1 0x0 PUSH1 0x5 PUSH1 0x0 DUP5 PUSH20 0xFFFFFFFFFFFFFFFFFFFFFFFFFFFFFFFFFFFFFFFF AND PUSH20 0xFFFFFFFFFFFFFFFFFFFFFFFFFFFFFFFFFFFFFFFF AND DUP2 MSTORE PUSH1 0x20 ADD SWAP1 DUP2 MSTORE PUSH1 0x20 ADD PUSH1 0x0 KECCAK256 PUSH1 0x0 DUP4 PUSH20 0xFFFFFFFFFFFFFFFFFFFFFFFFFFFFFFFFFFFFFFFF AND PUSH20 0xFFFFFFFFFFFFFFFFFFFFFFFFFFFFFFFFFFFFFFFF AND DUP2 MSTORE PUSH1 0x20 ADD SWAP1 DUP2 MSTORE PUSH1 0x20 ADD PUSH1 0x0 KECCAK256 PUSH1 0x0 SWAP1 SLOAD SWAP1 PUSH2 0x100 EXP SWAP1 DIV PUSH1 0xFF AND SWAP1 POP SWAP3 SWAP2 POP POP JUMP JUMPDEST PUSH1 0xB DUP1 SLOAD PUSH2 0x2417 SWAP1 PUSH2 0x4BDA JUMP JUMPDEST DUP1 PUSH1 0x1F ADD PUSH1 0x20 DUP1 SWAP2 DIV MUL PUSH1 0x20 ADD PUSH1 0x40 MLOAD SWAP1 DUP2 ADD PUSH1 0x40 MSTORE DUP1 SWAP3 SWAP2 SWAP1 DUP2 DUP2 MSTORE PUSH1 0x20 ADD DUP3 DUP1 SLOAD PUSH2 0x2443 SWAP1 PUSH2 0x4BDA JUMP JUMPDEST DUP1 ISZERO PUSH2 0x2490 JUMPI DUP1 PUSH1 0x1F LT PUSH2 0x2465 JUMPI PUSH2 0x100 DUP1 DUP4 SLOAD DIV MUL DUP4 MSTORE SWAP2 PUSH1 0x20 ADD SWAP2 PUSH2 0x2490 JUMP JUMPDEST DUP3 ADD SWAP2 SWAP1 PUSH1 0x0 MSTORE PUSH1 0x20 PUSH1 0x0 KECCAK256 SWAP1 JUMPDEST DUP2 SLOAD DUP2 MSTORE SWAP1 PUSH1 0x1 ADD SWAP1 PUSH1 0x20 ADD DUP1 DUP4 GT PUSH2 0x2473 JUMPI DUP3 SWAP1 SUB PUSH1 0x1F AND DUP3 ADD SWAP2 JUMPDEST POP POP POP POP POP DUP2 JUMP JUMPDEST PUSH2 0x24A0 PUSH2 0x2823 JUMP JUMPDEST PUSH20 0xFFFFFFFFFFFFFFFFFFFFFFFFFFFFFFFFFFFFFFFF AND PUSH2 0x24BE PUSH2 0x183C JUMP JUMPDEST PUSH20 0xFFFFFFFFFFFFFFFFFFFFFFFFFFFFFFFFFFFFFFFF AND EQ PUSH2 0x2514 JUMPI PUSH1 0x40 MLOAD PUSH32 0x8C379A000000000000000000000000000000000000000000000000000000000 DUP2 MSTORE PUSH1 0x4 ADD PUSH2 0x250B SWAP1 PUSH2 0x480B JUMP JUMPDEST PUSH1 0x40 MLOAD DUP1 SWAP2 SUB SWAP1 REVERT JUMPDEST DUP1 PUSH1 0x14 SWAP1 DUP1 MLOAD SWAP1 PUSH1 0x20 ADD SWAP1 PUSH2 0x252A SWAP3 SWAP2 SWAP1 PUSH2 0x3975 JUMP JUMPDEST POP POP JUMP JUMPDEST PUSH2 0x2536 PUSH2 0x2823 JUMP JUMPDEST PUSH20 0xFFFFFFFFFFFFFFFFFFFFFFFFFFFFFFFFFFFFFFFF AND PUSH2 0x2554 PUSH2 0x183C JUMP JUMPDEST PUSH20 0xFFFFFFFFFFFFFFFFFFFFFFFFFFFFFFFFFFFFFFFF AND EQ PUSH2 0x25AA JUMPI PUSH1 0x40 MLOAD PUSH32 0x8C379A000000000000000000000000000000000000000000000000000000000 DUP2 MSTORE PUSH1 0x4 ADD PUSH2 0x25A1 SWAP1 PUSH2 0x480B JUMP JUMPDEST PUSH1 0x40 MLOAD DUP1 SWAP2 SUB SWAP1 REVERT JUMPDEST PUSH1 0x0 PUSH20 0xFFFFFFFFFFFFFFFFFFFFFFFFFFFFFFFFFFFFFFFF AND DUP2 PUSH20 0xFFFFFFFFFFFFFFFFFFFFFFFFFFFFFFFFFFFFFFFF AND EQ ISZERO PUSH2 0x261A JUMPI PUSH1 0x40 MLOAD PUSH32 0x8C379A000000000000000000000000000000000000000000000000000000000 DUP2 MSTORE PUSH1 0x4 ADD PUSH2 0x2611 SWAP1 PUSH2 0x460B JUMP JUMPDEST PUSH1 0x40 MLOAD DUP1 SWAP2 SUB SWAP1 REVERT JUMPDEST PUSH2 0x2623 DUP2 PUSH2 0x2C29 JUMP JUMPDEST POP JUMP JUMPDEST PUSH1 0x0 DUP1 PUSH1 0x0 SWAP1 POP JUMPDEST PUSH1 0x18 DUP1 SLOAD SWAP1 POP DUP2 LT ISZERO PUSH2 0x26CA JUMPI DUP3 PUSH20 0xFFFFFFFFFFFFFFFFFFFFFFFFFFFFFFFFFFFFFFFF AND PUSH1 0x18 DUP3 DUP2 SLOAD DUP2 LT PUSH2 0x2666 JUMPI PUSH2 0x2665 PUSH2 0x4D73 JUMP JUMPDEST JUMPDEST SWAP1 PUSH1 0x0 MSTORE PUSH1 0x20 PUSH1 0x0 KECCAK256 ADD PUSH1 0x0 SWAP1 SLOAD SWAP1 PUSH2 0x100 EXP SWAP1 DIV PUSH20 0xFFFFFFFFFFFFFFFFFFFFFFFFFFFFFFFFFFFFFFFF AND PUSH20 0xFFFFFFFFFFFFFFFFFFFFFFFFFFFFFFFFFFFFFFFF AND EQ ISZERO PUSH2 0x26B7 JUMPI PUSH1 0x1 SWAP2 POP POP PUSH2 0x26D0 JUMP JUMPDEST DUP1 DUP1 PUSH2 0x26C2 SWAP1 PUSH2 0x4C3D JUMP JUMPDEST SWAP2 POP POP PUSH2 0x262E JUMP JUMPDEST POP PUSH1 0x0 SWAP1 POP JUMPDEST SWAP2 SWAP1 POP JUMP JUMPDEST PUSH1 0x0 PUSH32 0x80AC58CD00000000000000000000000000000000000000000000000000000000 PUSH28 0xFFFFFFFFFFFFFFFFFFFFFFFFFFFFFFFFFFFFFFFFFFFFFFFFFFFFFFFF NOT AND DUP3 PUSH28 0xFFFFFFFFFFFFFFFFFFFFFFFFFFFFFFFFFFFFFFFFFFFFFFFFFFFFFFFF NOT AND EQ DUP1 PUSH2 0x27A0 JUMPI POP PUSH32 0x5B5E139F00000000000000000000000000000000000000000000000000000000 PUSH28 0xFFFFFFFFFFFFFFFFFFFFFFFFFFFFFFFFFFFFFFFFFFFFFFFFFFFFFFFF NOT AND DUP3 PUSH28 0xFFFFFFFFFFFFFFFFFFFFFFFFFFFFFFFFFFFFFFFFFFFFFFFFFFFFFFFF NOT AND EQ JUMPDEST DUP1 PUSH2 0x27B0 JUMPI POP PUSH2 0x27AF DUP3 PUSH2 0x3037 JUMP JUMPDEST JUMPDEST SWAP1 POP SWAP2 SWAP1 POP JUMP JUMPDEST PUSH1 0x0 DUP1 PUSH20 0xFFFFFFFFFFFFFFFFFFFFFFFFFFFFFFFFFFFFFFFF AND PUSH1 0x2 PUSH1 0x0 DUP5 DUP2 MSTORE PUSH1 0x20 ADD SWAP1 DUP2 MSTORE PUSH1 0x20 ADD PUSH1 0x0 KECCAK256 PUSH1 0x0 SWAP1 SLOAD SWAP1 PUSH2 0x100 EXP SWAP1 DIV PUSH20 0xFFFFFFFFFFFFFFFFFFFFFFFFFFFFFFFFFFFFFFFF AND PUSH20 0xFFFFFFFFFFFFFFFFFFFFFFFFFFFFFFFFFFFFFFFF AND EQ ISZERO SWAP1 POP SWAP2 SWAP1 POP JUMP JUMPDEST PUSH1 0x0 CALLER SWAP1 POP SWAP1 JUMP JUMPDEST DUP2 PUSH1 0x4 PUSH1 0x0 DUP4 DUP2 MSTORE PUSH1 0x20 ADD SWAP1 DUP2 MSTORE PUSH1 0x20 ADD PUSH1 0x0 KECCAK256 PUSH1 0x0 PUSH2 0x100 EXP DUP2 SLOAD DUP2 PUSH20 0xFFFFFFFFFFFFFFFFFFFFFFFFFFFFFFFFFFFFFFFF MUL NOT AND SWAP1 DUP4 PUSH20 0xFFFFFFFFFFFFFFFFFFFFFFFFFFFFFFFFFFFFFFFF AND MUL OR SWAP1 SSTORE POP DUP1 DUP3 PUSH20 0xFFFFFFFFFFFFFFFFFFFFFFFFFFFFFFFFFFFFFFFF AND PUSH2 0x289E DUP4 PUSH2 0x12EA JUMP JUMPDEST PUSH20 0xFFFFFFFFFFFFFFFFFFFFFFFFFFFFFFFFFFFFFFFF AND PUSH32 0x8C5BE1E5EBEC7D5BD14F71427D1E84F3DD0314C0F7B2291E5B200AC8C7C3B925 PUSH1 0x40 MLOAD PUSH1 0x40 MLOAD DUP1 SWAP2 SUB SWAP1 LOG4 POP POP JUMP JUMPDEST PUSH1 0x0 PUSH2 0x28EF DUP3 PUSH2 0x27B7 JUMP JUMPDEST PUSH2 0x292E JUMPI PUSH1 0x40 MLOAD PUSH32 0x8C379A000000000000000000000000000000000000000000000000000000000 DUP2 MSTORE PUSH1 0x4 ADD PUSH2 0x2925 SWAP1 PUSH2 0x470B JUMP JUMPDEST PUSH1 0x40 MLOAD DUP1 SWAP2 SUB SWAP1 REVERT JUMPDEST PUSH1 0x0 PUSH2 0x2939 DUP4 PUSH2 0x12EA JUMP JUMPDEST SWAP1 POP DUP1 PUSH20 0xFFFFFFFFFFFFFFFFFFFFFFFFFFFFFFFFFFFFFFFF AND DUP5 PUSH20 0xFFFFFFFFFFFFFFFFFFFFFFFFFFFFFFFFFFFFFFFF AND EQ DUP1 PUSH2 0x29A8 JUMPI POP DUP4 PUSH20 0xFFFFFFFFFFFFFFFFFFFFFFFFFFFFFFFFFFFFFFFF AND PUSH2 0x2990 DUP5 PUSH2 0xC5C JUMP JUMPDEST PUSH20 0xFFFFFFFFFFFFFFFFFFFFFFFFFFFFFFFFFFFFFFFF AND EQ JUMPDEST DUP1 PUSH2 0x29B9 JUMPI POP PUSH2 0x29B8 DUP2 DUP6 PUSH2 0x2376 JUMP JUMPDEST JUMPDEST SWAP2 POP POP SWAP3 SWAP2 POP POP JUMP JUMPDEST DUP3 PUSH20 0xFFFFFFFFFFFFFFFFFFFFFFFFFFFFFFFFFFFFFFFF AND PUSH2 0x29E2 DUP3 PUSH2 0x12EA JUMP JUMPDEST PUSH20 0xFFFFFFFFFFFFFFFFFFFFFFFFFFFFFFFFFFFFFFFF AND EQ PUSH2 0x2A38 JUMPI PUSH1 0x40 MLOAD PUSH32 0x8C379A000000000000000000000000000000000000000000000000000000000 DUP2 MSTORE PUSH1 0x4 ADD PUSH2 0x2A2F SWAP1 PUSH2 0x462B JUMP JUMPDEST PUSH1 0x40 MLOAD DUP1 SWAP2 SUB SWAP1 REVERT JUMPDEST PUSH1 0x0 PUSH20 0xFFFFFFFFFFFFFFFFFFFFFFFFFFFFFFFFFFFFFFFF AND DUP3 PUSH20 0xFFFFFFFFFFFFFFFFFFFFFFFFFFFFFFFFFFFFFFFF AND EQ ISZERO PUSH2 0x2AA8 JUMPI PUSH1 0x40 MLOAD PUSH32 0x8C379A000000000000000000000000000000000000000000000000000000000 DUP2 MSTORE PUSH1 0x4 ADD PUSH2 0x2A9F SWAP1 PUSH2 0x46AB JUMP JUMPDEST PUSH1 0x40 MLOAD DUP1 SWAP2 SUB SWAP1 REVERT JUMPDEST PUSH2 0x2AB3 DUP4 DUP4 DUP4 PUSH2 0x30A1 JUMP JUMPDEST PUSH2 0x2ABE PUSH1 0x0 DUP3 PUSH2 0x282B JUMP JUMPDEST PUSH1 0x1 PUSH1 0x3 PUSH1 0x0 DUP6 PUSH20 0xFFFFFFFFFFFFFFFFFFFFFFFFFFFFFFFFFFFFFFFF AND PUSH20 0xFFFFFFFFFFFFFFFFFFFFFFFFFFFFFFFFFFFFFFFF AND DUP2 MSTORE PUSH1 0x20 ADD SWAP1 DUP2 MSTORE PUSH1 0x20 ADD PUSH1 0x0 KECCAK256 PUSH1 0x0 DUP3 DUP3 SLOAD PUSH2 0x2B0E SWAP2 SWAP1 PUSH2 0x4AF0 JUMP JUMPDEST SWAP3 POP POP DUP2 SWAP1 SSTORE POP PUSH1 0x1 PUSH1 0x3 PUSH1 0x0 DUP5 PUSH20 0xFFFFFFFFFFFFFFFFFFFFFFFFFFFFFFFFFFFFFFFF AND PUSH20 0xFFFFFFFFFFFFFFFFFFFFFFFFFFFFFFFFFFFFFFFF AND DUP2 MSTORE PUSH1 0x20 ADD SWAP1 DUP2 MSTORE PUSH1 0x20 ADD PUSH1 0x0 KECCAK256 PUSH1 0x0 DUP3 DUP3 SLOAD PUSH2 0x2B65 SWAP2 SWAP1 PUSH2 0x4A69 JUMP JUMPDEST SWAP3 POP POP DUP2 SWAP1 SSTORE POP DUP2 PUSH1 0x2 PUSH1 0x0 DUP4 DUP2 MSTORE PUSH1 0x20 ADD SWAP1 DUP2 MSTORE PUSH1 0x20 ADD PUSH1 0x0 KECCAK256 PUSH1 0x0 PUSH2 0x100 EXP DUP2 SLOAD DUP2 PUSH20 0xFFFFFFFFFFFFFFFFFFFFFFFFFFFFFFFFFFFFFFFF MUL NOT AND SWAP1 DUP4 PUSH20 0xFFFFFFFFFFFFFFFFFFFFFFFFFFFFFFFFFFFFFFFF AND MUL OR SWAP1 SSTORE POP DUP1 DUP3 PUSH20 0xFFFFFFFFFFFFFFFFFFFFFFFFFFFFFFFFFFFFFFFF AND DUP5 PUSH20 0xFFFFFFFFFFFFFFFFFFFFFFFFFFFFFFFFFFFFFFFF AND PUSH32 0xDDF252AD1BE2C89B69C2B068FC378DAA952BA7F163C4A11628F55A4DF523B3EF PUSH1 0x40 MLOAD PUSH1 0x40 MLOAD DUP1 SWAP2 SUB SWAP1 LOG4 PUSH2 0x2C24 DUP4 DUP4 DUP4 PUSH2 0x31B5 JUMP JUMPDEST POP POP POP JUMP JUMPDEST PUSH1 0x0 PUSH1 0xA PUSH1 0x0 SWAP1 SLOAD SWAP1 PUSH2 0x100 EXP SWAP1 DIV PUSH20 0xFFFFFFFFFFFFFFFFFFFFFFFFFFFFFFFFFFFFFFFF AND SWAP1 POP DUP2 PUSH1 0xA PUSH1 0x0 PUSH2 0x100 EXP DUP2 SLOAD DUP2 PUSH20 0xFFFFFFFFFFFFFFFFFFFFFFFFFFFFFFFFFFFFFFFF MUL NOT AND SWAP1 DUP4 PUSH20 0xFFFFFFFFFFFFFFFFFFFFFFFFFFFFFFFFFFFFFFFF AND MUL OR SWAP1 SSTORE POP DUP2 PUSH20 0xFFFFFFFFFFFFFFFFFFFFFFFFFFFFFFFFFFFFFFFF AND DUP2 PUSH20 0xFFFFFFFFFFFFFFFFFFFFFFFFFFFFFFFFFFFFFFFF AND PUSH32 0x8BE0079C531659141344CD1FD0A4F28419497F9722A3DAAFE3B4186F6B6457E0 PUSH1 0x40 MLOAD PUSH1 0x40 MLOAD DUP1 SWAP2 SUB SWAP1 LOG3 POP POP JUMP JUMPDEST PUSH2 0x2D09 DUP3 DUP3 PUSH1 0x40 MLOAD DUP1 PUSH1 0x20 ADD PUSH1 0x40 MSTORE DUP1 PUSH1 0x0 DUP2 MSTORE POP PUSH2 0x31BA JUMP JUMPDEST POP POP JUMP JUMPDEST DUP2 PUSH20 0xFFFFFFFFFFFFFFFFFFFFFFFFFFFFFFFFFFFFFFFF AND DUP4 PUSH20 0xFFFFFFFFFFFFFFFFFFFFFFFFFFFFFFFFFFFFFFFF AND EQ ISZERO PUSH2 0x2D7C JUMPI PUSH1 0x40 MLOAD PUSH32 0x8C379A000000000000000000000000000000000000000000000000000000000 DUP2 MSTORE PUSH1 0x4 ADD PUSH2 0x2D73 SWAP1 PUSH2 0x46CB JUMP JUMPDEST PUSH1 0x40 MLOAD DUP1 SWAP2 SUB SWAP1 REVERT JUMPDEST DUP1 PUSH1 0x5 PUSH1 0x0 DUP6 PUSH20 0xFFFFFFFFFFFFFFFFFFFFFFFFFFFFFFFFFFFFFFFF AND PUSH20 0xFFFFFFFFFFFFFFFFFFFFFFFFFFFFFFFFFFFFFFFF AND DUP2 MSTORE PUSH1 0x20 ADD SWAP1 DUP2 MSTORE PUSH1 0x20 ADD PUSH1 0x0 KECCAK256 PUSH1 0x0 DUP5 PUSH20 0xFFFFFFFFFFFFFFFFFFFFFFFFFFFFFFFFFFFFFFFF AND PUSH20 0xFFFFFFFFFFFFFFFFFFFFFFFFFFFFFFFFFFFFFFFF AND DUP2 MSTORE PUSH1 0x20 ADD SWAP1 DUP2 MSTORE PUSH1 0x20 ADD PUSH1 0x0 KECCAK256 PUSH1 0x0 PUSH2 0x100 EXP DUP2 SLOAD DUP2 PUSH1 0xFF MUL NOT AND SWAP1 DUP4 ISZERO ISZERO MUL OR SWAP1 SSTORE POP DUP2 PUSH20 0xFFFFFFFFFFFFFFFFFFFFFFFFFFFFFFFFFFFFFFFF AND DUP4 PUSH20 0xFFFFFFFFFFFFFFFFFFFFFFFFFFFFFFFFFFFFFFFF AND PUSH32 0x17307EAB39AB6107E8899845AD3D59BD9653F200F220920489CA2B5937696C31 DUP4 PUSH1 0x40 MLOAD PUSH2 0x2E6D SWAP2 SWAP1 PUSH2 0x458E JUMP JUMPDEST PUSH1 0x40 MLOAD DUP1 SWAP2 SUB SWAP1 LOG3 POP POP POP JUMP JUMPDEST PUSH2 0x2E85 DUP5 DUP5 DUP5 PUSH2 0x29C2 JUMP JUMPDEST PUSH2 0x2E91 DUP5 DUP5 DUP5 DUP5 PUSH2 0x3215 JUMP JUMPDEST PUSH2 0x2ED0 JUMPI PUSH1 0x40 MLOAD PUSH32 0x8C379A000000000000000000000000000000000000000000000000000000000 DUP2 MSTORE PUSH1 0x4 ADD PUSH2 0x2EC7 SWAP1 PUSH2 0x45EB JUMP JUMPDEST PUSH1 0x40 MLOAD DUP1 SWAP2 SUB SWAP1 REVERT JUMPDEST POP POP POP POP JUMP JUMPDEST PUSH1 0x60 PUSH1 0x0 DUP3 EQ ISZERO PUSH2 0x2F1E JUMPI PUSH1 0x40 MLOAD DUP1 PUSH1 0x40 ADD PUSH1 0x40 MSTORE DUP1 PUSH1 0x1 DUP2 MSTORE PUSH1 0x20 ADD PUSH32 0x3000000000000000000000000000000000000000000000000000000000000000 DUP2 MSTORE POP SWAP1 POP PUSH2 0x3032 JUMP JUMPDEST PUSH1 0x0 DUP3 SWAP1 POP PUSH1 0x0 JUMPDEST PUSH1 0x0 DUP3 EQ PUSH2 0x2F50 JUMPI DUP1 DUP1 PUSH2 0x2F39 SWAP1 PUSH2 0x4C3D JUMP JUMPDEST SWAP2 POP POP PUSH1 0xA DUP3 PUSH2 0x2F49 SWAP2 SWAP1 PUSH2 0x4ABF JUMP JUMPDEST SWAP2 POP PUSH2 0x2F26 JUMP JUMPDEST PUSH1 0x0 DUP2 PUSH8 0xFFFFFFFFFFFFFFFF DUP2 GT ISZERO PUSH2 0x2F6C JUMPI PUSH2 0x2F6B PUSH2 0x4DA2 JUMP JUMPDEST JUMPDEST PUSH1 0x40 MLOAD SWAP1 DUP1 DUP3 MSTORE DUP1 PUSH1 0x1F ADD PUSH1 0x1F NOT AND PUSH1 0x20 ADD DUP3 ADD PUSH1 0x40 MSTORE DUP1 ISZERO PUSH2 0x2F9E JUMPI DUP2 PUSH1 0x20 ADD PUSH1 0x1 DUP3 MUL DUP1 CALLDATASIZE DUP4 CALLDATACOPY DUP1 DUP3 ADD SWAP2 POP POP SWAP1 POP JUMPDEST POP SWAP1 POP JUMPDEST PUSH1 0x0 DUP6 EQ PUSH2 0x302B JUMPI PUSH1 0x1 DUP3 PUSH2 0x2FB7 SWAP2 SWAP1 PUSH2 0x4AF0 JUMP JUMPDEST SWAP2 POP PUSH1 0xA DUP6 PUSH2 0x2FC6 SWAP2 SWAP1 PUSH2 0x4C86 JUMP JUMPDEST PUSH1 0x30 PUSH2 0x2FD2 SWAP2 SWAP1 PUSH2 0x4A69 JUMP JUMPDEST PUSH1 0xF8 SHL DUP2 DUP4 DUP2 MLOAD DUP2 LT PUSH2 0x2FE8 JUMPI PUSH2 0x2FE7 PUSH2 0x4D73 JUMP JUMPDEST JUMPDEST PUSH1 0x20 ADD ADD SWAP1 PUSH31 0xFFFFFFFFFFFFFFFFFFFFFFFFFFFFFFFFFFFFFFFFFFFFFFFFFFFFFFFFFFFFFF NOT AND SWAP1 DUP2 PUSH1 0x0 BYTE SWAP1 MSTORE8 POP PUSH1 0xA DUP6 PUSH2 0x3024 SWAP2 SWAP1 PUSH2 0x4ABF JUMP JUMPDEST SWAP5 POP PUSH2 0x2FA2 JUMP JUMPDEST DUP1 SWAP4 POP POP POP POP JUMPDEST SWAP2 SWAP1 POP JUMP JUMPDEST PUSH1 0x0 PUSH32 0x1FFC9A700000000000000000000000000000000000000000000000000000000 PUSH28 0xFFFFFFFFFFFFFFFFFFFFFFFFFFFFFFFFFFFFFFFFFFFFFFFFFFFFFFFF NOT AND DUP3 PUSH28 0xFFFFFFFFFFFFFFFFFFFFFFFFFFFFFFFFFFFFFFFFFFFFFFFFFFFFFFFF NOT AND EQ SWAP1 POP SWAP2 SWAP1 POP JUMP JUMPDEST PUSH2 0x30AC DUP4 DUP4 DUP4 PUSH2 0x33AC JUMP JUMPDEST PUSH1 0x0 PUSH20 0xFFFFFFFFFFFFFFFFFFFFFFFFFFFFFFFFFFFFFFFF AND DUP4 PUSH20 0xFFFFFFFFFFFFFFFFFFFFFFFFFFFFFFFFFFFFFFFF AND EQ ISZERO PUSH2 0x30EF JUMPI PUSH2 0x30EA DUP2 PUSH2 0x33B1 JUMP JUMPDEST PUSH2 0x312E JUMP JUMPDEST DUP2 PUSH20 0xFFFFFFFFFFFFFFFFFFFFFFFFFFFFFFFFFFFFFFFF AND DUP4 PUSH20 0xFFFFFFFFFFFFFFFFFFFFFFFFFFFFFFFFFFFFFFFF AND EQ PUSH2 0x312D JUMPI PUSH2 0x312C DUP4 DUP3 PUSH2 0x33FA JUMP JUMPDEST JUMPDEST JUMPDEST PUSH1 0x0 PUSH20 0xFFFFFFFFFFFFFFFFFFFFFFFFFFFFFFFFFFFFFFFF AND DUP3 PUSH20 0xFFFFFFFFFFFFFFFFFFFFFFFFFFFFFFFFFFFFFFFF AND EQ ISZERO PUSH2 0x3171 JUMPI PUSH2 0x316C DUP2 PUSH2 0x3567 JUMP JUMPDEST PUSH2 0x31B0 JUMP JUMPDEST DUP3 PUSH20 0xFFFFFFFFFFFFFFFFFFFFFFFFFFFFFFFFFFFFFFFF AND DUP3 PUSH20 0xFFFFFFFFFFFFFFFFFFFFFFFFFFFFFFFFFFFFFFFF AND EQ PUSH2 0x31AF JUMPI PUSH2 0x31AE DUP3 DUP3 PUSH2 0x3638 JUMP JUMPDEST JUMPDEST JUMPDEST POP POP POP JUMP JUMPDEST POP POP POP JUMP JUMPDEST PUSH2 0x31C4 DUP4 DUP4 PUSH2 0x36B7 JUMP JUMPDEST PUSH2 0x31D1 PUSH1 0x0 DUP5 DUP5 DUP5 PUSH2 0x3215 JUMP JUMPDEST PUSH2 0x3210 JUMPI PUSH1 0x40 MLOAD PUSH32 0x8C379A000000000000000000000000000000000000000000000000000000000 DUP2 MSTORE PUSH1 0x4 ADD PUSH2 0x3207 SWAP1 PUSH2 0x45EB JUMP JUMPDEST PUSH1 0x40 MLOAD DUP1 SWAP2 SUB SWAP1 REVERT JUMPDEST POP POP POP JUMP JUMPDEST PUSH1 0x0 PUSH2 0x3236 DUP5 PUSH20 0xFFFFFFFFFFFFFFFFFFFFFFFFFFFFFFFFFFFFFFFF AND PUSH2 0x3891 JUMP JUMPDEST ISZERO PUSH2 0x339F JUMPI DUP4 PUSH20 0xFFFFFFFFFFFFFFFFFFFFFFFFFFFFFFFFFFFFFFFF AND PUSH4 0x150B7A02 PUSH2 0x325F PUSH2 0x2823 JUMP JUMPDEST DUP8 DUP7 DUP7 PUSH1 0x40 MLOAD DUP6 PUSH4 0xFFFFFFFF AND PUSH1 0xE0 SHL DUP2 MSTORE PUSH1 0x4 ADD PUSH2 0x3281 SWAP5 SWAP4 SWAP3 SWAP2 SWAP1 PUSH2 0x4520 JUMP JUMPDEST PUSH1 0x20 PUSH1 0x40 MLOAD DUP1 DUP4 SUB DUP2 PUSH1 0x0 DUP8 DUP1 EXTCODESIZE ISZERO DUP1 ISZERO PUSH2 0x329B JUMPI PUSH1 0x0 DUP1 REVERT JUMPDEST POP GAS CALL SWAP3 POP POP POP DUP1 ISZERO PUSH2 0x32CC JUMPI POP PUSH1 0x40 MLOAD RETURNDATASIZE PUSH1 0x1F NOT PUSH1 0x1F DUP3 ADD AND DUP3 ADD DUP1 PUSH1 0x40 MSTORE POP DUP2 ADD SWAP1 PUSH2 0x32C9 SWAP2 SWAP1 PUSH2 0x3E21 JUMP JUMPDEST PUSH1 0x1 JUMPDEST PUSH2 0x334F JUMPI RETURNDATASIZE DUP1 PUSH1 0x0 DUP2 EQ PUSH2 0x32FC JUMPI PUSH1 0x40 MLOAD SWAP2 POP PUSH1 0x1F NOT PUSH1 0x3F RETURNDATASIZE ADD AND DUP3 ADD PUSH1 0x40 MSTORE RETURNDATASIZE DUP3 MSTORE RETURNDATASIZE PUSH1 0x0 PUSH1 0x20 DUP5 ADD RETURNDATACOPY PUSH2 0x3301 JUMP JUMPDEST PUSH1 0x60 SWAP2 POP JUMPDEST POP PUSH1 0x0 DUP2 MLOAD EQ ISZERO PUSH2 0x3347 JUMPI PUSH1 0x40 MLOAD PUSH32 0x8C379A000000000000000000000000000000000000000000000000000000000 DUP2 MSTORE PUSH1 0x4 ADD PUSH2 0x333E SWAP1 PUSH2 0x45EB JUMP JUMPDEST PUSH1 0x40 MLOAD DUP1 SWAP2 SUB SWAP1 REVERT JUMPDEST DUP1 MLOAD DUP2 PUSH1 0x20 ADD REVERT JUMPDEST PUSH4 0x150B7A02 PUSH1 0xE0 SHL PUSH28 0xFFFFFFFFFFFFFFFFFFFFFFFFFFFFFFFFFFFFFFFFFFFFFFFFFFFFFFFF NOT AND DUP2 PUSH28 0xFFFFFFFFFFFFFFFFFFFFFFFFFFFFFFFFFFFFFFFFFFFFFFFFFFFFFFFF NOT AND EQ SWAP2 POP POP PUSH2 0x33A4 JUMP JUMPDEST PUSH1 0x1 SWAP1 POP JUMPDEST SWAP5 SWAP4 POP POP POP POP JUMP JUMPDEST POP POP POP JUMP JUMPDEST PUSH1 0x8 DUP1 SLOAD SWAP1 POP PUSH1 0x9 PUSH1 0x0 DUP4 DUP2 MSTORE PUSH1 0x20 ADD SWAP1 DUP2 MSTORE PUSH1 0x20 ADD PUSH1 0x0 KECCAK256 DUP2 SWAP1 SSTORE POP PUSH1 0x8 DUP2 SWAP1 DUP1 PUSH1 0x1 DUP2 SLOAD ADD DUP1 DUP3 SSTORE DUP1 SWAP2 POP POP PUSH1 0x1 SWAP1 SUB SWAP1 PUSH1 0x0 MSTORE PUSH1 0x20 PUSH1 0x0 KECCAK256 ADD PUSH1 0x0 SWAP1 SWAP2 SWAP1 SWAP2 SWAP1 SWAP2 POP SSTORE POP JUMP JUMPDEST PUSH1 0x0 PUSH1 0x1 PUSH2 0x3407 DUP5 PUSH2 0x1486 JUMP JUMPDEST PUSH2 0x3411 SWAP2 SWAP1 PUSH2 0x4AF0 JUMP JUMPDEST SWAP1 POP PUSH1 0x0 PUSH1 0x7 PUSH1 0x0 DUP5 DUP2 MSTORE PUSH1 0x20 ADD SWAP1 DUP2 MSTORE PUSH1 0x20 ADD PUSH1 0x0 KECCAK256 SLOAD SWAP1 POP DUP2 DUP2 EQ PUSH2 0x34F6 JUMPI PUSH1 0x0 PUSH1 0x6 PUSH1 0x0 DUP7 PUSH20 0xFFFFFFFFFFFFFFFFFFFFFFFFFFFFFFFFFFFFFFFF AND PUSH20 0xFFFFFFFFFFFFFFFFFFFFFFFFFFFFFFFFFFFFFFFF AND DUP2 MSTORE PUSH1 0x20 ADD SWAP1 DUP2 MSTORE PUSH1 0x20 ADD PUSH1 0x0 KECCAK256 PUSH1 0x0 DUP5 DUP2 MSTORE PUSH1 0x20 ADD SWAP1 DUP2 MSTORE PUSH1 0x20 ADD PUSH1 0x0 KECCAK256 SLOAD SWAP1 POP DUP1 PUSH1 0x6 PUSH1 0x0 DUP8 PUSH20 0xFFFFFFFFFFFFFFFFFFFFFFFFFFFFFFFFFFFFFFFF AND PUSH20 0xFFFFFFFFFFFFFFFFFFFFFFFFFFFFFFFFFFFFFFFF AND DUP2 MSTORE PUSH1 0x20 ADD SWAP1 DUP2 MSTORE PUSH1 0x20 ADD PUSH1 0x0 KECCAK256 PUSH1 0x0 DUP5 DUP2 MSTORE PUSH1 0x20 ADD SWAP1 DUP2 MSTORE PUSH1 0x20 ADD PUSH1 0x0 KECCAK256 DUP2 SWAP1 SSTORE POP DUP2 PUSH1 0x7 PUSH1 0x0 DUP4 DUP2 MSTORE PUSH1 0x20 ADD SWAP1 DUP2 MSTORE PUSH1 0x20 ADD PUSH1 0x0 KECCAK256 DUP2 SWAP1 SSTORE POP POP JUMPDEST PUSH1 0x7 PUSH1 0x0 DUP5 DUP2 MSTORE PUSH1 0x20 ADD SWAP1 DUP2 MSTORE PUSH1 0x20 ADD PUSH1 0x0 KECCAK256 PUSH1 0x0 SWAP1 SSTORE PUSH1 0x6 PUSH1 0x0 DUP6 PUSH20 0xFFFFFFFFFFFFFFFFFFFFFFFFFFFFFFFFFFFFFFFF AND PUSH20 0xFFFFFFFFFFFFFFFFFFFFFFFFFFFFFFFFFFFFFFFF AND DUP2 MSTORE PUSH1 0x20 ADD SWAP1 DUP2 MSTORE PUSH1 0x20 ADD PUSH1 0x0 KECCAK256 PUSH1 0x0 DUP4 DUP2 MSTORE PUSH1 0x20 ADD SWAP1 DUP2 MSTORE PUSH1 0x20 ADD PUSH1 0x0 KECCAK256 PUSH1 0x0 SWAP1 SSTORE POP POP POP POP JUMP JUMPDEST PUSH1 0x0 PUSH1 0x1 PUSH1 0x8 DUP1 SLOAD SWAP1 POP PUSH2 0x357B SWAP2 SWAP1 PUSH2 0x4AF0 JUMP JUMPDEST SWAP1 POP PUSH1 0x0 PUSH1 0x9 PUSH1 0x0 DUP5 DUP2 MSTORE PUSH1 0x20 ADD SWAP1 DUP2 MSTORE PUSH1 0x20 ADD PUSH1 0x0 KECCAK256 SLOAD SWAP1 POP PUSH1 0x0 PUSH1 0x8 DUP4 DUP2 SLOAD DUP2 LT PUSH2 0x35AB JUMPI PUSH2 0x35AA PUSH2 0x4D73 JUMP JUMPDEST JUMPDEST SWAP1 PUSH1 0x0 MSTORE PUSH1 0x20 PUSH1 0x0 KECCAK256 ADD SLOAD SWAP1 POP DUP1 PUSH1 0x8 DUP4 DUP2 SLOAD DUP2 LT PUSH2 0x35CD JUMPI PUSH2 0x35CC PUSH2 0x4D73 JUMP JUMPDEST JUMPDEST SWAP1 PUSH1 0x0 MSTORE PUSH1 0x20 PUSH1 0x0 KECCAK256 ADD DUP2 SWAP1 SSTORE POP DUP2 PUSH1 0x9 PUSH1 0x0 DUP4 DUP2 MSTORE PUSH1 0x20 ADD SWAP1 DUP2 MSTORE PUSH1 0x20 ADD PUSH1 0x0 KECCAK256 DUP2 SWAP1 SSTORE POP PUSH1 0x9 PUSH1 0x0 DUP6 DUP2 MSTORE PUSH1 0x20 ADD SWAP1 DUP2 MSTORE PUSH1 0x20 ADD PUSH1 0x0 KECCAK256 PUSH1 0x0 SWAP1 SSTORE PUSH1 0x8 DUP1 SLOAD DUP1 PUSH2 0x361C JUMPI PUSH2 0x361B PUSH2 0x4D44 JUMP JUMPDEST JUMPDEST PUSH1 0x1 SWAP1 SUB DUP2 DUP2 SWAP1 PUSH1 0x0 MSTORE PUSH1 0x20 PUSH1 0x0 KECCAK256 ADD PUSH1 0x0 SWAP1 SSTORE SWAP1 SSTORE POP POP POP POP JUMP JUMPDEST PUSH1 0x0 PUSH2 0x3643 DUP4 PUSH2 0x1486 JUMP JUMPDEST SWAP1 POP DUP2 PUSH1 0x6 PUSH1 0x0 DUP6 PUSH20 0xFFFFFFFFFFFFFFFFFFFFFFFFFFFFFFFFFFFFFFFF AND PUSH20 0xFFFFFFFFFFFFFFFFFFFFFFFFFFFFFFFFFFFFFFFF AND DUP2 MSTORE PUSH1 0x20 ADD SWAP1 DUP2 MSTORE PUSH1 0x20 ADD PUSH1 0x0 KECCAK256 PUSH1 0x0 DUP4 DUP2 MSTORE PUSH1 0x20 ADD SWAP1 DUP2 MSTORE PUSH1 0x20 ADD PUSH1 0x0 KECCAK256 DUP2 SWAP1 SSTORE POP DUP1 PUSH1 0x7 PUSH1 0x0 DUP5 DUP2 MSTORE PUSH1 0x20 ADD SWAP1 DUP2 MSTORE PUSH1 0x20 ADD PUSH1 0x0 KECCAK256 DUP2 SWAP1 SSTORE POP POP POP POP JUMP JUMPDEST PUSH1 0x0 PUSH20 0xFFFFFFFFFFFFFFFFFFFFFFFFFFFFFFFFFFFFFFFF AND DUP3 PUSH20 0xFFFFFFFFFFFFFFFFFFFFFFFFFFFFFFFFFFFFFFFF AND EQ ISZERO PUSH2 0x3727 JUMPI PUSH1 0x40 MLOAD PUSH32 0x8C379A000000000000000000000000000000000000000000000000000000000 DUP2 MSTORE PUSH1 0x4 ADD PUSH2 0x371E SWAP1 PUSH2 0x47CB JUMP JUMPDEST PUSH1 0x40 MLOAD DUP1 SWAP2 SUB SWAP1 REVERT JUMPDEST PUSH2 0x3730 DUP2 PUSH2 0x27B7 JUMP JUMPDEST ISZERO PUSH2 0x3770 JUMPI PUSH1 0x40 MLOAD PUSH32 0x8C379A000000000000000000000000000000000000000000000000000000000 DUP2 MSTORE PUSH1 0x4 ADD PUSH2 0x3767 SWAP1 PUSH2 0x464B JUMP JUMPDEST PUSH1 0x40 MLOAD DUP1 SWAP2 SUB SWAP1 REVERT JUMPDEST PUSH2 0x377C PUSH1 0x0 DUP4 DUP4 PUSH2 0x30A1 JUMP JUMPDEST PUSH1 0x1 PUSH1 0x3 PUSH1 0x0 DUP5 PUSH20 0xFFFFFFFFFFFFFFFFFFFFFFFFFFFFFFFFFFFFFFFF AND PUSH20 0xFFFFFFFFFFFFFFFFFFFFFFFFFFFFFFFFFFFFFFFF AND DUP2 MSTORE PUSH1 0x20 ADD SWAP1 DUP2 MSTORE PUSH1 0x20 ADD PUSH1 0x0 KECCAK256 PUSH1 0x0 DUP3 DUP3 SLOAD PUSH2 0x37CC SWAP2 SWAP1 PUSH2 0x4A69 JUMP JUMPDEST SWAP3 POP POP DUP2 SWAP1 SSTORE POP DUP2 PUSH1 0x2 PUSH1 0x0 DUP4 DUP2 MSTORE PUSH1 0x20 ADD SWAP1 DUP2 MSTORE PUSH1 0x20 ADD PUSH1 0x0 KECCAK256 PUSH1 0x0 PUSH2 0x100 EXP DUP2 SLOAD DUP2 PUSH20 0xFFFFFFFFFFFFFFFFFFFFFFFFFFFFFFFFFFFFFFFF MUL NOT AND SWAP1 DUP4 PUSH20 0xFFFFFFFFFFFFFFFFFFFFFFFFFFFFFFFFFFFFFFFF AND MUL OR SWAP1 SSTORE POP DUP1 DUP3 PUSH20 0xFFFFFFFFFFFFFFFFFFFFFFFFFFFFFFFFFFFFFFFF AND PUSH1 0x0 PUSH20 0xFFFFFFFFFFFFFFFFFFFFFFFFFFFFFFFFFFFFFFFF AND PUSH32 0xDDF252AD1BE2C89B69C2B068FC378DAA952BA7F163C4A11628F55A4DF523B3EF PUSH1 0x40 MLOAD PUSH1 0x40 MLOAD DUP1 SWAP2 SUB SWAP1 LOG4 PUSH2 0x388D PUSH1 0x0 DUP4 DUP4 PUSH2 0x31B5 JUMP JUMPDEST POP POP JUMP JUMPDEST PUSH1 0x0 DUP1 DUP3 PUSH20 0xFFFFFFFFFFFFFFFFFFFFFFFFFFFFFFFFFFFFFFFF AND EXTCODESIZE GT SWAP1 POP SWAP2 SWAP1 POP JUMP JUMPDEST POP DUP1 SLOAD PUSH1 0x0 DUP3 SSTORE SWAP1 PUSH1 0x0 MSTORE PUSH1 0x20 PUSH1 0x0 KECCAK256 SWAP1 DUP2 ADD SWAP1 PUSH2 0x38D2 SWAP2 SWAP1 PUSH2 0x39FB JUMP JUMPDEST POP JUMP JUMPDEST DUP3 DUP1 SLOAD DUP3 DUP3 SSTORE SWAP1 PUSH1 0x0 MSTORE PUSH1 0x20 PUSH1 0x0 KECCAK256 SWAP1 DUP2 ADD SWAP3 DUP3 ISZERO PUSH2 0x3964 JUMPI SWAP2 PUSH1 0x20 MUL DUP3 ADD JUMPDEST DUP3 DUP2 GT ISZERO PUSH2 0x3963 JUMPI DUP3 CALLDATALOAD PUSH20 0xFFFFFFFFFFFFFFFFFFFFFFFFFFFFFFFFFFFFFFFF AND DUP3 PUSH1 0x0 PUSH2 0x100 EXP DUP2 SLOAD DUP2 PUSH20 0xFFFFFFFFFFFFFFFFFFFFFFFFFFFFFFFFFFFFFFFF MUL NOT AND SWAP1 DUP4 PUSH20 0xFFFFFFFFFFFFFFFFFFFFFFFFFFFFFFFFFFFFFFFF AND MUL OR SWAP1 SSTORE POP SWAP2 PUSH1 0x20 ADD SWAP2 SWAP1 PUSH1 0x1 ADD SWAP1 PUSH2 0x38F5 JUMP JUMPDEST JUMPDEST POP SWAP1 POP PUSH2 0x3971 SWAP2 SWAP1 PUSH2 0x39FB JUMP JUMPDEST POP SWAP1 JUMP JUMPDEST DUP3 DUP1 SLOAD PUSH2 0x3981 SWAP1 PUSH2 0x4BDA JUMP JUMPDEST SWAP1 PUSH1 0x0 MSTORE PUSH1 0x20 PUSH1 0x0 KECCAK256 SWAP1 PUSH1 0x1F ADD PUSH1 0x20 SWAP1 DIV DUP2 ADD SWAP3 DUP3 PUSH2 0x39A3 JUMPI PUSH1 0x0 DUP6 SSTORE PUSH2 0x39EA JUMP JUMPDEST DUP3 PUSH1 0x1F LT PUSH2 0x39BC JUMPI DUP1 MLOAD PUSH1 0xFF NOT AND DUP4 DUP1 ADD OR DUP6 SSTORE PUSH2 0x39EA JUMP JUMPDEST DUP3 DUP1 ADD PUSH1 0x1 ADD DUP6 SSTORE DUP3 ISZERO PUSH2 0x39EA JUMPI SWAP2 DUP3 ADD JUMPDEST DUP3 DUP2 GT ISZERO PUSH2 0x39E9 JUMPI DUP3 MLOAD DUP3 SSTORE SWAP2 PUSH1 0x20 ADD SWAP2 SWAP1 PUSH1 0x1 ADD SWAP1 PUSH2 0x39CE JUMP JUMPDEST JUMPDEST POP SWAP1 POP PUSH2 0x39F7 SWAP2 SWAP1 PUSH2 0x39FB JUMP JUMPDEST POP SWAP1 JUMP JUMPDEST JUMPDEST DUP1 DUP3 GT ISZERO PUSH2 0x3A14 JUMPI PUSH1 0x0 DUP2 PUSH1 0x0 SWAP1 SSTORE POP PUSH1 0x1 ADD PUSH2 0x39FC JUMP JUMPDEST POP SWAP1 JUMP JUMPDEST PUSH1 0x0 PUSH2 0x3A2B PUSH2 0x3A26 DUP5 PUSH2 0x496B JUMP JUMPDEST PUSH2 0x4946 JUMP JUMPDEST SWAP1 POP DUP3 DUP2 MSTORE PUSH1 0x20 DUP2 ADD DUP5 DUP5 DUP5 ADD GT ISZERO PUSH2 0x3A47 JUMPI PUSH2 0x3A46 PUSH2 0x4DE0 JUMP JUMPDEST JUMPDEST PUSH2 0x3A52 DUP5 DUP3 DUP6 PUSH2 0x4B98 JUMP JUMPDEST POP SWAP4 SWAP3 POP POP POP JUMP JUMPDEST PUSH1 0x0 PUSH2 0x3A6D PUSH2 0x3A68 DUP5 PUSH2 0x499C JUMP JUMPDEST PUSH2 0x4946 JUMP JUMPDEST SWAP1 POP DUP3 DUP2 MSTORE PUSH1 0x20 DUP2 ADD DUP5 DUP5 DUP5 ADD GT ISZERO PUSH2 0x3A89 JUMPI PUSH2 0x3A88 PUSH2 0x4DE0 JUMP JUMPDEST JUMPDEST PUSH2 0x3A94 DUP5 DUP3 DUP6 PUSH2 0x4B98 JUMP JUMPDEST POP SWAP4 SWAP3 POP POP POP JUMP JUMPDEST PUSH1 0x0 DUP2 CALLDATALOAD SWAP1 POP PUSH2 0x3AAB DUP2 PUSH2 0x5490 JUMP JUMPDEST SWAP3 SWAP2 POP POP JUMP JUMPDEST PUSH1 0x0 DUP1 DUP4 PUSH1 0x1F DUP5 ADD SLT PUSH2 0x3AC7 JUMPI PUSH2 0x3AC6 PUSH2 0x4DD6 JUMP JUMPDEST JUMPDEST DUP3 CALLDATALOAD SWAP1 POP PUSH8 0xFFFFFFFFFFFFFFFF DUP2 GT ISZERO PUSH2 0x3AE4 JUMPI PUSH2 0x3AE3 PUSH2 0x4DD1 JUMP JUMPDEST JUMPDEST PUSH1 0x20 DUP4 ADD SWAP2 POP DUP4 PUSH1 0x20 DUP3 MUL DUP4 ADD GT ISZERO PUSH2 0x3B00 JUMPI PUSH2 0x3AFF PUSH2 0x4DDB JUMP JUMPDEST JUMPDEST SWAP3 POP SWAP3 SWAP1 POP JUMP JUMPDEST PUSH1 0x0 DUP2 CALLDATALOAD SWAP1 POP PUSH2 0x3B16 DUP2 PUSH2 0x54A7 JUMP JUMPDEST SWAP3 SWAP2 POP POP JUMP JUMPDEST PUSH1 0x0 DUP2 CALLDATALOAD SWAP1 POP PUSH2 0x3B2B DUP2 PUSH2 0x54BE JUMP JUMPDEST SWAP3 SWAP2 POP POP JUMP JUMPDEST PUSH1 0x0 DUP2 MLOAD SWAP1 POP PUSH2 0x3B40 DUP2 PUSH2 0x54BE JUMP JUMPDEST SWAP3 SWAP2 POP POP JUMP JUMPDEST PUSH1 0x0 DUP3 PUSH1 0x1F DUP4 ADD SLT PUSH2 0x3B5B JUMPI PUSH2 0x3B5A PUSH2 0x4DD6 JUMP JUMPDEST JUMPDEST DUP2 CALLDATALOAD PUSH2 0x3B6B DUP5 DUP3 PUSH1 0x20 DUP7 ADD PUSH2 0x3A18 JUMP JUMPDEST SWAP2 POP POP SWAP3 SWAP2 POP POP JUMP JUMPDEST PUSH1 0x0 DUP3 PUSH1 0x1F DUP4 ADD SLT PUSH2 0x3B89 JUMPI PUSH2 0x3B88 PUSH2 0x4DD6 JUMP JUMPDEST JUMPDEST DUP2 CALLDATALOAD PUSH2 0x3B99 DUP5 DUP3 PUSH1 0x20 DUP7 ADD PUSH2 0x3A5A JUMP JUMPDEST SWAP2 POP POP SWAP3 SWAP2 POP POP JUMP JUMPDEST PUSH1 0x0 DUP2 CALLDATALOAD SWAP1 POP PUSH2 0x3BB1 DUP2 PUSH2 0x54D5 JUMP JUMPDEST SWAP3 SWAP2 POP POP JUMP JUMPDEST PUSH1 0x0 PUSH1 0x20 DUP3 DUP5 SUB SLT ISZERO PUSH2 0x3BCD JUMPI PUSH2 0x3BCC PUSH2 0x4DEA JUMP JUMPDEST JUMPDEST PUSH1 0x0 PUSH2 0x3BDB DUP5 DUP3 DUP6 ADD PUSH2 0x3A9C JUMP JUMPDEST SWAP2 POP POP SWAP3 SWAP2 POP POP JUMP JUMPDEST PUSH1 0x0 DUP1 PUSH1 0x40 DUP4 DUP6 SUB SLT ISZERO PUSH2 0x3BFB JUMPI PUSH2 0x3BFA PUSH2 0x4DEA JUMP JUMPDEST JUMPDEST PUSH1 0x0 PUSH2 0x3C09 DUP6 DUP3 DUP7 ADD PUSH2 0x3A9C JUMP JUMPDEST SWAP3 POP POP PUSH1 0x20 PUSH2 0x3C1A DUP6 DUP3 DUP7 ADD PUSH2 0x3A9C JUMP JUMPDEST SWAP2 POP POP SWAP3 POP SWAP3 SWAP1 POP JUMP JUMPDEST PUSH1 0x0 DUP1 PUSH1 0x0 PUSH1 0x60 DUP5 DUP7 SUB SLT ISZERO PUSH2 0x3C3D JUMPI PUSH2 0x3C3C PUSH2 0x4DEA JUMP JUMPDEST JUMPDEST PUSH1 0x0 PUSH2 0x3C4B DUP7 DUP3 DUP8 ADD PUSH2 0x3A9C JUMP JUMPDEST SWAP4 POP POP PUSH1 0x20 PUSH2 0x3C5C DUP7 DUP3 DUP8 ADD PUSH2 0x3A9C JUMP JUMPDEST SWAP3 POP POP PUSH1 0x40 PUSH2 0x3C6D DUP7 DUP3 DUP8 ADD PUSH2 0x3BA2 JUMP JUMPDEST SWAP2 POP POP SWAP3 POP SWAP3 POP SWAP3 JUMP JUMPDEST PUSH1 0x0 DUP1 PUSH1 0x0 DUP1 PUSH1 0x80 DUP6 DUP8 SUB SLT ISZERO PUSH2 0x3C91 JUMPI PUSH2 0x3C90 PUSH2 0x4DEA JUMP JUMPDEST JUMPDEST PUSH1 0x0 PUSH2 0x3C9F DUP8 DUP3 DUP9 ADD PUSH2 0x3A9C JUMP JUMPDEST SWAP5 POP POP PUSH1 0x20 PUSH2 0x3CB0 DUP8 DUP3 DUP9 ADD PUSH2 0x3A9C JUMP JUMPDEST SWAP4 POP POP PUSH1 0x40 PUSH2 0x3CC1 DUP8 DUP3 DUP9 ADD PUSH2 0x3BA2 JUMP JUMPDEST SWAP3 POP POP PUSH1 0x60 DUP6 ADD CALLDATALOAD PUSH8 0xFFFFFFFFFFFFFFFF DUP2 GT ISZERO PUSH2 0x3CE2 JUMPI PUSH2 0x3CE1 PUSH2 0x4DE5 JUMP JUMPDEST JUMPDEST PUSH2 0x3CEE DUP8 DUP3 DUP9 ADD PUSH2 0x3B46 JUMP JUMPDEST SWAP2 POP POP SWAP3 SWAP6 SWAP2 SWAP5 POP SWAP3 POP JUMP JUMPDEST PUSH1 0x0 DUP1 PUSH1 0x40 DUP4 DUP6 SUB SLT ISZERO PUSH2 0x3D11 JUMPI PUSH2 0x3D10 PUSH2 0x4DEA JUMP JUMPDEST JUMPDEST PUSH1 0x0 PUSH2 0x3D1F DUP6 DUP3 DUP7 ADD PUSH2 0x3A9C JUMP JUMPDEST SWAP3 POP POP PUSH1 0x20 PUSH2 0x3D30 DUP6 DUP3 DUP7 ADD PUSH2 0x3B07 JUMP JUMPDEST SWAP2 POP POP SWAP3 POP SWAP3 SWAP1 POP JUMP JUMPDEST PUSH1 0x0 DUP1 PUSH1 0x40 DUP4 DUP6 SUB SLT ISZERO PUSH2 0x3D51 JUMPI PUSH2 0x3D50 PUSH2 0x4DEA JUMP JUMPDEST JUMPDEST PUSH1 0x0 PUSH2 0x3D5F DUP6 DUP3 DUP7 ADD PUSH2 0x3A9C JUMP JUMPDEST SWAP3 POP POP PUSH1 0x20 PUSH2 0x3D70 DUP6 DUP3 DUP7 ADD PUSH2 0x3BA2 JUMP JUMPDEST SWAP2 POP POP SWAP3 POP SWAP3 SWAP1 POP JUMP JUMPDEST PUSH1 0x0 DUP1 PUSH1 0x20 DUP4 DUP6 SUB SLT ISZERO PUSH2 0x3D91 JUMPI PUSH2 0x3D90 PUSH2 0x4DEA JUMP JUMPDEST JUMPDEST PUSH1 0x0 DUP4 ADD CALLDATALOAD PUSH8 0xFFFFFFFFFFFFFFFF DUP2 GT ISZERO PUSH2 0x3DAF JUMPI PUSH2 0x3DAE PUSH2 0x4DE5 JUMP JUMPDEST JUMPDEST PUSH2 0x3DBB DUP6 DUP3 DUP7 ADD PUSH2 0x3AB1 JUMP JUMPDEST SWAP3 POP SWAP3 POP POP SWAP3 POP SWAP3 SWAP1 POP JUMP JUMPDEST PUSH1 0x0 PUSH1 0x20 DUP3 DUP5 SUB SLT ISZERO PUSH2 0x3DDD JUMPI PUSH2 0x3DDC PUSH2 0x4DEA JUMP JUMPDEST JUMPDEST PUSH1 0x0 PUSH2 0x3DEB DUP5 DUP3 DUP6 ADD PUSH2 0x3B07 JUMP JUMPDEST SWAP2 POP POP SWAP3 SWAP2 POP POP JUMP JUMPDEST PUSH1 0x0 PUSH1 0x20 DUP3 DUP5 SUB SLT ISZERO PUSH2 0x3E0A JUMPI PUSH2 0x3E09 PUSH2 0x4DEA JUMP JUMPDEST JUMPDEST PUSH1 0x0 PUSH2 0x3E18 DUP5 DUP3 DUP6 ADD PUSH2 0x3B1C JUMP JUMPDEST SWAP2 POP POP SWAP3 SWAP2 POP POP JUMP JUMPDEST PUSH1 0x0 PUSH1 0x20 DUP3 DUP5 SUB SLT ISZERO PUSH2 0x3E37 JUMPI PUSH2 0x3E36 PUSH2 0x4DEA JUMP JUMPDEST JUMPDEST PUSH1 0x0 PUSH2 0x3E45 DUP5 DUP3 DUP6 ADD PUSH2 0x3B31 JUMP JUMPDEST SWAP2 POP POP SWAP3 SWAP2 POP POP JUMP JUMPDEST PUSH1 0x0 PUSH1 0x20 DUP3 DUP5 SUB SLT ISZERO PUSH2 0x3E64 JUMPI PUSH2 0x3E63 PUSH2 0x4DEA JUMP JUMPDEST JUMPDEST PUSH1 0x0 DUP3 ADD CALLDATALOAD PUSH8 0xFFFFFFFFFFFFFFFF DUP2 GT ISZERO PUSH2 0x3E82 JUMPI PUSH2 0x3E81 PUSH2 0x4DE5 JUMP JUMPDEST JUMPDEST PUSH2 0x3E8E DUP5 DUP3 DUP6 ADD PUSH2 0x3B74 JUMP JUMPDEST SWAP2 POP POP SWAP3 SWAP2 POP POP JUMP JUMPDEST PUSH1 0x0 PUSH1 0x20 DUP3 DUP5 SUB SLT ISZERO PUSH2 0x3EAD JUMPI PUSH2 0x3EAC PUSH2 0x4DEA JUMP JUMPDEST JUMPDEST PUSH1 0x0 PUSH2 0x3EBB DUP5 DUP3 DUP6 ADD PUSH2 0x3BA2 JUMP JUMPDEST SWAP2 POP POP SWAP3 SWAP2 POP POP JUMP JUMPDEST PUSH1 0x0 DUP1 PUSH1 0x0 PUSH1 0x60 DUP5 DUP7 SUB SLT ISZERO PUSH2 0x3EDD JUMPI PUSH2 0x3EDC PUSH2 0x4DEA JUMP JUMPDEST JUMPDEST PUSH1 0x0 PUSH2 0x3EEB DUP7 DUP3 DUP8 ADD PUSH2 0x3BA2 JUMP JUMPDEST SWAP4 POP POP PUSH1 0x20 PUSH2 0x3EFC DUP7 DUP3 DUP8 ADD PUSH2 0x3BA2 JUMP JUMPDEST SWAP3 POP POP PUSH1 0x40 PUSH2 0x3F0D DUP7 DUP3 DUP8 ADD PUSH2 0x3BA2 JUMP JUMPDEST SWAP2 POP POP SWAP3 POP SWAP3 POP SWAP3 JUMP JUMPDEST PUSH1 0x0 PUSH2 0x3F23 DUP4 DUP4 PUSH2 0x44A1 JUMP JUMPDEST PUSH1 0x20 DUP4 ADD SWAP1 POP SWAP3 SWAP2 POP POP JUMP JUMPDEST PUSH2 0x3F38 DUP2 PUSH2 0x4B24 JUMP JUMPDEST DUP3 MSTORE POP POP JUMP JUMPDEST PUSH1 0x0 PUSH2 0x3F49 DUP3 PUSH2 0x49F2 JUMP JUMPDEST PUSH2 0x3F53 DUP2 DUP6 PUSH2 0x4A20 JUMP JUMPDEST SWAP4 POP PUSH2 0x3F5E DUP4 PUSH2 0x49CD JUMP JUMPDEST DUP1 PUSH1 0x0 JUMPDEST DUP4 DUP2 LT ISZERO PUSH2 0x3F8F JUMPI DUP2 MLOAD PUSH2 0x3F76 DUP9 DUP3 PUSH2 0x3F17 JUMP JUMPDEST SWAP8 POP PUSH2 0x3F81 DUP4 PUSH2 0x4A13 JUMP JUMPDEST SWAP3 POP POP PUSH1 0x1 DUP2 ADD SWAP1 POP PUSH2 0x3F62 JUMP JUMPDEST POP DUP6 SWAP4 POP POP POP POP SWAP3 SWAP2 POP POP JUMP JUMPDEST PUSH2 0x3FA5 DUP2 PUSH2 0x4B36 JUMP JUMPDEST DUP3 MSTORE POP POP JUMP JUMPDEST PUSH1 0x0 PUSH2 0x3FB6 DUP3 PUSH2 0x49FD JUMP JUMPDEST PUSH2 0x3FC0 DUP2 DUP6 PUSH2 0x4A31 JUMP JUMPDEST SWAP4 POP PUSH2 0x3FD0 DUP2 DUP6 PUSH1 0x20 DUP7 ADD PUSH2 0x4BA7 JUMP JUMPDEST PUSH2 0x3FD9 DUP2 PUSH2 0x4DEF JUMP JUMPDEST DUP5 ADD SWAP2 POP POP SWAP3 SWAP2 POP POP JUMP JUMPDEST PUSH1 0x0 PUSH2 0x3FEF DUP3 PUSH2 0x4A08 JUMP JUMPDEST PUSH2 0x3FF9 DUP2 DUP6 PUSH2 0x4A4D JUMP JUMPDEST SWAP4 POP PUSH2 0x4009 DUP2 DUP6 PUSH1 0x20 DUP7 ADD PUSH2 0x4BA7 JUMP JUMPDEST PUSH2 0x4012 DUP2 PUSH2 0x4DEF JUMP JUMPDEST DUP5 ADD SWAP2 POP POP SWAP3 SWAP2 POP POP JUMP JUMPDEST PUSH1 0x0 PUSH2 0x4028 DUP3 PUSH2 0x4A08 JUMP JUMPDEST PUSH2 0x4032 DUP2 DUP6 PUSH2 0x4A5E JUMP JUMPDEST SWAP4 POP PUSH2 0x4042 DUP2 DUP6 PUSH1 0x20 DUP7 ADD PUSH2 0x4BA7 JUMP JUMPDEST DUP1 DUP5 ADD SWAP2 POP POP SWAP3 SWAP2 POP POP JUMP JUMPDEST PUSH1 0x0 DUP2 SLOAD PUSH2 0x405B DUP2 PUSH2 0x4BDA JUMP JUMPDEST PUSH2 0x4065 DUP2 DUP7 PUSH2 0x4A5E JUMP JUMPDEST SWAP5 POP PUSH1 0x1 DUP3 AND PUSH1 0x0 DUP2 EQ PUSH2 0x4080 JUMPI PUSH1 0x1 DUP2 EQ PUSH2 0x4091 JUMPI PUSH2 0x40C4 JUMP JUMPDEST PUSH1 0xFF NOT DUP4 AND DUP7 MSTORE DUP2 DUP7 ADD SWAP4 POP PUSH2 0x40C4 JUMP JUMPDEST PUSH2 0x409A DUP6 PUSH2 0x49DD JUMP JUMPDEST PUSH1 0x0 JUMPDEST DUP4 DUP2 LT ISZERO PUSH2 0x40BC JUMPI DUP2 SLOAD DUP2 DUP10 ADD MSTORE PUSH1 0x1 DUP3 ADD SWAP2 POP PUSH1 0x20 DUP2 ADD SWAP1 POP PUSH2 0x409D JUMP JUMPDEST DUP4 DUP9 ADD SWAP6 POP POP POP JUMPDEST POP POP POP SWAP3 SWAP2 POP POP JUMP JUMPDEST PUSH1 0x0 PUSH2 0x40DA PUSH1 0x2B DUP4 PUSH2 0x4A4D JUMP JUMPDEST SWAP2 POP PUSH2 0x40E5 DUP3 PUSH2 0x4E00 JUMP JUMPDEST PUSH1 0x40 DUP3 ADD SWAP1 POP SWAP2 SWAP1 POP JUMP JUMPDEST PUSH1 0x0 PUSH2 0x40FD PUSH1 0x32 DUP4 PUSH2 0x4A4D JUMP JUMPDEST SWAP2 POP PUSH2 0x4108 DUP3 PUSH2 0x4E4F JUMP JUMPDEST PUSH1 0x40 DUP3 ADD SWAP1 POP SWAP2 SWAP1 POP JUMP JUMPDEST PUSH1 0x0 PUSH2 0x4120 PUSH1 0x26 DUP4 PUSH2 0x4A4D JUMP JUMPDEST SWAP2 POP PUSH2 0x412B DUP3 PUSH2 0x4E9E JUMP JUMPDEST PUSH1 0x40 DUP3 ADD SWAP1 POP SWAP2 SWAP1 POP JUMP JUMPDEST PUSH1 0x0 PUSH2 0x4143 PUSH1 0x25 DUP4 PUSH2 0x4A4D JUMP JUMPDEST SWAP2 POP PUSH2 0x414E DUP3 PUSH2 0x4EED JUMP JUMPDEST PUSH1 0x40 DUP3 ADD SWAP1 POP SWAP2 SWAP1 POP JUMP JUMPDEST PUSH1 0x0 PUSH2 0x4166 PUSH1 0x1C DUP4 PUSH2 0x4A4D JUMP JUMPDEST SWAP2 POP PUSH2 0x4171 DUP3 PUSH2 0x4F3C JUMP JUMPDEST PUSH1 0x20 DUP3 ADD SWAP1 POP SWAP2 SWAP1 POP JUMP JUMPDEST PUSH1 0x0 PUSH2 0x4189 PUSH1 0x12 DUP4 PUSH2 0x4A4D JUMP JUMPDEST SWAP2 POP PUSH2 0x4194 DUP3 PUSH2 0x4F65 JUMP JUMPDEST PUSH1 0x20 DUP3 ADD SWAP1 POP SWAP2 SWAP1 POP JUMP JUMPDEST PUSH1 0x0 PUSH2 0x41AC PUSH1 0x1E DUP4 PUSH2 0x4A4D JUMP JUMPDEST SWAP2 POP PUSH2 0x41B7 DUP3 PUSH2 0x4F8E JUMP JUMPDEST PUSH1 0x20 DUP3 ADD SWAP1 POP SWAP2 SWAP1 POP JUMP JUMPDEST PUSH1 0x0 PUSH2 0x41CF PUSH1 0x24 DUP4 PUSH2 0x4A4D JUMP JUMPDEST SWAP2 POP PUSH2 0x41DA DUP3 PUSH2 0x4FB7 JUMP JUMPDEST PUSH1 0x40 DUP3 ADD SWAP1 POP SWAP2 SWAP1 POP JUMP JUMPDEST PUSH1 0x0 PUSH2 0x41F2 PUSH1 0x19 DUP4 PUSH2 0x4A4D JUMP JUMPDEST SWAP2 POP PUSH2 0x41FD DUP3 PUSH2 0x5006 JUMP JUMPDEST PUSH1 0x20 DUP3 ADD SWAP1 POP SWAP2 SWAP1 POP JUMP JUMPDEST PUSH1 0x0 PUSH2 0x4215 PUSH1 0x16 DUP4 PUSH2 0x4A4D JUMP JUMPDEST SWAP2 POP PUSH2 0x4220 DUP3 PUSH2 0x502F JUMP JUMPDEST PUSH1 0x20 DUP3 ADD SWAP1 POP SWAP2 SWAP1 POP JUMP JUMPDEST PUSH1 0x0 PUSH2 0x4238 PUSH1 0x2C DUP4 PUSH2 0x4A4D JUMP JUMPDEST SWAP2 POP PUSH2 0x4243 DUP3 PUSH2 0x5058 JUMP JUMPDEST PUSH1 0x40 DUP3 ADD SWAP1 POP SWAP2 SWAP1 POP JUMP JUMPDEST PUSH1 0x0 PUSH2 0x425B PUSH1 0x1B DUP4 PUSH2 0x4A4D JUMP JUMPDEST SWAP2 POP PUSH2 0x4266 DUP3 PUSH2 0x50A7 JUMP JUMPDEST PUSH1 0x20 DUP3 ADD SWAP1 POP SWAP2 SWAP1 POP JUMP JUMPDEST PUSH1 0x0 PUSH2 0x427E PUSH1 0x38 DUP4 PUSH2 0x4A4D JUMP JUMPDEST SWAP2 POP PUSH2 0x4289 DUP3 PUSH2 0x50D0 JUMP JUMPDEST PUSH1 0x40 DUP3 ADD SWAP1 POP SWAP2 SWAP1 POP JUMP JUMPDEST PUSH1 0x0 PUSH2 0x42A1 PUSH1 0x2A DUP4 PUSH2 0x4A4D JUMP JUMPDEST SWAP2 POP PUSH2 0x42AC DUP3 PUSH2 0x511F JUMP JUMPDEST PUSH1 0x40 DUP3 ADD SWAP1 POP SWAP2 SWAP1 POP JUMP JUMPDEST PUSH1 0x0 PUSH2 0x42C4 PUSH1 0x29 DUP4 PUSH2 0x4A4D JUMP JUMPDEST SWAP2 POP PUSH2 0x42CF DUP3 PUSH2 0x516E JUMP JUMPDEST PUSH1 0x40 DUP3 ADD SWAP1 POP SWAP2 SWAP1 POP JUMP JUMPDEST PUSH1 0x0 PUSH2 0x42E7 PUSH1 0x1F DUP4 PUSH2 0x4A4D JUMP JUMPDEST SWAP2 POP PUSH2 0x42F2 DUP3 PUSH2 0x51BD JUMP JUMPDEST PUSH1 0x20 DUP3 ADD SWAP1 POP SWAP2 SWAP1 POP JUMP JUMPDEST PUSH1 0x0 PUSH2 0x430A PUSH1 0x20 DUP4 PUSH2 0x4A4D JUMP JUMPDEST SWAP2 POP PUSH2 0x4315 DUP3 PUSH2 0x51E6 JUMP JUMPDEST PUSH1 0x20 DUP3 ADD SWAP1 POP SWAP2 SWAP1 POP JUMP JUMPDEST PUSH1 0x0 PUSH2 0x432D PUSH1 0x2C DUP4 PUSH2 0x4A4D JUMP JUMPDEST SWAP2 POP PUSH2 0x4338 DUP3 PUSH2 0x520F JUMP JUMPDEST PUSH1 0x40 DUP3 ADD SWAP1 POP SWAP2 SWAP1 POP JUMP JUMPDEST PUSH1 0x0 PUSH2 0x4350 PUSH1 0x20 DUP4 PUSH2 0x4A4D JUMP JUMPDEST SWAP2 POP PUSH2 0x435B DUP3 PUSH2 0x525E JUMP JUMPDEST PUSH1 0x20 DUP3 ADD SWAP1 POP SWAP2 SWAP1 POP JUMP JUMPDEST PUSH1 0x0 PUSH2 0x4373 PUSH1 0x2F DUP4 PUSH2 0x4A4D JUMP JUMPDEST SWAP2 POP PUSH2 0x437E DUP3 PUSH2 0x5287 JUMP JUMPDEST PUSH1 0x40 DUP3 ADD SWAP1 POP SWAP2 SWAP1 POP JUMP JUMPDEST PUSH1 0x0 PUSH2 0x4396 PUSH1 0x1C DUP4 PUSH2 0x4A4D JUMP JUMPDEST SWAP2 POP PUSH2 0x43A1 DUP3 PUSH2 0x52D6 JUMP JUMPDEST PUSH1 0x20 DUP3 ADD SWAP1 POP SWAP2 SWAP1 POP JUMP JUMPDEST PUSH1 0x0 PUSH2 0x43B9 PUSH1 0x21 DUP4 PUSH2 0x4A4D JUMP JUMPDEST SWAP2 POP PUSH2 0x43C4 DUP3 PUSH2 0x52FF JUMP JUMPDEST PUSH1 0x40 DUP3 ADD SWAP1 POP SWAP2 SWAP1 POP JUMP JUMPDEST PUSH1 0x0 PUSH2 0x43DC PUSH1 0x22 DUP4 PUSH2 0x4A4D JUMP JUMPDEST SWAP2 POP PUSH2 0x43E7 DUP3 PUSH2 0x534E JUMP JUMPDEST PUSH1 0x40 DUP3 ADD SWAP1 POP SWAP2 SWAP1 POP JUMP JUMPDEST PUSH1 0x0 PUSH2 0x43FF PUSH1 0x0 DUP4 PUSH2 0x4A42 JUMP JUMPDEST SWAP2 POP PUSH2 0x440A DUP3 PUSH2 0x539D JUMP JUMPDEST PUSH1 0x0 DUP3 ADD SWAP1 POP SWAP2 SWAP1 POP JUMP JUMPDEST PUSH1 0x0 PUSH2 0x4422 PUSH1 0x31 DUP4 PUSH2 0x4A4D JUMP JUMPDEST SWAP2 POP PUSH2 0x442D DUP3 PUSH2 0x53A0 JUMP JUMPDEST PUSH1 0x40 DUP3 ADD SWAP1 POP SWAP2 SWAP1 POP JUMP JUMPDEST PUSH1 0x0 PUSH2 0x4445 PUSH1 0x2C DUP4 PUSH2 0x4A4D JUMP JUMPDEST SWAP2 POP PUSH2 0x4450 DUP3 PUSH2 0x53EF JUMP JUMPDEST PUSH1 0x40 DUP3 ADD SWAP1 POP SWAP2 SWAP1 POP JUMP JUMPDEST PUSH1 0x0 PUSH2 0x4468 PUSH1 0xF DUP4 PUSH2 0x4A4D JUMP JUMPDEST SWAP2 POP PUSH2 0x4473 DUP3 PUSH2 0x543E JUMP JUMPDEST PUSH1 0x20 DUP3 ADD SWAP1 POP SWAP2 SWAP1 POP JUMP JUMPDEST PUSH1 0x0 PUSH2 0x448B PUSH1 0x17 DUP4 PUSH2 0x4A4D JUMP JUMPDEST SWAP2 POP PUSH2 0x4496 DUP3 PUSH2 0x5467 JUMP JUMPDEST PUSH1 0x20 DUP3 ADD SWAP1 POP SWAP2 SWAP1 POP JUMP JUMPDEST PUSH2 0x44AA DUP2 PUSH2 0x4B8E JUMP JUMPDEST DUP3 MSTORE POP POP JUMP JUMPDEST PUSH2 0x44B9 DUP2 PUSH2 0x4B8E JUMP JUMPDEST DUP3 MSTORE POP POP JUMP JUMPDEST PUSH1 0x0 PUSH2 0x44CB DUP3 DUP7 PUSH2 0x401D JUMP JUMPDEST SWAP2 POP PUSH2 0x44D7 DUP3 DUP6 PUSH2 0x401D JUMP JUMPDEST SWAP2 POP PUSH2 0x44E3 DUP3 DUP5 PUSH2 0x404E JUMP JUMPDEST SWAP2 POP DUP2 SWAP1 POP SWAP5 SWAP4 POP POP POP POP JUMP JUMPDEST PUSH1 0x0 PUSH2 0x44FB DUP3 PUSH2 0x43F2 JUMP JUMPDEST SWAP2 POP DUP2 SWAP1 POP SWAP2 SWAP1 POP JUMP JUMPDEST PUSH1 0x0 PUSH1 0x20 DUP3 ADD SWAP1 POP PUSH2 0x451A PUSH1 0x0 DUP4 ADD DUP5 PUSH2 0x3F2F JUMP JUMPDEST SWAP3 SWAP2 POP POP JUMP JUMPDEST PUSH1 0x0 PUSH1 0x80 DUP3 ADD SWAP1 POP PUSH2 0x4535 PUSH1 0x0 DUP4 ADD DUP8 PUSH2 0x3F2F JUMP JUMPDEST PUSH2 0x4542 PUSH1 0x20 DUP4 ADD DUP7 PUSH2 0x3F2F JUMP JUMPDEST PUSH2 0x454F PUSH1 0x40 DUP4 ADD DUP6 PUSH2 0x44B0 JUMP JUMPDEST DUP2 DUP2 SUB PUSH1 0x60 DUP4 ADD MSTORE PUSH2 0x4561 DUP2 DUP5 PUSH2 0x3FAB JUMP JUMPDEST SWAP1 POP SWAP6 SWAP5 POP POP POP POP POP JUMP JUMPDEST PUSH1 0x0 PUSH1 0x20 DUP3 ADD SWAP1 POP DUP2 DUP2 SUB PUSH1 0x0 DUP4 ADD MSTORE PUSH2 0x4586 DUP2 DUP5 PUSH2 0x3F3E JUMP JUMPDEST SWAP1 POP SWAP3 SWAP2 POP POP JUMP JUMPDEST PUSH1 0x0 PUSH1 0x20 DUP3 ADD SWAP1 POP PUSH2 0x45A3 PUSH1 0x0 DUP4 ADD DUP5 PUSH2 0x3F9C JUMP JUMPDEST SWAP3 SWAP2 POP POP JUMP JUMPDEST PUSH1 0x0 PUSH1 0x20 DUP3 ADD SWAP1 POP DUP2 DUP2 SUB PUSH1 0x0 DUP4 ADD MSTORE PUSH2 0x45C3 DUP2 DUP5 PUSH2 0x3FE4 JUMP JUMPDEST SWAP1 POP SWAP3 SWAP2 POP POP JUMP JUMPDEST PUSH1 0x0 PUSH1 0x20 DUP3 ADD SWAP1 POP DUP2 DUP2 SUB PUSH1 0x0 DUP4 ADD MSTORE PUSH2 0x45E4 DUP2 PUSH2 0x40CD JUMP JUMPDEST SWAP1 POP SWAP2 SWAP1 POP JUMP JUMPDEST PUSH1 0x0 PUSH1 0x20 DUP3 ADD SWAP1 POP DUP2 DUP2 SUB PUSH1 0x0 DUP4 ADD MSTORE PUSH2 0x4604 DUP2 PUSH2 0x40F0 JUMP JUMPDEST SWAP1 POP SWAP2 SWAP1 POP JUMP JUMPDEST PUSH1 0x0 PUSH1 0x20 DUP3 ADD SWAP1 POP DUP2 DUP2 SUB PUSH1 0x0 DUP4 ADD MSTORE PUSH2 0x4624 DUP2 PUSH2 0x4113 JUMP JUMPDEST SWAP1 POP SWAP2 SWAP1 POP JUMP JUMPDEST PUSH1 0x0 PUSH1 0x20 DUP3 ADD SWAP1 POP DUP2 DUP2 SUB PUSH1 0x0 DUP4 ADD MSTORE PUSH2 0x4644 DUP2 PUSH2 0x4136 JUMP JUMPDEST SWAP1 POP SWAP2 SWAP1 POP JUMP JUMPDEST PUSH1 0x0 PUSH1 0x20 DUP3 ADD SWAP1 POP DUP2 DUP2 SUB PUSH1 0x0 DUP4 ADD MSTORE PUSH2 0x4664 DUP2 PUSH2 0x4159 JUMP JUMPDEST SWAP1 POP SWAP2 SWAP1 POP JUMP JUMPDEST PUSH1 0x0 PUSH1 0x20 DUP3 ADD SWAP1 POP DUP2 DUP2 SUB PUSH1 0x0 DUP4 ADD MSTORE PUSH2 0x4684 DUP2 PUSH2 0x417C JUMP JUMPDEST SWAP1 POP SWAP2 SWAP1 POP JUMP JUMPDEST PUSH1 0x0 PUSH1 0x20 DUP3 ADD SWAP1 POP DUP2 DUP2 SUB PUSH1 0x0 DUP4 ADD MSTORE PUSH2 0x46A4 DUP2 PUSH2 0x419F JUMP JUMPDEST SWAP1 POP SWAP2 SWAP1 POP JUMP JUMPDEST PUSH1 0x0 PUSH1 0x20 DUP3 ADD SWAP1 POP DUP2 DUP2 SUB PUSH1 0x0 DUP4 ADD MSTORE PUSH2 0x46C4 DUP2 PUSH2 0x41C2 JUMP JUMPDEST SWAP1 POP SWAP2 SWAP1 POP JUMP JUMPDEST PUSH1 0x0 PUSH1 0x20 DUP3 ADD SWAP1 POP DUP2 DUP2 SUB PUSH1 0x0 DUP4 ADD MSTORE PUSH2 0x46E4 DUP2 PUSH2 0x41E5 JUMP JUMPDEST SWAP1 POP SWAP2 SWAP1 POP JUMP JUMPDEST PUSH1 0x0 PUSH1 0x20 DUP3 ADD SWAP1 POP DUP2 DUP2 SUB PUSH1 0x0 DUP4 ADD MSTORE PUSH2 0x4704 DUP2 PUSH2 0x4208 JUMP JUMPDEST SWAP1 POP SWAP2 SWAP1 POP JUMP JUMPDEST PUSH1 0x0 PUSH1 0x20 DUP3 ADD SWAP1 POP DUP2 DUP2 SUB PUSH1 0x0 DUP4 ADD MSTORE PUSH2 0x4724 DUP2 PUSH2 0x422B JUMP JUMPDEST SWAP1 POP SWAP2 SWAP1 POP JUMP JUMPDEST PUSH1 0x0 PUSH1 0x20 DUP3 ADD SWAP1 POP DUP2 DUP2 SUB PUSH1 0x0 DUP4 ADD MSTORE PUSH2 0x4744 DUP2 PUSH2 0x424E JUMP JUMPDEST SWAP1 POP SWAP2 SWAP1 POP JUMP JUMPDEST PUSH1 0x0 PUSH1 0x20 DUP3 ADD SWAP1 POP DUP2 DUP2 SUB PUSH1 0x0 DUP4 ADD MSTORE PUSH2 0x4764 DUP2 PUSH2 0x4271 JUMP JUMPDEST SWAP1 POP SWAP2 SWAP1 POP JUMP JUMPDEST PUSH1 0x0 PUSH1 0x20 DUP3 ADD SWAP1 POP DUP2 DUP2 SUB PUSH1 0x0 DUP4 ADD MSTORE PUSH2 0x4784 DUP2 PUSH2 0x4294 JUMP JUMPDEST SWAP1 POP SWAP2 SWAP1 POP JUMP JUMPDEST PUSH1 0x0 PUSH1 0x20 DUP3 ADD SWAP1 POP DUP2 DUP2 SUB PUSH1 0x0 DUP4 ADD MSTORE PUSH2 0x47A4 DUP2 PUSH2 0x42B7 JUMP JUMPDEST SWAP1 POP SWAP2 SWAP1 POP JUMP JUMPDEST PUSH1 0x0 PUSH1 0x20 DUP3 ADD SWAP1 POP DUP2 DUP2 SUB PUSH1 0x0 DUP4 ADD MSTORE PUSH2 0x47C4 DUP2 PUSH2 0x42DA JUMP JUMPDEST SWAP1 POP SWAP2 SWAP1 POP JUMP JUMPDEST PUSH1 0x0 PUSH1 0x20 DUP3 ADD SWAP1 POP DUP2 DUP2 SUB PUSH1 0x0 DUP4 ADD MSTORE PUSH2 0x47E4 DUP2 PUSH2 0x42FD JUMP JUMPDEST SWAP1 POP SWAP2 SWAP1 POP JUMP JUMPDEST PUSH1 0x0 PUSH1 0x20 DUP3 ADD SWAP1 POP DUP2 DUP2 SUB PUSH1 0x0 DUP4 ADD MSTORE PUSH2 0x4804 DUP2 PUSH2 0x4320 JUMP JUMPDEST SWAP1 POP SWAP2 SWAP1 POP JUMP JUMPDEST PUSH1 0x0 PUSH1 0x20 DUP3 ADD SWAP1 POP DUP2 DUP2 SUB PUSH1 0x0 DUP4 ADD MSTORE PUSH2 0x4824 DUP2 PUSH2 0x4343 JUMP JUMPDEST SWAP1 POP SWAP2 SWAP1 POP JUMP JUMPDEST PUSH1 0x0 PUSH1 0x20 DUP3 ADD SWAP1 POP DUP2 DUP2 SUB PUSH1 0x0 DUP4 ADD MSTORE PUSH2 0x4844 DUP2 PUSH2 0x4366 JUMP JUMPDEST SWAP1 POP SWAP2 SWAP1 POP JUMP JUMPDEST PUSH1 0x0 PUSH1 0x20 DUP3 ADD SWAP1 POP DUP2 DUP2 SUB PUSH1 0x0 DUP4 ADD MSTORE PUSH2 0x4864 DUP2 PUSH2 0x4389 JUMP JUMPDEST SWAP1 POP SWAP2 SWAP1 POP JUMP JUMPDEST PUSH1 0x0 PUSH1 0x20 DUP3 ADD SWAP1 POP DUP2 DUP2 SUB PUSH1 0x0 DUP4 ADD MSTORE PUSH2 0x4884 DUP2 PUSH2 0x43AC JUMP JUMPDEST SWAP1 POP SWAP2 SWAP1 POP JUMP JUMPDEST PUSH1 0x0 PUSH1 0x20 DUP3 ADD SWAP1 POP DUP2 DUP2 SUB PUSH1 0x0 DUP4 ADD MSTORE PUSH2 0x48A4 DUP2 PUSH2 0x43CF JUMP JUMPDEST SWAP1 POP SWAP2 SWAP1 POP JUMP JUMPDEST PUSH1 0x0 PUSH1 0x20 DUP3 ADD SWAP1 POP DUP2 DUP2 SUB PUSH1 0x0 DUP4 ADD MSTORE PUSH2 0x48C4 DUP2 PUSH2 0x4415 JUMP JUMPDEST SWAP1 POP SWAP2 SWAP1 POP JUMP JUMPDEST PUSH1 0x0 PUSH1 0x20 DUP3 ADD SWAP1 POP DUP2 DUP2 SUB PUSH1 0x0 DUP4 ADD MSTORE PUSH2 0x48E4 DUP2 PUSH2 0x4438 JUMP JUMPDEST SWAP1 POP SWAP2 SWAP1 POP JUMP JUMPDEST PUSH1 0x0 PUSH1 0x20 DUP3 ADD SWAP1 POP DUP2 DUP2 SUB PUSH1 0x0 DUP4 ADD MSTORE PUSH2 0x4904 DUP2 PUSH2 0x445B JUMP JUMPDEST SWAP1 POP SWAP2 SWAP1 POP JUMP JUMPDEST PUSH1 0x0 PUSH1 0x20 DUP3 ADD SWAP1 POP DUP2 DUP2 SUB PUSH1 0x0 DUP4 ADD MSTORE PUSH2 0x4924 DUP2 PUSH2 0x447E JUMP JUMPDEST SWAP1 POP SWAP2 SWAP1 POP JUMP JUMPDEST PUSH1 0x0 PUSH1 0x20 DUP3 ADD SWAP1 POP PUSH2 0x4940 PUSH1 0x0 DUP4 ADD DUP5 PUSH2 0x44B0 JUMP JUMPDEST SWAP3 SWAP2 POP POP JUMP JUMPDEST PUSH1 0x0 PUSH2 0x4950 PUSH2 0x4961 JUMP JUMPDEST SWAP1 POP PUSH2 0x495C DUP3 DUP3 PUSH2 0x4C0C JUMP JUMPDEST SWAP2 SWAP1 POP JUMP JUMPDEST PUSH1 0x0 PUSH1 0x40 MLOAD SWAP1 POP SWAP1 JUMP JUMPDEST PUSH1 0x0 PUSH8 0xFFFFFFFFFFFFFFFF DUP3 GT ISZERO PUSH2 0x4986 JUMPI PUSH2 0x4985 PUSH2 0x4DA2 JUMP JUMPDEST JUMPDEST PUSH2 0x498F DUP3 PUSH2 0x4DEF JUMP JUMPDEST SWAP1 POP PUSH1 0x20 DUP2 ADD SWAP1 POP SWAP2 SWAP1 POP JUMP JUMPDEST PUSH1 0x0 PUSH8 0xFFFFFFFFFFFFFFFF DUP3 GT ISZERO PUSH2 0x49B7 JUMPI PUSH2 0x49B6 PUSH2 0x4DA2 JUMP JUMPDEST JUMPDEST PUSH2 0x49C0 DUP3 PUSH2 0x4DEF JUMP JUMPDEST SWAP1 POP PUSH1 0x20 DUP2 ADD SWAP1 POP SWAP2 SWAP1 POP JUMP JUMPDEST PUSH1 0x0 DUP2 SWAP1 POP PUSH1 0x20 DUP3 ADD SWAP1 POP SWAP2 SWAP1 POP JUMP JUMPDEST PUSH1 0x0 DUP2 SWAP1 POP DUP2 PUSH1 0x0 MSTORE PUSH1 0x20 PUSH1 0x0 KECCAK256 SWAP1 POP SWAP2 SWAP1 POP JUMP JUMPDEST PUSH1 0x0 DUP2 MLOAD SWAP1 POP SWAP2 SWAP1 POP JUMP JUMPDEST PUSH1 0x0 DUP2 MLOAD SWAP1 POP SWAP2 SWAP1 POP JUMP JUMPDEST PUSH1 0x0 DUP2 MLOAD SWAP1 POP SWAP2 SWAP1 POP JUMP JUMPDEST PUSH1 0x0 PUSH1 0x20 DUP3 ADD SWAP1 POP SWAP2 SWAP1 POP JUMP JUMPDEST PUSH1 0x0 DUP3 DUP3 MSTORE PUSH1 0x20 DUP3 ADD SWAP1 POP SWAP3 SWAP2 POP POP JUMP JUMPDEST PUSH1 0x0 DUP3 DUP3 MSTORE PUSH1 0x20 DUP3 ADD SWAP1 POP SWAP3 SWAP2 POP POP JUMP JUMPDEST PUSH1 0x0 DUP2 SWAP1 POP SWAP3 SWAP2 POP POP JUMP JUMPDEST PUSH1 0x0 DUP3 DUP3 MSTORE PUSH1 0x20 DUP3 ADD SWAP1 POP SWAP3 SWAP2 POP POP JUMP JUMPDEST PUSH1 0x0 DUP2 SWAP1 POP SWAP3 SWAP2 POP POP JUMP JUMPDEST PUSH1 0x0 PUSH2 0x4A74 DUP3 PUSH2 0x4B8E JUMP JUMPDEST SWAP2 POP PUSH2 0x4A7F DUP4 PUSH2 0x4B8E JUMP JUMPDEST SWAP3 POP DUP3 PUSH32 0xFFFFFFFFFFFFFFFFFFFFFFFFFFFFFFFFFFFFFFFFFFFFFFFFFFFFFFFFFFFFFFFF SUB DUP3 GT ISZERO PUSH2 0x4AB4 JUMPI PUSH2 0x4AB3 PUSH2 0x4CB7 JUMP JUMPDEST JUMPDEST DUP3 DUP3 ADD SWAP1 POP SWAP3 SWAP2 POP POP JUMP JUMPDEST PUSH1 0x0 PUSH2 0x4ACA DUP3 PUSH2 0x4B8E JUMP JUMPDEST SWAP2 POP PUSH2 0x4AD5 DUP4 PUSH2 0x4B8E JUMP JUMPDEST SWAP3 POP DUP3 PUSH2 0x4AE5 JUMPI PUSH2 0x4AE4 PUSH2 0x4CE6 JUMP JUMPDEST JUMPDEST DUP3 DUP3 DIV SWAP1 POP SWAP3 SWAP2 POP POP JUMP JUMPDEST PUSH1 0x0 PUSH2 0x4AFB DUP3 PUSH2 0x4B8E JUMP JUMPDEST SWAP2 POP PUSH2 0x4B06 DUP4 PUSH2 0x4B8E JUMP JUMPDEST SWAP3 POP DUP3 DUP3 LT ISZERO PUSH2 0x4B19 JUMPI PUSH2 0x4B18 PUSH2 0x4CB7 JUMP JUMPDEST JUMPDEST DUP3 DUP3 SUB SWAP1 POP SWAP3 SWAP2 POP POP JUMP JUMPDEST PUSH1 0x0 PUSH2 0x4B2F DUP3 PUSH2 0x4B6E JUMP JUMPDEST SWAP1 POP SWAP2 SWAP1 POP JUMP JUMPDEST PUSH1 0x0 DUP2 ISZERO ISZERO SWAP1 POP SWAP2 SWAP1 POP JUMP JUMPDEST PUSH1 0x0 PUSH32 0xFFFFFFFF00000000000000000000000000000000000000000000000000000000 DUP3 AND SWAP1 POP SWAP2 SWAP1 POP JUMP JUMPDEST PUSH1 0x0 PUSH20 0xFFFFFFFFFFFFFFFFFFFFFFFFFFFFFFFFFFFFFFFF DUP3 AND SWAP1 POP SWAP2 SWAP1 POP JUMP JUMPDEST PUSH1 0x0 DUP2 SWAP1 POP SWAP2 SWAP1 POP JUMP JUMPDEST DUP3 DUP2 DUP4 CALLDATACOPY PUSH1 0x0 DUP4 DUP4 ADD MSTORE POP POP POP JUMP JUMPDEST PUSH1 0x0 JUMPDEST DUP4 DUP2 LT ISZERO PUSH2 0x4BC5 JUMPI DUP1 DUP3 ADD MLOAD DUP2 DUP5 ADD MSTORE PUSH1 0x20 DUP2 ADD SWAP1 POP PUSH2 0x4BAA JUMP JUMPDEST DUP4 DUP2 GT ISZERO PUSH2 0x4BD4 JUMPI PUSH1 0x0 DUP5 DUP5 ADD MSTORE JUMPDEST POP POP POP POP JUMP JUMPDEST PUSH1 0x0 PUSH1 0x2 DUP3 DIV SWAP1 POP PUSH1 0x1 DUP3 AND DUP1 PUSH2 0x4BF2 JUMPI PUSH1 0x7F DUP3 AND SWAP2 POP JUMPDEST PUSH1 0x20 DUP3 LT DUP2 EQ ISZERO PUSH2 0x4C06 JUMPI PUSH2 0x4C05 PUSH2 0x4D15 JUMP JUMPDEST JUMPDEST POP SWAP2 SWAP1 POP JUMP JUMPDEST PUSH2 0x4C15 DUP3 PUSH2 0x4DEF JUMP JUMPDEST DUP2 ADD DUP2 DUP2 LT PUSH8 0xFFFFFFFFFFFFFFFF DUP3 GT OR ISZERO PUSH2 0x4C34 JUMPI PUSH2 0x4C33 PUSH2 0x4DA2 JUMP JUMPDEST JUMPDEST DUP1 PUSH1 0x40 MSTORE POP POP POP JUMP JUMPDEST PUSH1 0x0 PUSH2 0x4C48 DUP3 PUSH2 0x4B8E JUMP JUMPDEST SWAP2 POP PUSH32 0xFFFFFFFFFFFFFFFFFFFFFFFFFFFFFFFFFFFFFFFFFFFFFFFFFFFFFFFFFFFFFFFF DUP3 EQ ISZERO PUSH2 0x4C7B JUMPI PUSH2 0x4C7A PUSH2 0x4CB7 JUMP JUMPDEST JUMPDEST PUSH1 0x1 DUP3 ADD SWAP1 POP SWAP2 SWAP1 POP JUMP JUMPDEST PUSH1 0x0 PUSH2 0x4C91 DUP3 PUSH2 0x4B8E JUMP JUMPDEST SWAP2 POP PUSH2 0x4C9C DUP4 PUSH2 0x4B8E JUMP JUMPDEST SWAP3 POP DUP3 PUSH2 0x4CAC JUMPI PUSH2 0x4CAB PUSH2 0x4CE6 JUMP JUMPDEST JUMPDEST DUP3 DUP3 MOD SWAP1 POP SWAP3 SWAP2 POP POP JUMP JUMPDEST PUSH32 0x4E487B7100000000000000000000000000000000000000000000000000000000 PUSH1 0x0 MSTORE PUSH1 0x11 PUSH1 0x4 MSTORE PUSH1 0x24 PUSH1 0x0 REVERT JUMPDEST PUSH32 0x4E487B7100000000000000000000000000000000000000000000000000000000 PUSH1 0x0 MSTORE PUSH1 0x12 PUSH1 0x4 MSTORE PUSH1 0x24 PUSH1 0x0 REVERT JUMPDEST PUSH32 0x4E487B7100000000000000000000000000000000000000000000000000000000 PUSH1 0x0 MSTORE PUSH1 0x22 PUSH1 0x4 MSTORE PUSH1 0x24 PUSH1 0x0 REVERT JUMPDEST PUSH32 0x4E487B7100000000000000000000000000000000000000000000000000000000 PUSH1 0x0 MSTORE PUSH1 0x31 PUSH1 0x4 MSTORE PUSH1 0x24 PUSH1 0x0 REVERT JUMPDEST PUSH32 0x4E487B7100000000000000000000000000000000000000000000000000000000 PUSH1 0x0 MSTORE PUSH1 0x32 PUSH1 0x4 MSTORE PUSH1 0x24 PUSH1 0x0 REVERT JUMPDEST PUSH32 0x4E487B7100000000000000000000000000000000000000000000000000000000 PUSH1 0x0 MSTORE PUSH1 0x41 PUSH1 0x4 MSTORE PUSH1 0x24 PUSH1 0x0 REVERT JUMPDEST PUSH1 0x0 DUP1 REVERT JUMPDEST PUSH1 0x0 DUP1 REVERT JUMPDEST PUSH1 0x0 DUP1 REVERT JUMPDEST PUSH1 0x0 DUP1 REVERT JUMPDEST PUSH1 0x0 DUP1 REVERT JUMPDEST PUSH1 0x0 DUP1 REVERT JUMPDEST PUSH1 0x0 PUSH1 0x1F NOT PUSH1 0x1F DUP4 ADD AND SWAP1 POP SWAP2 SWAP1 POP JUMP JUMPDEST PUSH32 0x455243373231456E756D657261626C653A206F776E657220696E646578206F75 PUSH1 0x0 DUP3 ADD MSTORE PUSH32 0x74206F6620626F756E6473000000000000000000000000000000000000000000 PUSH1 0x20 DUP3 ADD MSTORE POP JUMP JUMPDEST PUSH32 0x4552433732313A207472616E7366657220746F206E6F6E204552433732315265 PUSH1 0x0 DUP3 ADD MSTORE PUSH32 0x63656976657220696D706C656D656E7465720000000000000000000000000000 PUSH1 0x20 DUP3 ADD MSTORE POP JUMP JUMPDEST PUSH32 0x4F776E61626C653A206E6577206F776E657220697320746865207A65726F2061 PUSH1 0x0 DUP3 ADD MSTORE PUSH32 0x6464726573730000000000000000000000000000000000000000000000000000 PUSH1 0x20 DUP3 ADD MSTORE POP JUMP JUMPDEST PUSH32 0x4552433732313A207472616E736665722066726F6D20696E636F727265637420 PUSH1 0x0 DUP3 ADD MSTORE PUSH32 0x6F776E6572000000000000000000000000000000000000000000000000000000 PUSH1 0x20 DUP3 ADD MSTORE POP JUMP JUMPDEST PUSH32 0x4552433732313A20746F6B656E20616C7265616479206D696E74656400000000 PUSH1 0x0 DUP3 ADD MSTORE POP JUMP JUMPDEST PUSH32 0x496E73756666696369656E742046756E64730000000000000000000000000000 PUSH1 0x0 DUP3 ADD MSTORE POP JUMP JUMPDEST PUSH32 0x416C6C204E6174696F6E616C20456D7065726F72206973206D696E7465640000 PUSH1 0x0 DUP3 ADD MSTORE POP JUMP JUMPDEST PUSH32 0x4552433732313A207472616E7366657220746F20746865207A65726F20616464 PUSH1 0x0 DUP3 ADD MSTORE PUSH32 0x7265737300000000000000000000000000000000000000000000000000000000 PUSH1 0x20 DUP3 ADD MSTORE POP JUMP JUMPDEST PUSH32 0x4552433732313A20617070726F766520746F2063616C6C657200000000000000 PUSH1 0x0 DUP3 ADD MSTORE POP JUMP JUMPDEST PUSH32 0x556E65787065637465642074696572206E756D62657200000000000000000000 PUSH1 0x0 DUP3 ADD MSTORE POP JUMP JUMPDEST PUSH32 0x4552433732313A206F70657261746F7220717565727920666F72206E6F6E6578 PUSH1 0x0 DUP3 ADD MSTORE PUSH32 0x697374656E7420746F6B656E0000000000000000000000000000000000000000 PUSH1 0x20 DUP3 ADD MSTORE POP JUMP JUMPDEST PUSH32 0x416C6C20576F726C6420456D7065726F72206973206D696E7465640000000000 PUSH1 0x0 DUP3 ADD MSTORE POP JUMP JUMPDEST PUSH32 0x4552433732313A20617070726F76652063616C6C6572206973206E6F74206F77 PUSH1 0x0 DUP3 ADD MSTORE PUSH32 0x6E6572206E6F7220617070726F76656420666F7220616C6C0000000000000000 PUSH1 0x20 DUP3 ADD MSTORE POP JUMP JUMPDEST PUSH32 0x4552433732313A2062616C616E636520717565727920666F7220746865207A65 PUSH1 0x0 DUP3 ADD MSTORE PUSH32 0x726F206164647265737300000000000000000000000000000000000000000000 PUSH1 0x20 DUP3 ADD MSTORE POP JUMP JUMPDEST PUSH32 0x4552433732313A206F776E657220717565727920666F72206E6F6E6578697374 PUSH1 0x0 DUP3 ADD MSTORE PUSH32 0x656E7420746F6B656E0000000000000000000000000000000000000000000000 PUSH1 0x20 DUP3 ADD MSTORE POP JUMP JUMPDEST PUSH32 0x416C6C20436F6E74696E656E7420456D7065726F72206973206D696E74656400 PUSH1 0x0 DUP3 ADD MSTORE POP JUMP JUMPDEST PUSH32 0x4552433732313A206D696E7420746F20746865207A65726F2061646472657373 PUSH1 0x0 DUP3 ADD MSTORE POP JUMP JUMPDEST PUSH32 0x4552433732313A20617070726F76656420717565727920666F72206E6F6E6578 PUSH1 0x0 DUP3 ADD MSTORE PUSH32 0x697374656E7420746F6B656E0000000000000000000000000000000000000000 PUSH1 0x20 DUP3 ADD MSTORE POP JUMP JUMPDEST PUSH32 0x4F776E61626C653A2063616C6C6572206973206E6F7420746865206F776E6572 PUSH1 0x0 DUP3 ADD MSTORE POP JUMP JUMPDEST PUSH32 0x4552433732314D657461646174613A2055524920717565727920666F72206E6F PUSH1 0x0 DUP3 ADD MSTORE PUSH32 0x6E6578697374656E7420746F6B656E0000000000000000000000000000000000 PUSH1 0x20 DUP3 ADD MSTORE POP JUMP JUMPDEST PUSH32 0x4D6178204E465420706572206164647265737320657863656564656400000000 PUSH1 0x0 DUP3 ADD MSTORE POP JUMP JUMPDEST PUSH32 0x4552433732313A20617070726F76616C20746F2063757272656E74206F776E65 PUSH1 0x0 DUP3 ADD MSTORE PUSH32 0x7200000000000000000000000000000000000000000000000000000000000000 PUSH1 0x20 DUP3 ADD MSTORE POP JUMP JUMPDEST PUSH32 0x796F75722077616C6C6574206164647265737320697320626C61636B6C697374 PUSH1 0x0 DUP3 ADD MSTORE PUSH32 0x6564000000000000000000000000000000000000000000000000000000000000 PUSH1 0x20 DUP3 ADD MSTORE POP JUMP JUMPDEST POP JUMP JUMPDEST PUSH32 0x4552433732313A207472616E736665722063616C6C6572206973206E6F74206F PUSH1 0x0 DUP3 ADD MSTORE PUSH32 0x776E6572206E6F7220617070726F766564000000000000000000000000000000 PUSH1 0x20 DUP3 ADD MSTORE POP JUMP JUMPDEST PUSH32 0x455243373231456E756D657261626C653A20676C6F62616C20696E646578206F PUSH1 0x0 DUP3 ADD MSTORE PUSH32 0x7574206F6620626F756E64730000000000000000000000000000000000000000 PUSH1 0x20 DUP3 ADD MSTORE POP JUMP JUMPDEST PUSH32 0x556E657870656374656420746965720000000000000000000000000000000000 PUSH1 0x0 DUP3 ADD MSTORE POP JUMP JUMPDEST PUSH32 0x5468697320636F6E747261637420697320706175736564000000000000000000 PUSH1 0x0 DUP3 ADD MSTORE POP JUMP JUMPDEST PUSH2 0x5499 DUP2 PUSH2 0x4B24 JUMP JUMPDEST DUP2 EQ PUSH2 0x54A4 JUMPI PUSH1 0x0 DUP1 REVERT JUMPDEST POP JUMP JUMPDEST PUSH2 0x54B0 DUP2 PUSH2 0x4B36 JUMP JUMPDEST DUP2 EQ PUSH2 0x54BB JUMPI PUSH1 0x0 DUP1 REVERT JUMPDEST POP JUMP JUMPDEST PUSH2 0x54C7 DUP2 PUSH2 0x4B42 JUMP JUMPDEST DUP2 EQ PUSH2 0x54D2 JUMPI PUSH1 0x0 DUP1 REVERT JUMPDEST POP JUMP JUMPDEST PUSH2 0x54DE DUP2 PUSH2 0x4B8E JUMP JUMPDEST DUP2 EQ PUSH2 0x54E9 JUMPI PUSH1 0x0 DUP1 REVERT JUMPDEST POP JUMP INVALID LOG2 PUSH5 0x6970667358 0x22 SLT KECCAK256 PUSH4 0x73FE3149 0xE6 SWAP4 ISZERO EQ MSTORE8 0xCB JUMP CREATE BALANCE LOG0 SUB 0xCA DUP3 PC 0xDE 0xEE PUSH15 0x2D70ACF1211900C745ED64736F6C63 NUMBER STOP ADDMOD SMOD STOP CALLER PUSH9 0x747470733A2F2F6970 PUSH7 0x732E696F2F6970 PUSH7 0x732F6261667962 PUSH6 0x6961716D6777 PUSH5 0x326970336C CALLDATALOAD PUSH2 0x7A75 CALLDATASIZE PUSH13 0x6D6B70687036616E346774346F PUSH17 0x616770726A353634683271796764746B6D CALLER PUSH10 0x72612F6D657461646174 PUSH2 0x2F00 "
		},
		"gasEstimates": {
			"creation": {
				"codeDepositCost": "4358800",
				"executionCost": "infinite",
				"totalCost": "infinite"
			},
			"external": {
				"approve(address,uint256)": "infinite",
				"balanceOf(address)": "2946",
				"baseMetaURI()": "infinite",
				"blacklistedAddress(uint256)": "5023",
				"contractPaused()": "2561",
				"firstTier()": "2497",
				"getApproved(uint256)": "5251",
				"isApprovedForAll(address,address)": "infinite",
				"isBlacklisted(address)": "infinite",
				"metaExtension()": "infinite",
				"mint(uint256)": "infinite",
				"mintPriceFirstTier()": "2475",
				"mintPriceSecondTier()": "2475",
				"mintPriceThirdTier()": "2584",
				"name()": "infinite",
				"nftPerAddressLimit()": "2474",
				"notRevealedURI()": "infinite",
				"onlyNotBlacklisted()": "2538",
				"owner()": "2634",
				"ownerOf(uint256)": "3111",
				"renounceOwnership()": "30463",
				"reveal()": "26834",
				"revealed()": "2633",
				"safeTransferFrom(address,address,uint256)": "infinite",
				"safeTransferFrom(address,address,uint256,bytes)": "infinite",
				"secondTier()": "2474",
				"setApprovalForAll(address,bool)": "infinite",
				"setBaseMetaURI(string)": "infinite",
				"setBlacklistedAddress(address[])": "infinite",
				"setContractPaused(bool)": "27052",
				"setMetaExtension(string)": "infinite",
				"setMintPrice(uint256,uint256,uint256)": "infinite",
				"setNftPerAddressLimit(uint256)": "24893",
				"setNotRevealedURI(string)": "infinite",
				"setOnlyNotBlacklisted(bool)": "26986",
				"setTiers(uint256,uint256,uint256)": "infinite",
				"supplyOfEachTier()": "infinite",
				"supportsInterface(bytes4)": "909",
				"symbol()": "infinite",
				"thirdTier()": "2563",
				"tokenBalanceOf(address)": "2903",
				"tokenByIndex(uint256)": "infinite",
				"tokenOfOwnerByIndex(address,uint256)": "infinite",
				"tokenURI(uint256)": "infinite",
				"totalSupply()": "2602",
				"transferFrom(address,address,uint256)": "infinite",
				"transferOwnership(address)": "30833",
				"walletOfOwner(address)": "infinite",
				"withdraw()": "infinite"
			}
		},
		"methodIdentifiers": {
			"approve(address,uint256)": "095ea7b3",
			"balanceOf(address)": "70a08231",
			"baseMetaURI()": "f2423ff9",
			"blacklistedAddress(uint256)": "a01b6014",
			"contractPaused()": "8a67456a",
			"firstTier()": "1fd4d70b",
			"getApproved(uint256)": "081812fc",
			"isApprovedForAll(address,address)": "e985e9c5",
			"isBlacklisted(address)": "fe575a87",
			"metaExtension()": "c9f699a6",
			"mint(uint256)": "a0712d68",
			"mintPriceFirstTier()": "8a48a98b",
			"mintPriceSecondTier()": "1a0c34f5",
			"mintPriceThirdTier()": "d9a4df38",
			"name()": "06fdde03",
			"nftPerAddressLimit()": "ba7d2c76",
			"notRevealedURI()": "72250380",
			"onlyNotBlacklisted()": "c0d430e3",
			"owner()": "8da5cb5b",
			"ownerOf(uint256)": "6352211e",
			"renounceOwnership()": "715018a6",
			"reveal()": "a475b5dd",
			"revealed()": "51830227",
			"safeTransferFrom(address,address,uint256)": "42842e0e",
			"safeTransferFrom(address,address,uint256,bytes)": "b88d4fde",
			"secondTier()": "6ecd89b4",
			"setApprovalForAll(address,bool)": "a22cb465",
			"setBaseMetaURI(string)": "9ae16dbc",
			"setBlacklistedAddress(address[])": "886e9994",
			"setContractPaused(bool)": "882796f1",
			"setMetaExtension(string)": "8a4d61dd",
			"setMintPrice(uint256,uint256,uint256)": "319948ba",
			"setNftPerAddressLimit(uint256)": "d0eb26b0",
			"setNotRevealedURI(string)": "f2c4ce1e",
			"setOnlyNotBlacklisted(bool)": "e28b7ae9",
			"setTiers(uint256,uint256,uint256)": "0f8343e5",
			"supplyOfEachTier()": "6cfceded",
			"supportsInterface(bytes4)": "01ffc9a7",
			"symbol()": "95d89b41",
			"thirdTier()": "9405f09e",
			"tokenBalanceOf(address)": "e42c08f2",
			"tokenByIndex(uint256)": "4f6ccce7",
			"tokenOfOwnerByIndex(address,uint256)": "2f745c59",
			"tokenURI(uint256)": "c87b56dd",
			"totalSupply()": "18160ddd",
			"transferFrom(address,address,uint256)": "23b872dd",
			"transferOwnership(address)": "f2fde38b",
			"walletOfOwner(address)": "438b6300",
			"withdraw()": "3ccfd60b"
		}
	},
	"abi": [
		{
			"inputs": [
				{
					"internalType": "string",
					"name": "_name",
					"type": "string"
				},
				{
					"internalType": "string",
					"name": "_symbol",
					"type": "string"
				}
			],
			"stateMutability": "nonpayable",
			"type": "constructor"
		},
		{
			"anonymous": false,
			"inputs": [
				{
					"indexed": true,
					"internalType": "address",
					"name": "owner",
					"type": "address"
				},
				{
					"indexed": true,
					"internalType": "address",
					"name": "approved",
					"type": "address"
				},
				{
					"indexed": true,
					"internalType": "uint256",
					"name": "tokenId",
					"type": "uint256"
				}
			],
			"name": "Approval",
			"type": "event"
		},
		{
			"anonymous": false,
			"inputs": [
				{
					"indexed": true,
					"internalType": "address",
					"name": "owner",
					"type": "address"
				},
				{
					"indexed": true,
					"internalType": "address",
					"name": "operator",
					"type": "address"
				},
				{
					"indexed": false,
					"internalType": "bool",
					"name": "approved",
					"type": "bool"
				}
			],
			"name": "ApprovalForAll",
			"type": "event"
		},
		{
			"anonymous": false,
			"inputs": [
				{
					"indexed": true,
					"internalType": "address",
					"name": "previousOwner",
					"type": "address"
				},
				{
					"indexed": true,
					"internalType": "address",
					"name": "newOwner",
					"type": "address"
				}
			],
			"name": "OwnershipTransferred",
			"type": "event"
		},
		{
			"anonymous": false,
			"inputs": [
				{
					"indexed": true,
					"internalType": "address",
					"name": "from",
					"type": "address"
				},
				{
					"indexed": true,
					"internalType": "address",
					"name": "to",
					"type": "address"
				},
				{
					"indexed": true,
					"internalType": "uint256",
					"name": "tokenId",
					"type": "uint256"
				}
			],
			"name": "Transfer",
			"type": "event"
		},
		{
			"inputs": [
				{
					"internalType": "address",
					"name": "to",
					"type": "address"
				},
				{
					"internalType": "uint256",
					"name": "tokenId",
					"type": "uint256"
				}
			],
			"name": "approve",
			"outputs": [],
			"stateMutability": "nonpayable",
			"type": "function"
		},
		{
			"inputs": [
				{
					"internalType": "address",
					"name": "owner",
					"type": "address"
				}
			],
			"name": "balanceOf",
			"outputs": [
				{
					"internalType": "uint256",
					"name": "",
					"type": "uint256"
				}
			],
			"stateMutability": "view",
			"type": "function"
		},
		{
			"inputs": [],
			"name": "baseMetaURI",
			"outputs": [
				{
					"internalType": "string",
					"name": "",
					"type": "string"
				}
			],
			"stateMutability": "view",
			"type": "function"
		},
		{
			"inputs": [
				{
					"internalType": "uint256",
					"name": "",
					"type": "uint256"
				}
			],
			"name": "blacklistedAddress",
			"outputs": [
				{
					"internalType": "address",
					"name": "",
					"type": "address"
				}
			],
			"stateMutability": "view",
			"type": "function"
		},
		{
			"inputs": [],
			"name": "contractPaused",
			"outputs": [
				{
					"internalType": "bool",
					"name": "",
					"type": "bool"
				}
			],
			"stateMutability": "view",
			"type": "function"
		},
		{
			"inputs": [],
			"name": "firstTier",
			"outputs": [
				{
					"internalType": "uint256",
					"name": "",
					"type": "uint256"
				}
			],
			"stateMutability": "view",
			"type": "function"
		},
		{
			"inputs": [
				{
					"internalType": "uint256",
					"name": "tokenId",
					"type": "uint256"
				}
			],
			"name": "getApproved",
			"outputs": [
				{
					"internalType": "address",
					"name": "",
					"type": "address"
				}
			],
			"stateMutability": "view",
			"type": "function"
		},
		{
			"inputs": [
				{
					"internalType": "address",
					"name": "owner",
					"type": "address"
				},
				{
					"internalType": "address",
					"name": "operator",
					"type": "address"
				}
			],
			"name": "isApprovedForAll",
			"outputs": [
				{
					"internalType": "bool",
					"name": "",
					"type": "bool"
				}
			],
			"stateMutability": "view",
			"type": "function"
		},
		{
			"inputs": [
				{
					"internalType": "address",
					"name": "_user",
					"type": "address"
				}
			],
			"name": "isBlacklisted",
			"outputs": [
				{
					"internalType": "bool",
					"name": "",
					"type": "bool"
				}
			],
			"stateMutability": "view",
			"type": "function"
		},
		{
			"inputs": [],
			"name": "metaExtension",
			"outputs": [
				{
					"internalType": "string",
					"name": "",
					"type": "string"
				}
			],
			"stateMutability": "view",
			"type": "function"
		},
		{
			"inputs": [
				{
					"internalType": "uint256",
					"name": "_tokenTier",
					"type": "uint256"
				}
			],
			"name": "mint",
			"outputs": [],
			"stateMutability": "payable",
			"type": "function"
		},
		{
			"inputs": [],
			"name": "mintPriceFirstTier",
			"outputs": [
				{
					"internalType": "uint256",
					"name": "",
					"type": "uint256"
				}
			],
			"stateMutability": "view",
			"type": "function"
		},
		{
			"inputs": [],
			"name": "mintPriceSecondTier",
			"outputs": [
				{
					"internalType": "uint256",
					"name": "",
					"type": "uint256"
				}
			],
			"stateMutability": "view",
			"type": "function"
		},
		{
			"inputs": [],
			"name": "mintPriceThirdTier",
			"outputs": [
				{
					"internalType": "uint256",
					"name": "",
					"type": "uint256"
				}
			],
			"stateMutability": "view",
			"type": "function"
		},
		{
			"inputs": [],
			"name": "name",
			"outputs": [
				{
					"internalType": "string",
					"name": "",
					"type": "string"
				}
			],
			"stateMutability": "view",
			"type": "function"
		},
		{
			"inputs": [],
			"name": "nftPerAddressLimit",
			"outputs": [
				{
					"internalType": "uint256",
					"name": "",
					"type": "uint256"
				}
			],
			"stateMutability": "view",
			"type": "function"
		},
		{
			"inputs": [],
			"name": "notRevealedURI",
			"outputs": [
				{
					"internalType": "string",
					"name": "",
					"type": "string"
				}
			],
			"stateMutability": "view",
			"type": "function"
		},
		{
			"inputs": [],
			"name": "onlyNotBlacklisted",
			"outputs": [
				{
					"internalType": "bool",
					"name": "",
					"type": "bool"
				}
			],
			"stateMutability": "view",
			"type": "function"
		},
		{
			"inputs": [],
			"name": "owner",
			"outputs": [
				{
					"internalType": "address",
					"name": "",
					"type": "address"
				}
			],
			"stateMutability": "view",
			"type": "function"
		},
		{
			"inputs": [
				{
					"internalType": "uint256",
					"name": "tokenId",
					"type": "uint256"
				}
			],
			"name": "ownerOf",
			"outputs": [
				{
					"internalType": "address",
					"name": "",
					"type": "address"
				}
			],
			"stateMutability": "view",
			"type": "function"
		},
		{
			"inputs": [],
			"name": "renounceOwnership",
			"outputs": [],
			"stateMutability": "nonpayable",
			"type": "function"
		},
		{
			"inputs": [],
			"name": "reveal",
			"outputs": [],
			"stateMutability": "nonpayable",
			"type": "function"
		},
		{
			"inputs": [],
			"name": "revealed",
			"outputs": [
				{
					"internalType": "bool",
					"name": "",
					"type": "bool"
				}
			],
			"stateMutability": "view",
			"type": "function"
		},
		{
			"inputs": [
				{
					"internalType": "address",
					"name": "from",
					"type": "address"
				},
				{
					"internalType": "address",
					"name": "to",
					"type": "address"
				},
				{
					"internalType": "uint256",
					"name": "tokenId",
					"type": "uint256"
				}
			],
			"name": "safeTransferFrom",
			"outputs": [],
			"stateMutability": "nonpayable",
			"type": "function"
		},
		{
			"inputs": [
				{
					"internalType": "address",
					"name": "from",
					"type": "address"
				},
				{
					"internalType": "address",
					"name": "to",
					"type": "address"
				},
				{
					"internalType": "uint256",
					"name": "tokenId",
					"type": "uint256"
				},
				{
					"internalType": "bytes",
					"name": "_data",
					"type": "bytes"
				}
			],
			"name": "safeTransferFrom",
			"outputs": [],
			"stateMutability": "nonpayable",
			"type": "function"
		},
		{
			"inputs": [],
			"name": "secondTier",
			"outputs": [
				{
					"internalType": "uint256",
					"name": "",
					"type": "uint256"
				}
			],
			"stateMutability": "view",
			"type": "function"
		},
		{
			"inputs": [
				{
					"internalType": "address",
					"name": "operator",
					"type": "address"
				},
				{
					"internalType": "bool",
					"name": "approved",
					"type": "bool"
				}
			],
			"name": "setApprovalForAll",
			"outputs": [],
			"stateMutability": "nonpayable",
			"type": "function"
		},
		{
			"inputs": [
				{
					"internalType": "string",
					"name": "_baseMetaURI",
					"type": "string"
				}
			],
			"name": "setBaseMetaURI",
			"outputs": [],
			"stateMutability": "nonpayable",
			"type": "function"
		},
		{
			"inputs": [
				{
					"internalType": "address[]",
					"name": "_blacklistedAddress",
					"type": "address[]"
				}
			],
			"name": "setBlacklistedAddress",
			"outputs": [],
			"stateMutability": "nonpayable",
			"type": "function"
		},
		{
			"inputs": [
				{
					"internalType": "bool",
					"name": "_contractPaused",
					"type": "bool"
				}
			],
			"name": "setContractPaused",
			"outputs": [],
			"stateMutability": "nonpayable",
			"type": "function"
		},
		{
			"inputs": [
				{
					"internalType": "string",
					"name": "_metaExtension",
					"type": "string"
				}
			],
			"name": "setMetaExtension",
			"outputs": [],
			"stateMutability": "nonpayable",
			"type": "function"
		},
		{
			"inputs": [
				{
					"internalType": "uint256",
					"name": "_mintPriceFirstTier",
					"type": "uint256"
				},
				{
					"internalType": "uint256",
					"name": "_mintPriceSecondTier",
					"type": "uint256"
				},
				{
					"internalType": "uint256",
					"name": "_mintPriceThirdTier",
					"type": "uint256"
				}
			],
			"name": "setMintPrice",
			"outputs": [],
			"stateMutability": "nonpayable",
			"type": "function"
		},
		{
			"inputs": [
				{
					"internalType": "uint256",
					"name": "_limit",
					"type": "uint256"
				}
			],
			"name": "setNftPerAddressLimit",
			"outputs": [],
			"stateMutability": "nonpayable",
			"type": "function"
		},
		{
			"inputs": [
				{
					"internalType": "string",
					"name": "_notRevealedURI",
					"type": "string"
				}
			],
			"name": "setNotRevealedURI",
			"outputs": [],
			"stateMutability": "nonpayable",
			"type": "function"
		},
		{
			"inputs": [
				{
					"internalType": "bool",
					"name": "_onlyNotBlacklisted",
					"type": "bool"
				}
			],
			"name": "setOnlyNotBlacklisted",
			"outputs": [],
			"stateMutability": "nonpayable",
			"type": "function"
		},
		{
			"inputs": [
				{
					"internalType": "uint256",
					"name": "_firstTier",
					"type": "uint256"
				},
				{
					"internalType": "uint256",
					"name": "_secondTier",
					"type": "uint256"
				},
				{
					"internalType": "uint256",
					"name": "_thirdTier",
					"type": "uint256"
				}
			],
			"name": "setTiers",
			"outputs": [],
			"stateMutability": "nonpayable",
			"type": "function"
		},
		{
			"inputs": [],
			"name": "supplyOfEachTier",
			"outputs": [
				{
					"internalType": "uint256[]",
					"name": "",
					"type": "uint256[]"
				}
			],
			"stateMutability": "view",
			"type": "function"
		},
		{
			"inputs": [
				{
					"internalType": "bytes4",
					"name": "interfaceId",
					"type": "bytes4"
				}
			],
			"name": "supportsInterface",
			"outputs": [
				{
					"internalType": "bool",
					"name": "",
					"type": "bool"
				}
			],
			"stateMutability": "view",
			"type": "function"
		},
		{
			"inputs": [],
			"name": "symbol",
			"outputs": [
				{
					"internalType": "string",
					"name": "",
					"type": "string"
				}
			],
			"stateMutability": "view",
			"type": "function"
		},
		{
			"inputs": [],
			"name": "thirdTier",
			"outputs": [
				{
					"internalType": "uint256",
					"name": "",
					"type": "uint256"
				}
			],
			"stateMutability": "view",
			"type": "function"
		},
		{
			"inputs": [
				{
					"internalType": "address",
					"name": "",
					"type": "address"
				}
			],
			"name": "tokenBalanceOf",
			"outputs": [
				{
					"internalType": "uint256",
					"name": "",
					"type": "uint256"
				}
			],
			"stateMutability": "view",
			"type": "function"
		},
		{
			"inputs": [
				{
					"internalType": "uint256",
					"name": "index",
					"type": "uint256"
				}
			],
			"name": "tokenByIndex",
			"outputs": [
				{
					"internalType": "uint256",
					"name": "",
					"type": "uint256"
				}
			],
			"stateMutability": "view",
			"type": "function"
		},
		{
			"inputs": [
				{
					"internalType": "address",
					"name": "owner",
					"type": "address"
				},
				{
					"internalType": "uint256",
					"name": "index",
					"type": "uint256"
				}
			],
			"name": "tokenOfOwnerByIndex",
			"outputs": [
				{
					"internalType": "uint256",
					"name": "",
					"type": "uint256"
				}
			],
			"stateMutability": "view",
			"type": "function"
		},
		{
			"inputs": [
				{
					"internalType": "uint256",
					"name": "tokenId",
					"type": "uint256"
				}
			],
			"name": "tokenURI",
			"outputs": [
				{
					"internalType": "string",
					"name": "",
					"type": "string"
				}
			],
			"stateMutability": "view",
			"type": "function"
		},
		{
			"inputs": [],
			"name": "totalSupply",
			"outputs": [
				{
					"internalType": "uint256",
					"name": "",
					"type": "uint256"
				}
			],
			"stateMutability": "view",
			"type": "function"
		},
		{
			"inputs": [
				{
					"internalType": "address",
					"name": "from",
					"type": "address"
				},
				{
					"internalType": "address",
					"name": "to",
					"type": "address"
				},
				{
					"internalType": "uint256",
					"name": "tokenId",
					"type": "uint256"
				}
			],
			"name": "transferFrom",
			"outputs": [],
			"stateMutability": "nonpayable",
			"type": "function"
		},
		{
			"inputs": [
				{
					"internalType": "address",
					"name": "newOwner",
					"type": "address"
				}
			],
			"name": "transferOwnership",
			"outputs": [],
			"stateMutability": "nonpayable",
			"type": "function"
		},
		{
			"inputs": [
				{
					"internalType": "address",
					"name": "_owner",
					"type": "address"
				}
			],
			"name": "walletOfOwner",
			"outputs": [
				{
					"internalType": "uint256[]",
					"name": "",
					"type": "uint256[]"
				}
			],
			"stateMutability": "view",
			"type": "function"
		},
		{
			"inputs": [],
			"name": "withdraw",
			"outputs": [],
			"stateMutability": "payable",
			"type": "function"
		}
	]
}